:020000040800F2
:1000000000000120711300081D1200081F120008D3
:100010002112000823120008251200080000000029
:10002000000000000000000000000000271200088F
:1000300029120008000000002B1200082D120008F1
:10004000B9130008B9130008B9130008B913000860
:10005000B9130008B9130008B913000845120008C5
:10006000B9130008B9130008B9130008B913000840
:10007000B9130008B9130008B9130008B913000830
:10008000B9130008B9130008B9130008B913000820
:1000900035120008B9130008B91300084F12000800
:1000A000B9130008B9130008B9130008B913000800
:1000B000B9130008B9130008B9130008B9130008F0
:1000C000B9130008B9130008B9130008B9130008E0
:1000D000B9130008B9130008B9130008B9130008D0
:1000E000B9130008B9130008B9130008B9130008C0
:1000F000B9130008B9130008B9130008B9130008B0
:10010000B9130008B9130008B9130008B91300089F
:10011000B9130008B9130008B9130008B91300088F
:10012000B9130008B9130008B9130008B91300087F
:1001300000000000000000000000000000000000BF
:1001400000000000000000000000000000000000AF
:10015000000000000000000000000000000000009F
:10016000000000000000000000000000000000008F
:10017000000000000000000000000000000000007F
:10018000000000000000000000000000000000006F
:10019000000000000000000000000000000000005F
:1001A000000000000000000000000000000000004F
:1001B000000000000000000000000000000000003F
:1001C000000000000000000000000000000000002F
:1001D000000000000000000000000000000000001F
:0401E0005FF8E0F1F3
:1001E80010B5054C237833B9044B13B10448AFF369
:1001F80000800123237010BD200B002000000000A8
:10020800ECE6000808B5034B1BB103490348AFF3FC
:10021800008008BD00000000240B0020ECE6000868
:1002280053B94AB9002908BF00281CBF4FF0FF3155
:100238004FF0FF3000F076B9ADF1080C6DE904CE4F
:1002480000F006F8DDF804E0DDE9022304B07047A9
:100258002DE9F047089E0D4604468846002B4DD1EF
:100268008A42944668D9B2FA82F252B101FA02F38C
:10027800C2F1200120FA01F10CFA02FC41EA03085C
:1002880094404FEA1C41B8FBF1F71FFA8CFE01FBC2
:10029800178807FB0EF0230C43EA084398420AD953
:1002A8001CEB030307F1FF3580F01E81984240F2F2
:1002B8001B81023F63441B1AB3FBF1F001FB1033AF
:1002C80000FB0EFEA4B244EA0344A6450AD91CEB7F
:1002D800040400F1FF3380F00981A64540F206814D
:1002E800644402380021A4EB0E0440EA07401EB122
:1002F8000023D440C6E90043BDE8F0878B4208D903
:10030800002E00F0EE800021C6E900050846BDE891
:10031800F087B3FA83F100294AD1AB4202D3824273
:1003280000F2FC80841A65EB030301209846002E36
:10033800E2D0C6E90048DFE702B9FFDEB2FA82F28E
:10034800002A40F09180A1EB0C0001214FEA1C47E4
:100358001FFA8CFEB0FBF7F307FB1300250C45EAE8
:1003680000450EFB03F0A84208D91CEB050503F174
:10037800FF3802D2A84200F2CE8043462D1AB5FBC0
:10038800F7F007FB10550EFB00FEA4B244EA054443
:10039800A64508D91CEB040400F1FF3502D2A64596
:1003A80000F2B6802846A4EB0E0440EA03409EE71C
:1003B800C1F120078B4022FA07FC4CEA030C25FA0E
:1003C80007FA4FEA1C49BAFBF9F820FA07F309FBC8
:1003D80018AA8D401FFA8CFE1D4300FA01F308FB92
:1003E8000EF02C0C44EA0A44A04202FA01F20BD99E
:1003F8001CEB040408F1FF3A80F08880A04240F228
:100408008580A8F102086444241AB4FBF9F009FBBA
:10041800104400FB0EFEADB245EA0444A64508D9D7
:100428001CEB040400F1FF356CD2A6456AD90238EA
:10043800644440EA0840A0FB0295A4EB0E04AC42D9
:10044800C846AE4656D353D0002E69D0B3EB080247
:1004580064EB0E0422FA01F304FA07F71F43CC40B9
:10046800C6E90074002147E70CFA02FCC2F120013A
:1004780025FA01F34FEA1C4720FA01F195400D4394
:10048800B3FBF7F107FB11331FFA8CFE280C40EA87
:10049800034001FB0EF3834204FA02F408D91CEB73
:1004A800000001F1FF382FD283422DD90239604470
:1004B800C01AB0FBF7F307FB1300ADB245EA0045DD
:1004C80003FB0EF0A84208D91CEB050503F1FF3821
:1004D80016D2A84214D9023B6544281A43EA0141BE
:1004E80038E73146304607E72F46E4E61846F9E68E
:1004F8004B45A9D2B9EB020865EB0C0E0138A3E70E
:100508004346EAE7284694E74146D1E7D0467BE7E9
:100518006444023847E7023B65442FE7084606E78C
:100528003146E9E6704700BF844641EA000313F00C
:10053800030349D1403A23D30B6803604B684360F7
:100548008B688360CB68C3600B6903614B69436147
:100558008B698361CB69C3610B6A03624B6A43622F
:100568008B6A8362CB6AC3620B6B03634B6B436317
:100578008B6B8363CB6BC36340304031403ADBD233
:1005880030320BD30B6803604B6843608B68836021
:10059800CB68C36010301031103AF3D20C3205D357
:1005A80051F8043B40F8043B043AF9D2043208D02D
:1005B800D2071CBF11F8013B00F8013B01D30B889F
:1005C80003806046704700BF082A13D38B07B1D059
:1005D80010F00303AED0C3F10403D21ADB071CBF2B
:1005E80011F8013B00F8013BA4D331F8023B20F895
:1005F800023B9FE7043AD9D3013A11F8013B00F8CE
:10060800013BF9D20B7803704B7843708B78837079
:100618006046704781F0004102E000BF83F000436C
:1006280030B54FEA41044FEA430594EA050F08BF85
:1006380090EA020F1FBF54EA000C55EA020C7FEA49
:10064800645C7FEA655C00F0E2804FEA5454D4EBC6
:100658005555B8BF6D420CDD2C4480EA020281EA90
:10066800030382EA000083EA010180EA020281EAC8
:100678000303362D88BF30BD11F0004F4FEA01311A
:100688004FF4801C4CEA113102D0404261EB410129
:1006980013F0004F4FEA03334CEA133302D05242AF
:1006A80063EB430394EA050F00F0A780A4F101046B
:1006B800D5F1200E0DDB02FA0EFC22FA05F28018A5
:1006C80041F1000103FA0EF2801843FA05F359418B
:1006D8000EE0A5F120050EF1200E012A03FA0EFC0A
:1006E80028BF4CF0020C43FA05F3C01851EBE37134
:1006F80001F0004507D54FF0000EDCF1000C7EEB51
:1007080000006EEB0101B1F5801F1BD3B1F5001F8E
:100718000CD349085FEA30004FEA3C0C04F10104AD
:100728004FEA445212F5800F80F09A80BCF1004FD6
:1007380008BF5FEA500C50F1000041EB045141EA58
:10074800050130BD5FEA4C0C404141EB0101013C21
:1007580028BFB1F5801FE9D291F0000F04BF014610
:100768000020B1FA81F308BF2033A3F10B03B3F1E2
:1007780020020CDA0C3208DD02F1140CC2F10C0272
:1007880001FA0CF021FA02F10CE002F11402D8BFD0
:10079800C2F1200C01FA02F120FA0CFCDCBF41EA9C
:1007A8000C019040E41AA2BF01EB0451294330BD6B
:1007B8006FEA04041F3C1CDA0C340EDC04F1140448
:1007C800C4F1200220FA04F001FA02F340EA03001F
:1007D80021FA04F345EA030130BDC4F10C04C4F165
:1007E800200220FA02F001FA04F340EA0300294645
:1007F80030BD21FA04F0294630BD94F0000F83F48F
:10080800801306BF81F480110134013D4EE77FEA71
:10081800645C18BF7FEA655C29D094EA050F08BFBD
:1008280090EA020F05D054EA000C04BF194610469E
:1008380030BD91EA030F1EBF0021002030BD5FEAE2
:10084800545C05D14000494128BF41F0004130BD0A
:1008580014F580043CBF01F5801130BD01F000455E
:1008680045F0FE4141F470014FF0000030BD7FEAD1
:10087800645C1ABF194610467FEA655C1CBF0B46CC
:10088800024650EA013406BF52EA033591EA030FE3
:1008980041F4002130BD00BF90F0000F04BF0021DB
:1008A800704730B54FF4806404F132044FF000050E
:1008B8004FF0000150E700BF90F0000F04BF002187
:1008C800704730B54FF4806404F1320410F00045ED
:1008D80048BF40424FF000013EE700BF42004FEAE8
:1008E800E2014FEA31014FEA02701FBF12F07F4365
:1008F80093F07F4F81F06051704732F07F4208BF1C
:10090800704793F07F4F04BF41F40021704730B522
:100918004FF4607401F0004521F000411CE700BF6E
:1009280050EA010208BF704730B54FF000050AE0F1
:1009380050EA010208BF704730B511F0004502D5F2
:10094800404261EB41014FF4806404F132045FEAF4
:10095800915C3FF4D8AE4FF003025FEADC0C18BF9D
:1009680003325FEADC0C18BF033202EBDC02C2F18F
:10097800200300FA03FC20FA02F001FA03FE40EA21
:100988000E0021FA02F11444BDE600BF70B54FF025
:10099800FF0C4CF4E06C1CEA11541DBF1CEA135503
:1009A80094EA0C0F95EA0C0F00F0DEF82C4481EA6B
:1009B800030621EA4C5123EA4C5350EA013518BF8B
:1009C80052EA033541F4801143F4801338D0A0FB78
:1009D80002CE4FF00005E1FB02E506F00042E0FB25
:1009E80003E54FF00006E1FB03569CF0000F18BF2B
:1009F8004EF0010EA4F1FF04B6F5007F64F54074D3
:100A080004D25FEA4E0E6D4146EB060642EAC62165
:100A180041EA55514FEAC52040EA5E504FEACE2ED2
:100A2800B4F1FD0C88BFBCF5E06F1ED8BEF1004FD5
:100A380008BF5FEA500E50F1000041EB045170BD51
:100A480006F0004646EA010140EA020081EA030195
:100A5800B4EB5C04C2BFD4EB0C0541EA045170BD91
:100A680041F480114FF0000E013C00F3AB8014F10B
:100A7800360FDEBF002001F0004170BDC4F1000454
:100A8800203C35DA0C341BDC04F11404C4F12005D5
:100A980000FA05F320FA04F001FA05F240EA020030
:100AA80001F0004221F0004110EBD37021FA04F666
:100AB80042EB06015EEA430E08BF20EAD37070BD20
:100AC800C4F10C04C4F1200500FA04F320FA05F07F
:100AD80001FA04F240EA020001F0004110EBD37081
:100AE80041F100015EEA430E08BF20EAD37070BDF1
:100AF800C4F1200500FA05F24EEA020E20FA04F3CA
:100B080001FA05F243EA020321FA04F001F0004178
:100B180021FA04F220EA020000EBD3705EEA430EE9
:100B280008BF20EAD37070BD94F0000F0FD101F018
:100B38000046400041EB010111F4801F08BF013C51
:100B4800F7D041EA060195F0000F18BF704703F08F
:100B58000046520043EB030313F4801F08BF013D16
:100B6800F7D043EA0603704794EA0C0F0CEA1355D2
:100B780018BF95EA0C0F0CD050EA410618BF52EA8C
:100B88004306D1D181EA030101F000414FF0000092
:100B980070BD50EA410606BF1046194652EA4306A0
:100BA80019D094EA0C0F02D150EA013613D195EA14
:100BB8000C0F05D152EA03361CBF104619460AD15C
:100BC80081EA030101F0004141F0FE4141F4700166
:100BD8004FF0000070BD41F0FE4141F4780170BD56
:100BE80070B54FF0FF0C4CF4E06C1CEA11541DBFBB
:100BF8001CEA135594EA0C0F95EA0C0F00F0A7F8BD
:100C0800A4EB050481EA030E52EA03354FEA0131E9
:100C180000F088804FEA03334FF0805545EA1313FC
:100C280043EA12634FEA022245EA111545EA1065C4
:100C38004FEA00260EF000419D4208BF964244F15B
:100C4800FD0404F5407402D25B084FEA3202B61A7A
:100C580065EB03055B084FEA32024FF480104FF44E
:100C6800002CB6EB020E75EB030E22BFB61A7546C2
:100C780040EA0C005B084FEA3202B6EB020E75EB55
:100C8800030E22BFB61A754640EA5C005B084FEABD
:100C98003202B6EB020E75EB030E22BFB61A75468A
:100CA80040EA9C005B084FEA3202B6EB020E75EB95
:100CB800030E22BFB61A754640EADC0055EA060E56
:100CC80018D04FEA051545EA16754FEA06164FEA99
:100CD800C30343EA52734FEAC2025FEA1C1CC0D145
:100CE80011F4801F0BD141EA00014FF000004FF0D2
:100CF800004CB6E711F4801F04BF01430020B4F193
:100D0800FD0C88BFBCF5E06F3FF6AFAEB5EB030C4A
:100D180004BFB6EB020C5FEA500C50F1000041EB47
:100D2800045170BD0EF0004E4EEA113114EB5C0414
:100D3800C2BFD4EB0C0541EA045170BD41F48011E7
:100D48004FF0000E013C90E645EA060E8DE60CEAEF
:100D5800135594EA0C0F08BF95EA0C0F3FF43BAF0C
:100D680094EA0C0F0AD150EA01347FF434AF95EAC3
:100D78000C0F7FF425AF104619462CE795EA0C0FA7
:100D880006D152EA03353FF4FDAE1046194622E774
:100D980050EA410618BF52EA43067FF4C5AE50EA4E
:100DA80041047FF40DAF52EA43057FF4EBAE12E73E
:100DB8004FF0FF3C06E000BF4FF0010C02E000BF1F
:100DC8004FF0010C4DF804CD4FEA410C7FEA6C5C02
:100DD8004FEA430C18BF7FEA6C5C1BD001B050EAA5
:100DE800410C0CBF52EA430C91EA030F02BF90EA90
:100DF800020F0020704710F1000F91EA030F58BF4F
:100E0800994208BF90422CBFD8176FEAE37040F0B0
:100E1800010070474FEA410C7FEA6C5C02D150EA4E
:100E2800013C07D14FEA430C7FEA6C5CD6D152EA09
:100E3800033CD3D05DF8040B704700BF84461046CE
:100E480062468C461946634600E000BF01B5FFF7CD
:100E5800B7FF002848BF10F1000F01BD4DF808ED9D
:100E6800FFF7F4FF0CBF012000205DF808FB00BF6E
:100E78004DF808EDFFF7EAFF34BF012000205DF8C8
:100E880008FB00BF4DF808EDFFF7E0FF94BF012015
:100E980000205DF808FB00BF4DF808EDFFF7CEFF16
:100EA80094BF012000205DF808FB00BF4DF808ED55
:100EB800FFF7C4FF34BF012000205DF808FB00BF26
:100EC8004FEA410C7FEA6C5C02D150EA013C0AD13E
:100ED8004FEA430C7FEA6C5C02D152EA033C02D130
:100EE8004FF0000070474FF0010070474FEA410291
:100EF80012F5001215D211D56FF47873B3EB625264
:100F080012D94FEAC12343F0004343EA505311F08A
:100F1800004F23FA02F018BF404270474FF000001C
:100F2800704750EA013005D111F0004008BF6FF05A
:100F3800004070474FF00000704700BF2DE9F041B6
:100F480088B0002404940594069407941F4B9A696A
:100F580042F040029A619A6902F040020192019AB5
:100F68009A6942F004029A619A6902F004020292B4
:100F7800029A9A6942F020029A619B6903F0200361
:100F88000393039BDFF8488022466021404600F027
:100F980002FC104D22464021284600F0FCFB60234D
:100FA80004930127059706940226079604A940464C
:100FB80000F0CAFA4023049305970694079604A9FB
:100FC800284600F0C1FA08B0BDE8F08100100240E0
:100FD800001801400014014072B6FEE700B597B052
:100FE800282200210CA807F0E5FB002307930893AB
:100FF80009930A930B930193029303930493059324
:10100800069301220C924FF480330D931092022222
:10101800139214934FF4E01315930CA801F0F0FB0E
:10102800C0B90F23079302210891002309934FF4B5
:1010380080620A920B9307A801F014FE60B910238E
:1010480001930023069301A801F0E8FE30B917B018
:101058005DF804FBFFF7C0FFFFF7BEFFFFF7BCFF1B
:1010680010B51C4800F044F800F0CAF9FFF7B6FFC5
:10107800FFF764FF00F022F906F00AFD07F062F8B6
:1010880006F0E4FF06F0C4FF03F066FA06F07CFC05
:1010980005F03EF805F012F801460F4807F0E8FBA6
:1010A8000E4C012221460E4803F0D6FF01460D489A
:1010B80007F0DEFB4FF480530B4A0021204603F073
:1010C800F7FF0146094807F0D3FB06F0C3FF07F016
:1010D80045F8FAE7842B00200CE7000810E7000821
:1010E8003C1B002014E700083C0B002020E7000808
:1010F80008B5054B1860054B1868002302221946ED
:10110800806807F031FC08BD7C2B002070010020AE
:10111800022801D80120704708B507F031F80923E3
:101128000360002008BD000010B5013801280AD866
:1011380014464FF0FF3392B20748006802F0B2F944
:1011480040B9204610BD07F01BF8092303604FF093
:10115800FF30F7E70520F5E77C2B0020022801D8AF
:101168000020704708B507F00BF8092303604FF01B
:10117800FF3008BD08B507F003F8092303604FF0F6
:10118800FF3008BD08B548B94FF0FF3301220848C1
:10119800006802F0E6F940B9012008BD06F0F0FF4A
:1011A800092303604FF0FF30F7E70520F5E700BF9C
:1011B8007C2B002008B5022804D84FF400534B605C
:1011C800002008BD06F0DCFF09230360F8E70000F3
:1011D80082B00E4B9A6942F001029A619A6902F054
:1011E80001020092009ADA6942F08052DA61DB6902
:1011F80003F080530193019B054A536823F0E06391
:1012080043F00073536002B0704700BF0010024003
:1012180000000140FEE7FEE7FEE7FEE7FEE7704755
:101228007047704708B500F0FDF808BD08B50248DA
:1012380001F0B6F808BD00BF3C43002008B54020C7
:1012480000F0B0FA08BD08B5022000F0ABFA08BDFE
:101258000120704708B506F093FF162303604FF08E
:10126800FF3008BD08B54FF0FF31FFF7F3FFFEE789
:1012780010B503460C4A0D490D48006840B10C48AA
:1012880000680344521A934206D8094A136010BDF5
:101298000748084C0460F2E706F072FF0C2303606D
:1012A8004FF0FF30F3E700BF00000120000C000002
:1012B800802B0020186600207047000008B50A48F7
:1012C8000A4B03604FF4E133436000238360C3603B
:1012D80003610C2242618361C36102F0B3F800B973
:1012E80008BDFFF779FEFBE7842B0020003801409A
:1012F80010B586B000230293039304930593026804
:10130800174B9A4201D006B010BD03F558439A69AD
:1013180042F480429A619A6902F480420092009AEB
:101328009A6942F004029A619B6903F004030193ED
:10133800019B4FF400730293022303930323059345
:10134800084C02A9204600F0FFF84FF4806302938E
:1013580000230393049302A9204600F0F5F8D2E78E
:101368000038014000080140FFF7A6FF0B480C4970
:101378000C4A002302E0D458C4500433C4188C42E9
:10138800F9D3094A094C002301E013600432A24250
:10139800FBD306F0FBFEFFF763FE7047000000205A
:1013A800200B002004F40008200B00201466002005
:1013B800FEE7000010B504460E4B18784FF47A7318
:1013C800B3FBF0F30C4A1068B0FBF3F000F0A8F898
:1013D80068B90F2C01D901200AE0002221464FF0FC
:1013E800FF3000F057F8054B1C60002000E001209A
:1013F80010BD00BF040000200000002008000020ED
:1014080008B5074A136843F010031360032000F07F
:101418002FF80F20FFF7CEFFFFF7DAFE002008BDF8
:1014280000200240034A1168034B1B780B441360E9
:10143800704700BFCC2B002004000020014B186827
:10144800704700BFCC2B002038B50446FFF7F6FFE5
:101458000546B4F1FF3F02D0044B1B781C44FFF74C
:10146800EDFF401BA042FAD338BD00BF04000020A6
:10147800074AD36823F4E0631B041B0C000200F442
:10148800E060034343F0BF6343F40033D360704725
:1014980000ED00E000B5194BDB68C3F30223C3F18C
:1014A800070CBCF1040F28BF4FF0040C03F1040E25
:1014B800BEF1060F18D9033B4FF0FF3E0EFA0CFCA5
:1014C80021EA0C0199400EFA03F322EA03031943B7
:1014D80000280BDB0901C9B200F1604000F561404A
:1014E80080F800135DF804FB0023E5E700F00F0027
:1014F8000901C9B2024B1954F4E700BF00ED00E03E
:1015080014ED00E0002807DB00F01F02400901236A
:101518009340024A42F82030704700BF00E100E0E3
:101528000138B0F1807F0BD24FF0E0235861054AB3
:10153800F02182F823100020986107221A61704771
:101548000120704700ED00E070B582B00024A44689
:10155800B0E0874DAA4210D007D9864DAA420CD0D8
:1015680005F58035AA4208D013E0A5F58015AA42F2
:1015780003D005F57025AA4207D18A68002A62D0EF
:10158800012A5BD04361082403E0A5F58015AA422F
:10159800F3D0BEF1FF0F58D80646BEF1FF0F56D85C
:1015A8004FEA8C0233680F25954023EA050304FAB5
:1015B80002F2134333604B6813F0805F78D06E4BB0
:1015C8009A6942F001029A619B6903F00103019351
:1015D800019B4FEA9C02951C684B53F825600CF060
:1015E80003039D000F23AB4026EA0306644B984291
:1015F80033D003F58063984200F0988003F5806348
:10160800984200F0958003F58063984200F092803C
:1016180003F58063984200F08F8003F58063984259
:1016280019D006231AE0CC68B3E7CC680434B0E7D5
:10163800CC680834ADE7CC680C34AAE70361082409
:10164800A7E70024A5E70424A3E7061DA5E7ACF156
:1016580008029200A6E7052300E00023AB403343CD
:101668000232464D45F822304B6813F4801F65D08E
:10167800444A936843EA0E0393604B6813F4001FCF
:1016880062D0404AD36843EA0E03D3604B6813F430
:10169800003F5FD03B4A536843EA0E0353604B68F0
:1016A80013F4803F5CD0374A136843EA0E03136093
:1016B8000CF1010C0A6832FA0CF357D0012303FA33
:1016C8000CF302EA030E33EA0202F1D14A68122A45
:1016D8003FF63FAF122A3FF65CAF01A555F822F05E
:1016E800831500082F160008391600084B16000845
:1016F8009B1500089B1500089B1500089B15000802
:101708009B1500089B1500089B1500089B150008F1
:101718009B1500089B1500089B1500089B150008E1
:101728009B150008331600083F160008012395E7AB
:10173800022393E7032391E704238FE7114A936871
:1017480023EA0E03936098E70E4AD36823EA0E0350
:10175800D3609BE70B4A536823EA0E0353609EE766
:10176800084A136823EA0E031360A1E702B070BDAC
:10177800000022100000311000100240000001405B
:1017880000080140000401408368194201D001208B
:101798007047002070470AB1016170470904016170
:1017A8007047000008B5054B5B69034200D108BDCE
:1017B800024B586102F006FFF9E700BF0004014040
:1017C80038B512F4804F44D00468B4F850309BB256
:1017D80091F800C003EBCC03023304EB4303B3F8E6
:1017E8000044C4F309048B69A34228D31B1B8B61F3
:1017F8008B697BB9056835F82C309BB223F480439C
:1018080023F0700383F4005343F4004343F0800350
:1018180025F82C3012F0400F0ED002680D7832F8FF
:1018280025309BB223F4E04323F0700343F40043D4
:1018380043F0C00322F8253024B9204638BD0023E0
:101848008B61D5E723460A894969006802F06CFE76
:10185800F3E70468B4F850309BB291F800C003EB8A
:10186800CC03063304EB4303B3F80044C4F3090480
:101878008B69A3422FD31B1B8B618B697BB90568CE
:1018880035F82C309BB223F4804323F0700383F4A3
:10189800005343F4004343F0800325F82C3012F042
:1018A800400F0FD1026891F800C032F82C309BB27B
:1018B80023F4E04323F0700343F4004343F0C003F0
:1018C80022F82C30002CB8D023464A894969006890
:1018D80002F02AFEB1E700238B61CEE770B586B02F
:1018E800002800F08180044690F8A932EBB1032368
:1018F80084F8A932206801F0A9FE254655F8106B36
:10190800EC460FCDACE80F002B68CCF80030231D57
:101918000ECB304601F08AFE054658B1022384F802
:10192800A9320125284606B070BD80F8A83206F015
:1019380073F9DCE70021206801F092FE2B4616E0DF
:101948005A1C02EB820104EBC1010120487002EB32
:10195800820104F8313004EBC1000021C17003EBAF
:10196800830004EBC0008163C1630164D3B2616882
:101978008B42E5D316E005EB850304EBC303002295
:1019880083F8692183F8685183F86B21C3F87821BB
:10199800C3F87C2105EB850304EBC303C3F880215E
:1019A8000135EDB2A942E6D8254655F8106BEC464C
:1019B8000FCDACE80F002B68CCF80030231D0ECB00
:1019C800304601F04FFE054620B1022384F8A932C3
:1019D8000125A7E7002384F82430012384F8A932DD
:1019E800206802F09EF99DE701259BE738B590F83D
:1019F800A832012B11D00446012580F8A8520068AE
:101A080001F01BFE2946204606F007FA206802F07E
:101A180086F9002084F8A80238BD0220FCE770B5DA
:101A280005460C46164612F0400F00F00E8102687B
:101A3800B2F850309BB2097803EBC103023302EBD2
:101A48004303B3F80024C2F30902A36993424ED9B1
:101A58009B1AA361A369002B66D16378002B49D137
:101A68002B68B3F8502092B2134403EB0111B1F87C
:101A78000434C3F30903A1F80434B1F804346FEA59
:101A880043436FEA53439BB2A1F804342B6862784E
:101A9800002A3CD1B3F8502092B21344227803EBC9
:101AA8000213B3F80C24C2F30902A3F80C24B3F808
:101AB8000C246FEA42426FEA524292B2A3F80C2415
:101AC8002178284606F0DCF816F4804F41D02A68C1
:101AD800217832F821309BB223F4E04323F07003DD
:101AE80043F4404343F0800322F8213031E00023DF
:101AF800A361AFE7012BC9D12B68B3F8502092B28C
:101B0800134403EB01110023A1F80434BEE7012AB2
:101B1800D6D1B3F8502092B21344227803EB0213C3
:101B28000022A3F80C24CBE716F4804F0DD02868C8
:101B380030F821309BB223F4E04323F0700343F4E0
:101B4800404343F0800320F8213094F82430012BDF
:101B580012D02A68217832F821309BB223F4E0436E
:101B680023F0400383F0300343F4004343F0800341
:101B780022F82130002070BD636913446361E36972
:101B88001344E361216A2369994224D3C91A216263
:101B98006278002A44D12A68B2F8501089B20A44FF
:101BA800217802EB0112B2F80414C1F30901A2F87A
:101BB80004143E2B1BD9580913F01F0F00D101380C
:101BC800B2F8041489B2800280B2014341F40041A2
:101BD800A2F8041426E021B9002384F8243013461F
:101BE800D6E7002384F8243023620B46D0E74BB9AC
:101BF800B2F804146FEA41416FEA514189B2A2F880
:101C080004140FE0590813F0010F00D00131B2F8A5
:101C1800040480B2890289B20143A2F8041401E0E5
:101C2800012A06D09BB222896169286802F081F8EE
:101C38008FE72A68B2F8501089B20A44217802EB7B
:101C4800011299B2A2F80414ECE70268B2F8503015
:101C58009BB2097803EBC103063302EB4303B3F8E5
:101C68000024C2F30902A36993424FD39B1AA361CC
:101C7800A369002B67D16378002B4AD12B68B3F88E
:101C8800502092B2134403EB0111B1F80434C3F3AA
:101C98000903A1F80434B1F804346FEA43436FEA46
:101CA80053439BB2A1F804342B686278002A3DD1D3
:101CB800B3F8502092B21344227803EB0213B3F81E
:101CC8000C24C2F30902A3F80C24B3F80C246FEA1D
:101CD80042426FEA524292B2A3F80C242178284675
:101CE80005F0CEFF16F4804F7FF433AF2A682178D1
:101CF80032F821309BB223F4E04323F0700343F41D
:101D0800404343F0800322F8213022E70023A361F7
:101D1800AEE7012BC8D12B68B3F8502092B2134418
:101D280003EB01110023A1F80434BDE7012AD5D142
:101D3800B3F8502092B21344227803EB0213002226
:101D4800A3F80C24CAE716F4804F0DD1286830F8A0
:101D580021309BB223F4E04323F0700343F4404363
:101D680043F0800320F8213094F82430012B7FF4CD
:101D7800F0AE636913446361E3691344E361216A64
:101D88002369994224D3C91A21622A6861780029F3
:101D980043D1B2F8501089B20A44217802EB0112FB
:101DA800B2F80C14C1F30901A2F80C143E2B1BD98C
:101DB800580913F01F0F00D10138B2F80C1489B27A
:101DC800800280B2014341F40041A2F80C1426E0DD
:101DD80021B9002384F824301346D6E70023236270
:101DE80084F824300B46D0E74BB9B2F80C146FEAEC
:101DF80041416FEA514189B2A2F80C140FE0590829
:101E080013F0010F00D00131B2F80C0480B289023E
:101E180089B20143A2F80C1401E0012906D09BB253
:101E280062896169286801F084FF92E6B2F850106F
:101E380089B20A44217802EB011299B2A2F80C1473
:101E4800EDE72DE9F04105462868B0F8443013F471
:101E5800004F00F08E82B0F84440A3B214F00F0493
:101E680040F0E28013F0100F6BD003889AB213F49D
:101E7800006F40F09D8012F4004FE5D0038823F0F6
:101E880070031B051B0D43F0800303802868B0F81E
:101E980050309BB295F8682103EBC203063300EB80
:101EA8004303B3F80034C3F30903C5F884318BB195
:101EB800D5F87C1171B1B5F86E2102F035FBD5F873
:101EC8008421D5F87C311344C5F87C31002128469B
:101ED80005F0CAFE2A68138899B213F4006FB3D1CB
:101EE80001F44051B1F5405FAED0B2F850309BB22A
:101EF8001A44B2F80C34C3F30903A2F80C34D5F829
:101F080078313E2B77D9590913F01F0F00D10139C9
:101F1800B2F80C349BB2890289B20B4343F40043F4
:101F2800A2F80C342A6813889BB223F4804323F068
:101F3800700383F4405343F4004343F08003138059
:101F480082E703889BB223F4E14323F070036FEA2E
:101F580043436FEA53439BB203802A68B2F8503078
:101F68009BB295F8281003EBC103023302EB43033D
:101F7800B3F80034C3F309036B64EA6B1344EB63EF
:101F88000021284605F07CFE95F82430002B3FF40C
:101F98005BAF2B6C002B7FF457AF95F824302A6881
:101FA80043F08003A2F84C30002385F824304BE737
:101FB800B0F850309BB295F8682103EBC2030633A2
:101FC80000EB4303B3F80034C3F30903C5F88431C5
:101FD800B5F86E2105F52C7102F0A6FA2A68138867
:101FE80023F070031B051B0D43F080031380284664
:101FF80005F032FE28E74BB9B2F80C346FEA4343D8
:102008006FEA53439BB2A2F80C348BE7590813F0DC
:10201800010F00D00131B2F80C3498B28B029BB298
:102028000343A2F80C347DE730F824309EB213F451
:10203800004F4CD116F0800F3FF406AF621C02EB44
:10204800820105EBC101286830F824309BB223F4E3
:10205800E14323F070036FEA43436FEA53439BB2B3
:1020680020F82430CB78012B00F0F28016F4807F22
:1020780040F07A812868B0F850309BB2621C02EBBD
:10208800820215F8326003EBC603023300EB430308
:10209800B3F80034C3F3090304EB840205EBC2026E
:1020A800126C9A4240F24C8104EB840705EBC70797
:1020B800D21A3A6404EB840205EBC202126C002ABD
:1020C80040F045813146284605F0DAFDBCE630F897
:1020D800243023F070031B051B0D43F0800320F808
:1020E800243004EB8401C90001F5B47105EB010843
:1020F80004EB840305EBC30393F87431002B42D13E
:102108002868B0F850309BB204EB840205EBC20299
:1021180092F8682103EBC203063300EB4303B3F8DC
:102128000074C7F3090717BB04EB840305EBC3036B
:10213800D3F884213A44C3F88421D3F87C213A4463
:10214800C3F87C21D3F880313BB104EB840305EB61
:10215800C303D3F878319F4275D204EB840305EBAF
:10216800C30393F86811284605F07EFD62E704EB87
:10217800840105EBC1013B46B1F86E21D1F87C1111
:1021880002F0D2F9D0E704EB840305EBC30393F81C
:102198006B31022B35D0296804EB840205EBC202AF
:1021A80092F8680131F820309BB223F4E04323F021
:1021B800700343F4004343F0C00321F8203028683B
:1021C80092F8682130F8223013F4804F20D0B0F80C
:1021D80050309BB203EBC203023300EB4303B3F866
:1021E8000074C7F30907002F9ED004EB840105EBA8
:1021F800C1013B46B1F87021D1F87C1102F094F985
:1022080092E7324641462846FFF7DAFA07468BE757
:10221800B0F850309BB203EBC203063300EB430324
:10222800B3F80074C7F30907002F3FF47DAF04EB40
:10223800840105EBC1013B46B1F87221D1F87C114C
:1022480002F072F970E74146286801F086FDF1E670
:1022580004EB840305EBC30300221A6493F83430BB
:10226800FBB116F0400F37D04B781BBB2B68B3F887
:10227800502092B21344621C02EB820215F83220FD
:1022880003EB0213B3F80424C2F30902A3F80424ED
:10229800B3F804246FEA42426FEA524292B2A3F8BA
:1022A8000424013404EB840415F83410284605F09E
:1022B800E7FCC9E5012BF4D12B68B3F8502092B2A2
:1022C8001344621C02EB820215F8322003EB02135E
:1022D8000022A3F80424E4E72A68631C03EB8303C1
:1022E80005EBC3035B78D3B9B2F850309BB2134403
:1022F800621C02EB820215F8322003EB0213B3F8DA
:102308000C24C2F30902A3F80C24B3F80C246FEAD6
:1023180042426FEA524292B2A3F80C24C1E7012B61
:10232800BFD1B2F850309BB21344621C02EB820258
:1023380015F8322003EB02130022A3F80C24B0E7AF
:1023480004EB840205EBC20200271764B2E604EB33
:10235800840205EBC202D66B1E44D663546C234438
:10236800536401F0FAFC6FE532462846FFF757FB45
:102378006AE50020BDE8F08190F8A832012B0DD065
:1023880010B50446012380F8A83280F824100068AC
:1023980001F0BFFC002084F8A80210BD022070479D
:1023A80010B584B00446006801F0BDFC10F4004F7D
:1023B80020D110F4806F21D110F4804F2FD110F468
:1023C800005F37D110F4805F3ED110F4006F40F009
:1023D800878010F4007F40F0AE8010F4807F27D013
:1023E8002268B2F844309BB223F480739BB2A2F8FF
:1023F80044301DE02046FFF724FD19E02268B2F8BA
:1024080044309BB223F480639BB2A2F84430204648
:1024180005F047FC00212046FFF7AEFF08E02268E0
:10242800B2F844309BB223F480439BB2A2F8443004
:1024380004B010BD2268B2F844309BB223F40053B4
:102448009BB2A2F84430F3E72268B2F840309BB25E
:1024580023F004039BB2A2F840302268B2F840305F
:102468009BB223F008039BB2A2F84030204605F047
:102478003BFC2268B2F844309BB223F480539BB2F1
:10248800A2F84430D4E7226832F8231004AA02EBF9
:10249800430222F8101C0133DBB2072BF3D9226860
:1024A800B2F840309BB243F00103A2F840302268F2
:1024B800B2F840309BB223F001039BB2A2F840303F
:1024C8002368B3F8442012F4806FF9D0B3F844209D
:1024D80092B222F4806292B2A3F8442000230BE067
:1024E8000023DAE7226804A901EB430131F8101C44
:1024F80022F823100133DBB2072BF3D92268B2F894
:1025080040309BB243F00803A2F840302268B2F88A
:1025180044309BB223F400639BB2A2F84430226893
:10252800B2F840309BB243F00403A2F84030204692
:1025380005F0CAFB7CE72268B2F844309BB223F46A
:1025480000739BB2A2F84430204605F0A4FB6FE765
:1025580010B50446084611F0800F25D101F0070C8C
:102568000CEB8C01C90001F5B47E04EB0E010CEBF9
:102578008C0C04EBCC0C4FF0000E8CF869E100F0E9
:10258800070008700A61CB70022B1AD094F8A832A1
:10259800012B19D0012384F8A832206801F073F8C0
:1025A800002084F8A80210BD01F0070C0CF1010C02
:1025B8000CEB8C0104EBC1014FF0010E81F801E036
:1025C800DDE700230B71E1E70220ECE710B50446D4
:1025D8000B4611F0800F1FD101F0070202EB8201B8
:1025E800C90001F5B471014402EB820200EBC2029A
:1025F800002082F8690103F007030B7094F8A832F1
:10260800012B13D0012384F8A832206801F020FAA6
:10261800002084F8A80210BD01F00702013202EB85
:10262800820100EBC10101204870E4E70220F2E7D3
:1026380010B501F0070C0CEB8C01C90001F5B47161
:102648000CEB8C0E00EBCE0ECEF87C21CEF8803150
:102658000024CEF884418EF869418EF868C101449F
:10266800006801F07AFB204610BD38B501F0070478
:1026780004F1010C0CEB8C0104EB840E00EBCE0E84
:10268800CEF83C20CEF8403001228EF84C20CEF80F
:1026980048300025CEF8445000EBC1035A7000F8CA
:1026A80031401946006801F058FB284638BD38B556
:1026B80001F007054268954231D804460B4611F0EF
:1026C800800F1ED101EB8101C90001F5B4710144ED
:1026D80003EB830300EBC303002283F86921012382
:1026E8008B700D7094F8A832012B1AD0012384F84E
:1026F800A832206801F097FA5DB1002084F8A8029A
:1027080038BD6B1C03EB830100EBC10101224A7049
:10271800E5E704F52C71206801F009FBEDE70120DD
:10272800EEE70220ECE70B4601F00F014268914208
:1027380030D810B5044613F0800F21D103F00702FA
:1027480002EB8201C90001F5B471014402EB820277
:1027580000EBC202002082F8690100228A7003F0AF
:1027680007030B7094F8A832012B15D0012384F8C5
:10277800A832206801F07CFA002084F8A80210BD75
:1027880003F00702013202EB820100EBC1010120D4
:102798004870E2E7012070470220F0E711F0800F4F
:1027A8000BD001F00701013101EB810100EBC10100
:1027B80052B90A73CB800020704701EB8101C90030
:1027C80001F5B4710144F3E701220A730B811B0C74
:1027D8004B81F0E782B0084B1B68084AA2FB032331
:1027E8005B0A00FB03F3019300BF019B5A1E019291
:1027F800002BF9D102B0704700000020D34D6210C1
:10280800002800F0F18170B582B00446036813F027
:10281800010F2CD0994B5B6803F00C03042B1DD0DF
:10282800964B5B6803F00C03082B12D06368B3F572
:10283800803F41D0002B55D103F1804303F5043389
:102848001A6822F480321A601A6822F480221A6008
:1028580037E08A4B5B6813F4803FE7D0874B1B68EF
:1028680013F4003F03D06368002B00F0BF81236896
:1028780013F0020F75D0814B5B6813F00C0F5FD01B
:102888007E4B5B6803F00C03082B54D02369002BA4
:1028980000F08A807A4B01221A60FEF7CFFD0546C8
:1028A800764B1B6813F0020F75D1FEF7C7FD401B6E
:1028B8000228F5D903209EE1704A136843F4803357
:1028C8001360636843B3FEF7B9FD05466B4B1B689D
:1028D80013F4003FCBD1FEF7B1FD401B6428F5D9B6
:1028E800032088E1B3F5A02F09D0644B1A6822F4BD
:1028F80080321A601A6822F480221A60E1E703F134
:102908008043A3F53C331A6842F480221A601A689F
:1029180042F480321A60D4E7FEF790FD0546574B23
:102928001B6813F4003FA2D0FEF788FD401B642803
:10293800F5D903205FE1514B5B6813F4803FA5D1C3
:102948004E4B1B6813F0020F03D02369012B40F094
:102958004F814A4A136823F0F803616943EAC103C7
:102968001360236813F0080F33D0A369002B5CD0E1
:10297800434B0122C3F88024FEF760FD05463F4B18
:102988005B6A13F0020F21D1FEF758FD401B0228A5
:10299800F5D903202FE1394A136823F0F803616958
:1029A80043EAC1031360DCE7354B00221A60FEF7E7
:1029B80045FD0546314B1B6813F0020FD1D0FEF7D9
:1029C8003DFD401B0228F5D9032014E10120FFF743
:1029D80001FF236813F0040F00F09680274BDB6992
:1029E80013F0805F34D1254BDA6942F08052DA6106
:1029F800DB6903F080530193019B0125214B1B6880
:102A080013F4807F26D0E368012B3DD0002B53D1EF
:102A180003F1804303F504331A6A22F001021A62B3
:102A28001A6A22F004021A6233E0154B0022C3F836
:102A38008024FEF703FD0546104B5B6A13F0020F76
:102A4800C7D0FEF7FBFC401B0228F5D90320D2E0D3
:102A58000025D3E70B4A136843F480731360FEF72D
:102A6800EDFC0646074B1B6813F4807FCBD1FEF7BD
:102A7800E5FC801B6428F5D90320BCE00010024067
:102A880000004242007000405F4A136A43F00103AD
:102A98001362E36833B3FEF7D1FC06465A4B1B6A50
:102AA80013F0020F2FD1FEF7C9FC801B41F28833C7
:102AB8009842F3D903209EE0052B09D0524B1A6A9D
:102AC80022F001021A621A6A22F004021A62E0E78E
:102AD8004D4B1A6A42F004021A621A6A42F0010265
:102AE8001A62D6E7FEF7AAFC0646474B1B6A13F0A4
:102AF800020F08D0FEF7A2FC801B41F288339842EF
:102B0800F3D9032077E0E5B9E369002B72D03E4A98
:102B1800526802F00C02082A56D0022B17D03B4B01
:102B280000221A66FEF78AFC0446374B1B6813F02E
:102B3800007F47D0FEF782FC001B0228F5D903204E
:102B480059E0314AD36923F08053D361DCE72F4B36
:102B580000221A66FEF772FC05462B4B1B6813F021
:102B6800007F06D0FEF76AFC401B0228F5D9032037
:102B780041E0236AB3F5803F1AD023494B6823F418
:102B88007413226A606A024313434B601F4B01228D
:102B98001A66FEF753FC04461B4B1B6813F0007FB4
:102BA8000ED1FEF74BFC001B0228F5D9032022E0CA
:102BB800154A536823F40033A1680B435360DCE7DC
:102BC800002018E0002016E0012B16D00E4B5B68A1
:102BD80003F48031226A914211D103F47013626ABE
:102BE80093420ED1002006E001207047012002E048
:102BF800012000E0002002B070BD0120FBE70120A9
:102C0800F9E70120F7E700BF001002400000424248
:102C18000F4B5B6803F00C02082A01D00D4870477F
:102C2800C3F383420C49885C13F4803F0BD0084BF4
:102C38005B68C3F34043094AD35C064A02FB00F0D1
:102C4800B0FBF3F07047064B03FB00F0704700BF82
:102C58000010024000127A0044E7000854E7000818
:102C680000093D00002800F0A08070B50D4604461C
:102C7800524B1B6803F007038B420BD24F4A136871
:102C880023F007030B431360136803F007038B4219
:102C980040F08D80236813F0020F17D013F0040F53
:102CA80004D0474A536843F4E0635360236813F041
:102CB800080F04D0424A536843F460535360404AB3
:102CC800536823F0F003A1680B435360236813F0A3
:102CD800010F31D06368012B20D0022B25D0384A50
:102CE800126812F0020F64D035494A6822F00302D4
:102CF80013434B60FEF7A2FB0646314B5B6803F0BB
:102D08000C036268B3EB820F16D0FEF797FB801BAB
:102D180041F288339842F0D9032045E0284A1268E6
:102D280012F4003FE0D101203EE0254A126812F07B
:102D3800007FD9D1012037E0204B1B6803F007033F
:102D4800AB420AD91D4A136823F007032B431360CB
:102D5800136803F00703AB422DD1236813F0040F67
:102D680006D0174A536823F4E063E1680B435360C5
:102D7800236813F0080F07D0114A536823F46053EF
:102D8800216943EAC1035360FFF742FF0C4B5B68BC
:102D9800C3F303130B4AD35CD8400B4B18600B4B9F
:102DA8001868FEF707FB002070BD0120704701205E
:102DB800FAE70120F8E70120F6E700BF002002400B
:102DC800001002402CE70008000000200800002046
:102DD800014B1868704700BF0000002008B5FFF7D6
:102DE800F7FF044B5B68C3F30223034AD35CD84064
:102DF80008BD00BF001002403CE7000808B5FFF717
:102E0800E7FF044B5B68C3F3C223034AD35CD84093
:102E180008BD00BF001002403CE7000870B582B052
:102E28000446036813F0010F36D03F4BDB6913F0FB
:102E3800805F49D13C4BDA6942F08052DA61DB6944
:102E480003F080530193019B0125384B1B6813F451
:102E5800807F3BD0344B1B6A13F4407313D06268F5
:102E680002F440729A420ED02F4A136A23F440703B
:102E78002F490126C1F840640026C1F84064106259
:102E880013F0010F36D1284A136A23F4407361689E
:102E98000B431362002D3ED1236813F0020F06D0B6
:102EA800214A536823F44043A1680B4353602368C5
:102EB80013F0100F34D01C4A536823F4800361695F
:102EC8000B43536000202CE00025BEE7174A136827
:102ED80043F480731360FEF7B1FA0646134B1B6880
:102EE80013F4807FB6D1FEF7A9FA801B6428F5D9C0
:102EF800032016E0FEF7A2FA06460B4B1B6A13F0F6
:102F0800020FC0D1FEF79AFA801B41F2883398422B
:102F1800F3D9032005E0D36923F08053D361BBE7DD
:102F2800002002B070BD00BF0010024000700040D9
:102F3800000042422DE9F04782B005468846174610
:102F48001E46FEF77BFA0A9B1B1A03EB0609FEF7DF
:102F580075FA82462B4B1B68C3F3CB3309FB03F38B
:102F680001932B689C6838EA04030CBF4FF0010CEE
:102F78004FF0000CBC4540D0B6F1FF3FF1D0FEF752
:102F88005DFAA0EB0A0048450AD2B9F1000F07D054
:102F9800019A02B14A46019B013B01939146E0E741
:102FA8002A68536823F0E00353606B68B3F5827FA7
:102FB8000BD0AB6AB3F5005F14D0012385F851300C
:102FC800002385F85030032018E0AB68B3F5004FB4
:102FD80002D0B3F5806FECD12A68136823F0400360
:102FE8001360E6E72A68136823F4005313602A681D
:102FF800136843F400531360DFE7002002B0BDE814
:10300800F08700BF0000002010B582B004460B46D0
:10301800009200228021FFF78DFF08B902B010BD91
:10302800636D43F0200363650320F7E7002856D05B
:1030380010B50446436A33B94368B3F5827F05D0B7
:103048000023C36102E00023036143610023A362FC
:1030580094F85130002B3CD0022384F85130226878
:10306800136823F040031360636803F48273A26853
:1030780002F404421343E26802F400621343226933
:1030880002F002021343626902F001021343A269CB
:1030980002F400721343E26902F038021343226A11
:1030A80002F080021343A26A02F40052216813431B
:1030B8000B60638B226803F0040353602268D369B2
:1030C80023F40063D36100206065012384F8513044
:1030D80010BD84F85030204604F074FCBCE7012091
:1030E80070472DE9F04383B01F460A9D90F8503091
:1030F800012B00F01681044688469146012380F88A
:103108005030FEF79BF9064694F85130DBB26268FE
:10311800012B0AD0B2F5827F40F0F080A268002A25
:1031280040F0F380042B40F0F280B8F1000F00F07B
:10313800F080B9F1000F00F0EE80002F00F0ED8074
:1031480094F85130DBB2042B02D0052384F85130B7
:1031580000236365C4F83890E787A787C4F83080F0
:10316800E786A7862364636423681A6812F0400F11
:1031780003D11A6842F040021A60E368B3F5006FA1
:1031880011D063680BB1012F0BD1226B2368127821
:103198001A73236B01332363E38E9BB2013B9BB20B
:1031A800E38601276EE063680BB1012F0BD1226B18
:1031B80023681288DA60236B02332363E38E9BB2A1
:1031C800013B9BB2E38601271BE023689A6812F053
:1031D800010F0ED0E28F92B25AB1DA68A36B1A804F
:1031E800A36B0233A363E38F9BB2013B9BB2E387DC
:1031F8000127FEF723F9801BA84202D3B5F1FF3F50
:103208001ED1E38E9BB21BB9E38F9BB2002B5CD01F
:1032180023689A6812F0020FD7D0E28E92B2002A81
:10322800D3D0002FD1D0226B1288DA60236B0233FF
:103238002363E38E9BB2013B9BB2E3860027C4E77E
:10324800012384F85130032059E023689A6812F06A
:10325800010F0ED0E28F92B25AB1DA68A36B1A70DE
:10326800A36B0133A363E38F9BB2013B9BB2E3875C
:103278000127FEF7E3F8831BAB4202D3B5F1FF3F0A
:103288001ED1EDB1E38E9BB213B9E38F9BB2E3B1CC
:1032980023689A6812F0020FD7D0E28E92B2002A01
:1032A800D3D0002FD1D0226B12781A73236B01333D
:1032B8002363E38E9BB2013B9BB2E3860027C4E7FE
:1032C800012384F85130032019E03246294620466C
:1032D800FFF79AFE70B9A36833B901932368DA68D7
:1032E80001929B680193019B636DC3B9012384F824
:1032F800513004E020236365012000E00220002310
:1033080084F8503003B0BDE8F0830220F7E70220CC
:10331800F5E70120F3E70120F1E70120EFE70120BD
:10332800EDE70220EEE7000010B5044602681369D5
:1033380023F44053C1680B43136183680269134344
:1033480042691A430168CB6823F4B05323F00C0395
:103358001343CB600268536923F4407381690B43BC
:1033680053610268134B9A4220D0FFF737FD02469B
:1033780002EB820202EB820263689B00B2FBF3F26B
:103388000D48A0FB02314909642303FB11231B01EB
:103398003233A0FB03235B0903F0F00202EB0112B6
:1033A80003F00F03216813448B6010BDFFF726FD5F
:1033B8000246DDE7003801401F85EB512DE9F8434F
:1033C80005460F4616469946DDF820802C68246885
:1033D80037EA04030CBF4FF0010C4FF0000CB44562
:1033E8002DD1B8F1FF3FF1D0B8F1000F05D0FEF7AD
:1033F80025F8A0EB09004045E8D92A6802F10C033A
:1034080053E8003F23F4D0730C3242E8003100291E
:10341800F3D12A6802F1140353E8003F23F00103B3
:10342800143242E800310029F3D1202385F84130D5
:1034380085F84230002385F84030032000E0002062
:10344800BDE8F88360B310B5044690F8413013B373
:10345800242384F841302268D36823F40053D360CE
:103468002046FFF761FF2268136923F49043136134
:103478002268536923F02A0353612268D36843F40E
:103488000053D36000206064202384F8413084F81E
:103498004230606310BD80F84030FDF729FFD7E760
:1034A800012070472DE9F04182B01E4690F8413066
:1034B800DBB2202B4BD104460D46904600294AD05A
:1034C8000AB9012044E000234364212380F84130F5
:1034D800FDF7B4FF0746A4F82480A4F82680A36863
:1034E800B3F5805F02D04FF000080FE02369FBB10D
:1034F8004FF000080AE038F8023B2268C3F30803DB
:103508005360E28C92B2013A92B2E284E38C9BB2AD
:103518008BB100963B46002280212046FFF74EFFE4
:10352800D8B9002DE7D015F8012B23685A60E8E7D1
:10353800A8460025EAE700963B460022402120469F
:10354800FFF73CFF58B9202384F8413000E00220FF
:1035580002B0BDE8F0810120FAE70320F8E7032074
:10356800F6E72DE9F04182B01E4690F84230DBB212
:10357800202B53D104460D469046002952D00AB953
:1035880001204CE000234364222280F84220036398
:10359800FDF754FF0746A4F82C80A4F82E80A368F2
:1035A800B3F5805F02D04FF0000817E0236913B12C
:1035B8004FF0000812E0A84600250FE023685B687A
:1035C800C3F3080328F8023B03E023685B682B7009
:1035D8000135E28D92B2013A92B2E285E38D9BB257
:1035E800BBB100963B46002220212046FFF7E6FEAD
:1035F800D0B9002DE2D0A368B3F5805FE5D013B948
:103608002369002BE1D023685B6803F07F032B70EC
:10361800DEE7202384F84230002000E0022002B0D8
:10362800BDE8F0810120FAE70320F8E784B001A89B
:1036380080E80E00002004B0704703460020A3F87D
:1036480044004FF43F42A3F840207047B0F84030A0
:1036580023F47C535B045B0CA0F8403000207047D7
:103668000020704784B0844601A880E80E0001233A
:10367800ACF840300020ACF84000ACF84400ACF89E
:10368800500004B0704710B5034691F800C030F8F8
:103698002C2092B222F4EC4222F0700292B2C87846
:1036A800032861D8DFE800F0555C0258002048F292
:1036B800800E42EA0E0223F82C2091F800C033F85D
:1036C8002C2092B222F4E04222F070024CEA02026C
:1036D80042EA0E0223F82C200A7B002A40F0DC8004
:1036E8004A78002A51D0B3F8502092B21A440C7884
:1036F80002EB0412B1F806C04FEA5C0C4FEA4C0C1E
:10370800A2F800C40C7833F8242012F0400F0CD033
:1037180033F8242092B222F4E04222F0700242F4FC
:10372800004242F0C00223F82420CA78012A1DD0A2
:10373800097833F8212092B222F4E04222F04002C4
:1037480082F0200242F4004242F0800223F8212055
:1037580017E142F40072AAE742F4C0620020A6E72B
:1037680042F480620020A2E70120A0E7097833F83C
:10377800212092B222F4E04222F0400242F40042B8
:1037880042F0800223F82120FBE0B3F8502092B2E7
:103798001A440C7802EB0412B1F806C04FEA5C0C2C
:1037A8004FEA4C0CA2F808C4B3F8502092B21A445D
:1037B8000C7802EB0412B2F80CC4CCF3090CA2F892
:1037C8000CC40C693E2C39D94FEA541E14F01F0F53
:1037D80001D10EF1FF3EB2F80CC41FFA8CFC4FEA7F
:1037E8008E2E1FFA8EFE4CEA0E0C4CF4004CA2F8FA
:1037F8000CC40C7833F8242012F4804F0CD033F822
:10380800242092B222F4E04222F0700242F44042B4
:1038180042F0800223F82420097869BB33F821207C
:1038280092B222F4804222F0700282F4405242F4B2
:10383800004242F0800223F82120A2E04CB9B2F8FD
:103848000C446FEA44446FEA5444A4B2A2F80C440E
:10385800CFE74FEA540C14F0010F01D00CF1010C22
:10386800B2F80C44A4B24FEA8C2C1FFA8CFC44EA40
:103878000C0CA2F80CC4BCE733F8212092B222F455
:10388800804222F0700282F4005242F4004242F078
:10389800800223F8212074E0CA78022A72D00C78BA
:1038A80033F8242092B222F4E24222F0700242F469
:1038B800004242F0800223F82420B3F8502092B24C
:1038C8001A4491F800C002EB0C12B1F808C04FEA94
:1038D8005C0C4FEA4C0CA2F800C4B3F8502092B22A
:1038E8001A4491F800C002EB0C12B1F80AC04FEA72
:1038F8005C0C4FEA4C0CA2F808C44A78002A50D154
:103908000C7833F8242012F4804F0CD033F824209C
:1039180092B222F4E04222F0700242F4404242F0B5
:10392800800223F824200C7833F8242012F0400F6A
:103938000CD033F8242092B222F4E04222F0700234
:1039480042F4004242F0C00223F8242091F800C05B
:1039580033F82C2092B222F4804222F0700282F4D2
:10396800405248F28004224323F82C20097833F887
:10397800212092B222F4E04222F04002224323F8AE
:10398800212010BD0C7833F8242092B222F4E042B2
:1039980022F0700242F4014242F0800223F824200F
:1039A8008BE70C7833F8242012F4804F0CD033F8CE
:1039B800242092B222F4E04222F0700242F4404203
:1039C80042F0800223F824200C7833F8242012F0E7
:1039D800400F0CD033F8242092B222F4E04222F0B7
:1039E800700242F4004242F0C00223F82420CA7850
:1039F800012A1ED00C7833F8242092B222F4E04237
:103A080022F0400282F0200242F4004242F080029A
:103A180023F82420097833F8212092B222F4804236
:103A280022F0700242F4004242F0800223F8212082
:103A3800A7E70C7833F8242092B222F4E04222F06F
:103A4800400242F4004242F0800223F82420E1E7D9
:103A58000B7B002B46D14B7813B30A7830F8223011
:103A680013F0400F0CD030F822309BB223F4E0431F
:103A780023F0700343F4004343F0C00320F82230DE
:103A88000A7830F822309BB223F4E04323F0400355
:103A980043F4004343F0800320F8223000207047AD
:103AA8000A7830F8223013F4804F0CD030F82230E6
:103AB8009BB223F4E04323F0700343F4404343F004
:103AC800800320F822300A7830F822309BB223F4A1
:103AD800804323F0700343F4004343F0800320F84D
:103AE8002230DBE74B78002B4ED10A7830F82230B1
:103AF80013F4804F0CD030F822309BB223F4E0430B
:103B080023F0700343F4404343F0800320F822304D
:103B18000A7830F8223013F0400F0CD030F82230F9
:103B28009BB223F4E04323F0700343F4004343F0D3
:103B3800C00320F822300A7830F822309BB223F4F0
:103B4800E04323F0700343F4004343F0C00320F83C
:103B580022300B7830F8232092B222F4804222F0EF
:103B6800700248F2800C42EA0C0220F823200A78FE
:103B780030F822309BB223F4E04323F0400343EAB9
:103B88000C0320F8223089E70A7830F8223013F441
:103B9800804F0CD030F822309BB223F4E04323F05E
:103BA800700343F4404343F0800320F822300A783E
:103BB80030F8223013F0400F0CD030F822309BB28E
:103BC80023F4E04323F0700343F4004343F0C003BD
:103BD80020F822300A7830F822309BB223F4E043F0
:103BE80023F0700343F4404343F0800320F822306D
:103BF8000B7830F8232092B222F4E04222F04002FF
:103C080048F2800C42EA0C0220F823200A7830F8A7
:103C180022309BB223F4804323F0700343EA0C0361
:103C280020F822303AE74B788BB10A7830F8223006
:103C38009BB223F4E04323F0400383F0100343F4E2
:103C4800004343F0800320F82230002070470A78B0
:103C580030F822309BB223F4804323F0700383F4BE
:103C6800805343F4004343F0800320F82230ECE70C
:103C78000B7B002B4BD14B7833B30A7830F82230CA
:103C880013F0400F0CD030F822309BB223F4E043FD
:103C980023F0700343F4004343F0C00320F82230BC
:103CA800CB78012B33D00A7830F822309BB223F43A
:103CB800E04323F0400383F0200343F4004343F040
:103CC800800320F8223022E00A7830F8223013F4FA
:103CD800804F0CD030F822309BB223F4E04323F01D
:103CE800700343F4404343F0800320F822300A78FD
:103CF80030F822309BB223F4804323F0700383F41E
:103D0800405343F4004343F0800320F8223000205E
:103D1800704711B98023A0F84C300020704700206C
:103D2800704700207047B0F8440080B27047002008
:103D3800704710B45C1C640800EB420202F5806214
:103D480007E00B78487843EA002322F8043B023165
:103D5800013C002CF5D110BC704770B505460C46E7
:103D68004A78012A3BD00B7B002B40F0A6828B6956
:103D78000A69934240F284829B1A8B61B5F85030ED
:103D88009BB22B44217803EB0113B3F80C14C1F355
:103D98000901A3F80C143E2A40F27682510912F068
:103DA8001F0F00D10139B3F80C2492B2890289B2ED
:103DB8000A4342F40042A3F80C24227835F8223052
:103DC8009BB223F4804323F0700383F4405343F4FD
:103DD800004343F0800325F82230002070BD8E692F
:103DE80009698E4200D90E46237B73B3E378022B10
:103DF8004DD0236A9B1B2362217835F8213013F0BC
:103E0800400F00F0F581002A40F0E281B5F850300B
:103E18009BB22B4403EB0113B3F80C24C2F3090241
:103E2800A3F80C243E2E40F2BA81710916F01F0F38
:103E380000D10139B3F80C2492B2890289B20A433D
:103E480042F40042A3F80C24CBE1B6B23346E28830
:103E580061692846FFF76DFFB5F850309BB22B44D7
:103E6800227803EB0213A3F80464227835F8223091
:103E78009BB223F4E04323F0400383F0300343F480
:103E8800004343F0800325F822300020A6E7236A88
:103E9800994280F06681227835F822309BB223F46B
:103EA800E04323F0700343F4014343F0800325F813
:103EB8002230236A9B1B2362227835F8223013F0C4
:103EC800400F00F0A7806378B3BBB5F850309BB2C1
:103ED8002B4403EB0213B3F80C24C2F30902A3F832
:103EE8000C243E2E0FD9710916F01F0F00D101398D
:103EF800B3F80C2492B2890289B20A4342F4004210
:103F0800A3F80C241AE04EB9B3F80C246FEA424225
:103F18006FEA524292B2A3F80C240FE0720816F02E
:103F2800010F00D00132B3F80C1489B2920292B298
:103F38000A43A3F80C2401E0012B30D0B3B2628904
:103F480061692846FFF7F5FE636933446361236AB4
:103F5800226993422DD99B1B23626378002B45D19C
:103F6800B5F850309BB22B44227803EB0213B3F818
:103F78000424C2F30902A3F804243E2E1DD97109B2
:103F880016F01F0F00D10139B3F8042492B2890248
:103F980089B20A4342F40042A3F8042428E0B5F8A1
:103FA80050309BB22B4403EB0213B2B2A3F80C249B
:103FB800C4E7002222621E46CFE74EB9B3F80424B4
:103FC8006FEA42426FEA524292B2A3F804240FE029
:103FD800720816F0010F00D00132B3F8041489B248
:103FE800920292B20A43A3F8042401E0012B06D0FE
:103FF800B3B2228961692846FFF79BFE35E7B5F819
:1040080050309BB22B44227803EB0213B2B2A3F8D0
:104018000424EDE76378B3BBB5F850309BB22B446A
:1040280003EB0213B3F80424C2F30902A3F804242F
:104038003E2E0FD9710916F01F0F00D10139B3F8C0
:10404800042492B2890289B20A4342F40042A3F8D6
:1040580004241AE04EB9B3F804246FEA42426FEA26
:10406800524292B2A3F804240FE0720816F0010F2E
:1040780000D00132B3F8041489B2920292B20A4312
:10408800A3F8042401E0012B30D0B3B2228961697E
:104098002846FFF74EFE636933446361236A226949
:1040A80093422DD99B1B23626378002B45D1B5F829
:1040B80050309BB22B44227803EB0213B3F80C2444
:1040C800C2F30902A3F80C243E2E1DD9710916F07B
:1040D8001F0F00D10139B3F80C2492B2890289B2BA
:1040E8000A4342F40042A3F80C2428E0B5F8503003
:1040F8009BB22B4403EB0213B2B2A3F80424C4E727
:10410800002222621E46CFE74EB9B3F80C246FEAAC
:1041180042426FEA524292B2A3F80C240FE07208AE
:1041280016F0010F00D00132B3F80C1489B29202D4
:1041380092B20A43A3F80C2401E0012B06D0B3B2D3
:10414800628961692846FFF7F4FD8EE6B5F85030BC
:104158009BB22B44227803EB0213B2B2A3F80C24CF
:10416800EDE7217835F8212092B222F4E24222F0DC
:10417800700242F4004242F0800225F82120B5F88E
:10418800502092B22A44217802EB01129BB2A2F885
:104198000434228961692846FFF7CBFD65E64EB9EC
:1041A800B3F80C246FEA42426FEA524292B2A3F883
:1041B8000C2416E0720816F0010F00D00132B3F893
:1041C8000C1489B2920292B20A43A3F80C2408E0B4
:1041D800B5F850309BB22B4403EB0113B2B2A3F8ED
:1041E8000C24B3B2628961692846FFF7A2FD3CE658
:1041F800B2BBB5F850309BB22B4403EB0113B3F8B4
:104208000424C2F30902A3F804243E2E0FD971092D
:1042180016F01F0F00D10139B3F8042492B28902B5
:1042280089B20A4342F40042A3F8042421E04EB9BB
:10423800B3F804246FEA42426FEA524292B2A3F8FA
:10424800042416E0720816F0010F00D00132B3F80A
:10425800041489B2920292B20A43A3F8042408E033
:10426800B5F850309BB22B4403EB0113B2B2A3F85C
:104278000424B3B2228961692846FFF75AFDF4E5A0
:1042880000228A611A4679E54AB9B3F80C246FEA24
:1042980042426FEA524292B2A3F80C248DE55108CB
:1042A80012F0010F00D00131B3F80C2492B2890248
:1042B80089B21143A3F80C147FE5CB78022B4DD0BB
:1042C800012B40F02F8189692369994240F2E680E9
:1042D800C91AA161F2B9B5F8502092B22A442178DE
:1042E80002EB0112B2F80414C1F30901A2F8041494
:1042F8003E2B40F2D780580913F01F0F00D1013828
:10430800B2F8041489B2800280B2014341F400413A
:10431800A2F804146278002A40F0F680B5F850201C
:1043280092B22A44217802EB0112B2F80C14C1F3BC
:104338000901A2F80C143E2B40F2CD80590913F064
:104348001F0F00D10139B2F80C349BB2890289B22F
:104358000B4343F40043A2F80C342EE5F2B9B0F84D
:1043680050309BB203440A7803EB0213B3F80424D9
:10437800C2F30902A3F804240A693E2A31D9510973
:1043880012F01F0F00D10139B3F8042492B2890248
:1043980089B20A4342F40042A3F804246378002B4C
:1043A80051D1B5F850309BB22B44227803EB02135D
:1043B800B3F80C24C2F30902A3F80C2422693E2A9C
:1043C80028D9510912F01F0F00D10139B3F80C2474
:1043D80092B2890289B20A4342F40042A3F80C243B
:1043E80033E04AB9B3F804246FEA42426FEA524212
:1043F80092B2A3F80424D1E7510812F0010F00D0BB
:104408000131B3F8042490B28A0292B20243A3F8AD
:104418000424C3E74AB9B3F80C246FEA42426FEAAE
:10442800524292B2A3F80C240FE0510812F0010F87
:1044380000D00131B3F80C2490B28A0292B2024340
:10444800A3F80C2401E0012B1DD0E369002B3FF4F5
:10445800B4AC227835F8221044F2400303EA010094
:104468008B4302D000287FF4A8AC35F822309BB2E9
:1044780023F4E04323F0700343F4004343F0C00304
:1044880025F8223099E4B5F850309BB22B442278B5
:1044980003EB0213228AA3F80C24D6E70023A361B6
:1044A8000B4617E74BB9B2F804146FEA41416FEABB
:1044B800514189B2A2F804142CE7590813F0010FEE
:1044C80000D00131B2F8040480B2890289B20143F4
:1044D800A2F804141EE74BB9B2F80C346FEA434350
:1044E8006FEA53439BB2A2F80C3466E4590813F000
:1044F800010F00D00131B2F80C3498B28B029BB294
:104508000343A2F80C3458E4012A7FF456ACB5F8FA
:10451800502092B22A44217802EB01129BB2A2F8F1
:104528000C344AE4012059E410B45C0800EB420062
:1045380000F5806007E030F8042B0A70C2F3072208
:104548004A700231013C002CF5D113F0010F01D063
:1045580003880B7010BC704710B586B0134B9A696E
:1045680042F010029A619B6903F010030193019BCA
:10457800422302930E4B03930124049403230593CF
:1045880002A90C48FCF7E0FF224602211720FCF79D
:1045980081FF1720FCF7B6FF224602210720FCF70F
:1045A80079FF0720FCF7AEFF06B010BD00100240EF
:1045B8000000211000100140014B188880B270479C
:1045C800D02B002008B5402802D0022833D008BDDF
:1045D80002213348FDF7D8F801281BD0314B1B784E
:1045E800DBB2022BF3D102212D48FDF7CDF80028CC
:1045F800EDD12D4A13889BB212339BB213801288D7
:1046080092B22A4B1B889BB29A4207D8264B1B882A
:104618009BB204E0234B01221A70DFE70023224AF1
:104628001380FFF7C9FF0146214804F021F91D4B0B
:1046380000221A70CBE740211948FDF7A5F8012898
:1046480025D0184B1B78DBB2012BC0D14021144870
:10465800FDF79AF80028BAD1134B1B889BB2102B90
:1046680019D8124B1B889BB212339BB20E4A138087
:1046780013889BB2123B9BB21380FFF79DFF014644
:104688000C4804F0F5F8074B00221A709FE7054B19
:1046980002221A70D5E7044B1B889BB2E6E700BFDD
:1046A80000100140D22B0020D02B00200C0000204D
:1046B80058E7000870E7000808B501F0FFFC4EF65F
:1046C8001773984201D0012008BD0020FCE708B507
:1046D80001F008FE01F01CFD0020FFF7EDFF08BD0A
:1046E80008B5084611461A0302F47042090301F09E
:1046F80065FD002008BD08B5084611461A0302F4F6
:104708007042090301F09CFD002008BD022909D070
:1047180003290BD0012901D0002070474FF4006312
:104728001360F9E74FF480531380F5E701231380F2
:10473800F2E7002070474278007840EA022070478C
:10474800C278837843EA0222437843EA0223007856
:1047580040EA03207047C279837943EA0222437909
:1047680043EA0223027942EA0321C3F30743C278EA
:1047780042EA01221B0243EA1263817841EA0222DB
:104788001B0243EA1263417841EA02211B020078C6
:1047980040EA012043EA116170470170090A41703B
:1047A80070470170C1F307234370C1F30743837057
:1047B800090EC17070470270C2F307214170C2F33D
:1047C80007418170120EC2700371C3F30722427150
:1047D800C3F3074282711B0EC37170470239036A23
:1047E800023B8B4204D9436B408901FB0030704780
:1047F8000020704700EB710070470146006820B345
:104808000246137801321F2B01D93A2BF9D13A2BE2
:1048180001D0002070470378A3F1300C5FFA8CFCBC
:10482800BCF1090F0ED80230904202D04FF0FF3091
:104838007047A3F13000002802DD4FF0FF307047C9
:104848000A6070474FF0FF3070474FF0FF307047F5
:1048580070B505790DB9284670BD044600F14006CB
:104868000123C26B31464078FFF745FF054688B9FA
:1048780000232371E16BE36ACB1A626A9342EAD29E
:10488800E378022BE7D101230A4431466078FFF729
:1048980032FFE0E70125DEE770B5C36B8B4202D13A
:1048A8000026304670BD04460D46FFF7D1FF064688
:1048B8000028F6D101232A4604F140016078FFF769
:1048C8000FFF10B101264FF0FF35E563E9E700005F
:1048D80038B50446002303714FF0FF33C363FFF775
:1048E800DBFF00286AD104F23E20FFF724FF0546CB
:1048F8004AF6552398420DD094F84030EB2B13D04C
:10490800E92B11D0E82B0FD04AF655239D4253D0FE
:10491800032038BD0B222A4904F1400003F016FF9A
:104928000028E9D10120F4E74AF655239D4239D001
:1049380004F14B00FFF7FFFE94F84D20431E184288
:10494800E2D1B0F5007FDFD3B0F5805FDCD8002A74
:10495800DAD0531E1A42D7D104F14E00FFF7EBFE0E
:104968000028D1D094F85030013B012BCCD804F169
:104978005100FFF7E0FE0028C6D004F15300FFF70E
:10498800DAFE7F2806D804F16000FFF7D9FEB0F5FB
:10499800803FB9D304F15600FFF7CDFE0028B3D00D
:1049A8000020B6E70822074904F1920003F0CEFE82
:1049B8000028BDD10020ACE70220AAE70420A8E720
:1049C80088E7000894E7000870B584B006460D46ED
:1049D8000021FFF77DFF022803D02BD855B3002410
:1049E80000E00024032C0ED806F14000230103F553
:1049F800E3731844FFF7A4FE04AB03EB840343F806
:104A0800100C0134EEE70DB16C1E0AE02C4608E0EC
:104A18003046FFF75DFF6DB901280BD90134032C2F
:104A280008D804AB03EB840353F8101C0029EFD11A
:104A38000320F0E704B070BD2DE9F04F83B00D46B8
:104A4800164600230B60FFF7D8FE0028C0F21A8232
:104A5800C54B53F82040002C00F019822C6006F05A
:104A6800FE06237873B16078FFF726FE10F0010583
:104A780008D1002E00F0078210F0040F00F0038226
:104A88000A2500E2002323706078FFF720FE10F06B
:104A9800010F40F0FE811EB110F0040F40F0FB81C1
:104AA80004F10C0202216078FFF730FE0546002869
:104AB80040F0F381A289A2F500739BB2B3F5606F51
:104AC80000F2ED81531E1A4201D00125DBE10021DD
:104AD8002046FFF779FF042800F0E381012800F25F
:104AE800E281D4F83C9000F0EB8004F14B00FFF732
:104AF80022FEA789B84240F0F28104F15600FFF780
:104B08001AFE064620B904F16400FFF719FE0646AE
:104B1800666294F85020E270531EDBB2012B00F25B
:104B2800E08106FB02F3009394F84D80A4F80A8014
:104B3800B8F1000F00F0D78108F1FF3318EA030F2E
:104B480040F0D38104F15100FFF7F5FD8246208142
:104B58004FEA571BB0FBFBF30BFB13039BB2002B75
:104B680040F0C58104F15300FFF7E5FD019020B93D
:104B780004F16000FFF7E4FD019004F14E00FFF737
:104B8800DAFD0146002800F0B481009BC318BAFB87
:104B9800FBFB5B44019A9A42C0F0AD81D21AB2FB8A
:104BA800F8F04245C0F0A981704A904240F2E9808D
:104BB8004FF0000B4FF6F572904201D84FF0020B00
:104BC80040F6F572904240F2DF80BBF1000F40F0F2
:104BD800DD800D2557E101333F2B04D8E21892F808
:104BE8004020002AF7D03F2B40F25F8104F1A80053
:104BF800FFF7A1FDB0F5807F40F0598194F8AC2013
:104C080001239340A289934240F0538104F1880024
:104C1800FFF7A1FD10EB090641F100074FF0FF3344
:104C2800B3424FF00003BB41C0F0458104F194004A
:104C3800FFF786FD606294F8AEA084F803A0BAF18D
:104C4800010F40F03A8194F8AD304FF0010808FAAE
:104C580003F81FFA88F8A4F80A80B8F1000F00F0EA
:104C68002E8104F19C00FFF76BFD8346404B984270
:104C780000F22781831C2362C4F8289004F198006D
:104C8800FFF75EFD00EB09030093636304F19000F6
:104C9800FFF756FD4844E06200230BFB08F8009A32
:104CA80012EB08085B41464577EB0303C0F00B8124
:104CB80004F1A000FFF744FD2063002637460CE00E
:104CC8000B2389E7A31993F84030812B18D020369D
:104CD800A389B6FBF3F203FB1266002EF2D16389B7
:104CE800BB4240F2F280216B2046FFF777FDC119E5
:104CF8002046FFF7D1FD002840F0E9800137E1E7C1
:104D080004F1400706F114003844FFF719FD064680
:104D1800012840F2DE80236A834240F2DC80636B24
:104D28006289811E01FB0233A363E16AA3899B08A0
:104D3800B6FBF3F319442046FFF7AEFD002840F018
:104D4800CC80A3899B08B6FBF3F203FB126307EB45
:104D58008300FFF7F5FCB0F1FF3F0BD00136B042FE
:104D6800E3D00D258FE000BFD42B0020F5FFFF0F07
:104D7800FDFFFF7F4FF0FF33E361A3614FF0040BAA
:104D880033E04FF0030B15E74FF0010B00F1020879
:104D9800C4F82080C4F8289001EB0902E2624B4471
:104DA8006363BBF1030F29D0BAF1000F00F0AB80A9
:104DB800009B1A442263BBF1020F30D008EB480372
:104DC80008F0010808EB5308B84408F1FF33B3FBB7
:104DD800F7F7B74200F299804FF0FF33E361A36120
:104DE80080236371BBF1030F1CD084F800B0484ADC
:104DF800138801339BB21380E38044E004F16A0016
:104E0800FFF799FC00287AD1BAF1000F79D104F1A3
:104E18006C00FFF795FC20634FEA8808D4E74FEA57
:104E28004808D1E704F17000FFF785FC0128DCD1C0
:104E380009F101012046FFF72FFD0028D5D10023F5
:104E4800637104F23E20FFF776FC4AF65523984238
:104E5800CBD104F14000FFF773FC2E4B9842C4D12C
:104E680004F50970FFF76CFC2B4B9842BDD104F593
:104E78000A70FFF765FCE06104F50B70FFF760FC52
:104E8800A061B2E70B25284603B0BDE8F08F0C25DA
:104E9800F9E70325F7E70A25F5E70125F3E70125F3
:104EA800F1E70125EFE70D25EDE70D25EBE70D25EA
:104EB800E9E70D25E7E70D25E5E70D25E3E70D25EE
:104EC800E1E70D25DFE70D25DDE70D25DBE7554695
:104ED800D9E70D25D7E70D25D5E75546D3E70D25A5
:104EE800D1E70D25CFE70D25CDE70D25CBE70D251E
:104EF800C9E70D25C7E70D25C5E70D25C3E70D252E
:104F0800C1E70D25BFE70D25BDE70D25BBE700BFB0
:104F1800D82B002052526141727241612DE9F04F45
:104F280085B001908B4600929A4603AA0121FFF7AB
:104F3800EDFB002840F08880DDF80C80082444B19F
:104F4800B8FBF4F24FF63E439A4202D96400E4B249
:104F5800F5E704B9FF244FF480520021504603F0CE
:104F680029FC0AF5DF763F254FF0000945E0474662
:104F780054E0A8EB0507002F56D0294606F1080093
:104F8800FFF70FFC394606F10C00FFF70AFC009BFF
:104F980033712F4AA2FB0513E91A03EB51035B098E
:104FA800B3FBF4F104FB1130C3EB8313EB1ADBB250
:104FB8000133DBB27070880800F0C0000343B3709F
:104FC800F1703D446B1EA2FB0312991A02EB5102C9
:104FD8005209B2FBF4F104FB1120C2EB82129A1AB7
:104FE800D2B20132D2B270718B0803F0C0031A43F7
:104FF800B271F171103609F10109B9F1030F13D833
:1050080095B1454510D25BF82970642F06D8AED00B
:10501800104BA3FB08235B0903FB07F7EB19434578
:10502800A7D8AB42A7D2A4E74AF655210AF5FF70E4
:10503800FFF7B3FB0123002251460198FFF75BFB02
:1050480020B905B0BDE8F08F0120FAE70120F8E7A4
:10505800054110041F85EB5110B584B001900091F3
:105068001446039103A8FFF7C8FB00281CDB0F4B6D
:1050780053F8203023B100220C4941F820201A703F
:10508800019B3BB15870019B00221A70074B019A93
:1050980043F8202014B9204604B010BD002201A90D
:1050A8006846FFF7C9FCF7E70B20F5E7D42B00208B
:1050B8002DE9F04F9DB013900F4601921D4613A89D
:1050C800FFF79BFB0028C0F2CE86B14B53F8203087
:1050D8000BB100221A70C4B22046FFF7F8FA10F09C
:1050E800010F40F0C28610F0040F40F0C386002F75
:1050F8003AD07B681A93002B38D01A9A531EB3F50E
:10510800004F01D21A4201D001231A930DF16E0209
:1051180002212046FFF7FAFA002840F0AD86BDF8D4
:105128006E00A0F500739BB2B3F5606F00F2A6861F
:10513800431E184240F0A48697F800907E78731EAC
:10514800DBB2012B00D90126D7F8088008F1FF331C
:10515800B3F5004F10D24209B8FBF2F302FB1383F8
:1051680063B14FF4007809E08A4FC2E71AAA032115
:105178002046FFF7CBFAC0E74FF40078FB68B3F19D
:10518800807F04D85A1E134202D0002300E0002377
:10519800B3FBF0F30293B5FBF0FAA84200F2728673
:1051A800019BD3B1DDF804B0BBF1000F00F06C86B1
:1051B8000023199319AA01212046FFF7A7FA90B9ED
:1051C80019F00803069317D1199B3F2B40F2C280B0
:1051D8003F3B19933F23039310E00AFB00F000F0D4
:1051E80055FE8346E0E7019B13B1012500F03EBE62
:1051F800584600F04FFEF8E700230393199B7F2BD6
:1052080040F2AB8019F0040F0CD009F007020492A9
:10521800042A19D0B3F1806F80F0B180029B802BF3
:1052280000F2B080029B802B01D98023029319F0F1
:10523800020F03D019F0010F00F0A78019F0010F39
:1052480000F0948002230493FFF773FA1999431826
:105258000793049B042B00F09F80CDF81490DDF891
:1052680008900294CDF820A0DDF810A0BAF1030F41
:1052780000F0A483B9F1000F00F0CD834F46B1FBD5
:10528800F7F340F6F572934240F2D4839D1C6D000B
:10529800BDF86E201544013DB5FBF2F54FEA481400
:1052A800B4FBF2F40120039B03EB000C06FB05C2E0
:1052B8002244DDF868E00EEB0203013BCEF1000E5C
:1052C80003EA0E039B1ABAF1030F00F0BB83B3FB8A
:1052D800F6FE06FB1E3EBEF1000F03D0013B013077
:1052E8000CF1010CB3FBF6F31D4402EB0712039B10
:1052F800D21A9142C0F0A9830B1A06FB15331B1B67
:10530800B3FBF7F3BAF1030F00F0A783BAF1020F6A
:1053180040F0D9834FF6F572934240F2BF83B9F15A
:10532800000F03D17B00402B40F24483059B13F010
:10533800020F40F04183B9F1000F04D14FEA470949
:10534800B9F1800F92D9019B002B00F0A3830E25A1
:1053580000F08CBD0023039350E7019B13B10E2589
:1053680000F084BD584600F095FDF8E7019B13B1A5
:10537800132500F07BBD584600F08CFDF8E70423A8
:10538800049361E7042304935EE7032304935BE734
:10539800D42B0020F4E70008B1F5805F54D3029BBA
:1053A80053B9B1F5002F58D208230293B1F1806F99
:1053B80002D34FF480730293039E06F120050E95E5
:1053C800029BB1FBF3F30233BDF86E2002EB8303BB
:1053D800013BB3FBF2F00C9005441A9B1D44013DC0
:1053E8005B422B400A939B1B0D93B3EB510F37D2B3
:1053F800039B0A981B1A1944029BB1FBF3F30B9306
:105408000F2B36D9B44B0B9999423BD80B9B0733DA
:10541800D9081091029901FB02F202EBD303013B78
:10542800B3FBF2F30F9314930A9A01FB03234FF093
:105438000008C1464746CDF81480454646460994BB
:10544800CDF820A09A4661E0019B13B10E2500F02B
:105458000DBD584600F01EFDF8E740230293A5E76E
:10546800019B13B10E2500F001BD584600F012FD56
:10547800F8E7019B13B10E2500F0F8BC584600F080
:1054880009FDF8E7019B13B10E2500F0EFBC584663
:1054980000F000FDF8E7384600F000FD84B2A742AE
:1054A80002D00137BFB23AE04FF0010907EB090417
:1054B800A4B23CB1204600F0F1FC844202D109F1CB
:1054C8000109F3E7B9F17F0F08D801267B1C9BB2CD
:1054D800B9F1010906D03C461F4620E002264FF6E6
:1054E800FF741CE04E463C461F4618E0BDF86E307F
:1054F8005C19013CB4FBF3F423465246594609981B
:10550800FFF7F9F838BBA24400256FB3002EC2D0CC
:10551800012EDBD01FFA89F42744BFB20026E0B27F
:105528000BF805000599FFF765F901466B1CC4F3F4
:1055380007200BF80300FFF75DF90590023508F125
:105548000208002FD2D0BDF86E30089A02FB03F390
:10555800AB42DAD1CAE7019B13B1012500F086BC42
:10556800584600F097FCF8E74346CDF84880099C78
:10557800DDF820A0BDF86E90029A02FB09F2D3185C
:10558800013BB3FBF2F3159301221692109A4A4499
:10559800013AB2FBF9F90F9AD31811935D1C0A9FCF
:1055A8000EE04E46D14528BF564633463A46594640
:1055B8002046FFF7A0F818BB3744B9EB060928D0F6
:1055C800BDF86E200AFB02F20021584603F0F2F8FB
:1055D8000023002DE5D0D808BDF86E200AFB02F2A2
:1055E800B2EBD30FDDD903F00701012202FA01F172
:1055F8001BF800200A430BF800200133013DE8E7BF
:10560800019B13B1012500F031BC584600F042FC63
:10561800F8E74F464D460C9B4E46CDF824909846E9
:10562800DDF83890089443E06FF007015846FFF71B
:10563800B8F84FF0FF310BF10400FFF7B2F802366B
:10564800082414E00BEB0400012D06D9711CFFF7A8
:10565800A8F804340136013D09E04FF0FF31F6E7C0
:10566800BDB1BDF86E300AFB03F3A34211D92DB1C9
:10567800BDF86E300AFB03F3A342E3D8002DEFD147
:10568800022FEDD81CAB03EB870353F8205C0137DE
:10569800E6E74446D04528BF544623464A4659467D
:1056A8000898FFF728F878B9A144B8EB040815D092
:1056B800BDF86E200AFB02F20021584603F07AF882
:1056C800002EB1D0099CD2E7019B0BB10125CDE397
:1056D800584600F0DFFBF9E7FDFFFF7F089CBDF8A7
:1056E8006E200AFB02F20021584603F063F8832378
:1056F8008BF8003081238BF8203002210BF1340025
:10570800FFF74FF810990BF13800FFF74AF882239A
:105718008BF8403005990BF14400FFF742F80BF184
:10572800540005900F990231FFF73BF80BF158032D
:10573800089312991846FFF734F80A9B119A029FAA
:1057480007FB02353E46574528BF564633462A468C
:1057580059462046FEF7CFFF002854D1BDF86E20E9
:105768000021584603F026F83544BF1BEAD1DDF87E
:105778000C90012F00F22383BDF86E2000215846BB
:1057880003F018F8BD4B03CBCBF80000CBF804109E
:105798001A889B78ABF808208BF80A300025039A02
:1057A8002B460BF14000FFF706F8199A2B460BF130
:1057B8004800FFF700F820210BF15000FEF7F1FF39
:1057C8000C990598FEF7EDFF0D990898FEF7E9FF8B
:1057D8000B990BF15C00FEF7E4FF119B991C0BF190
:1057E8006000FEF7DEFF07990BF16400FEF7D9FFB2
:1057F8004FF480710BF16800FEF7CFFF8BF86C5007
:10580800BDF86E300CE0019B0BB101252EE3584624
:1058180000F040FBF9E79BF86C2001328BF86C2014
:105828005B08F8D100238BF86D30DDF8088004E0C0
:105838009BF86D3001338BF86D305FEA5808F7D16B
:1058480001238BF86E3080238BF86F304FF6EB61B5
:105858000BF17800FEF7A1FF4AF655210BF5FF7012
:10586800FEF79BFF4646414600E00136BDF86E3024
:10587800B3420BD9A6F16A03012BF6D9702EF4D0E6
:105888001BF80600FEF7B6FF0146EEE70D4609F1E4
:10589800010A01234A4659462046FEF72CFF80B9E3
:1058A800BDF86E200021584602F084FFBDF86E0056
:1058B80002384AF655215844FEF76FFF4FF00109A8
:1058C80014E0019B0BB10125D0E2584600F0E2FA42
:1058D800F9E70D460AF101060123524659462046CA
:1058E800FEF709FF98B909F10109B246B9F1080FA5
:1058F80015D843462946BDF86E209A42E9D95E1C60
:105908001BF80300FEF776FF01463346F3E7019BD9
:105918000BB10125AAE2584600F0BCFAF9E7BDF838
:105928006E200021584602F045FF17E05E1C1BF868
:105938000300FEF75FFF01463346BDF86E209A422A
:10594800F4D80D460AF1010601235246594620466D
:10595800FEF7D1FE40B909F10109B246B9F10A0FC3
:1059680011D843462946E8E7019B0BB101257DE2A2
:10597800584600F08FFAF9E729460BEB0800FEF7C6
:1059880010FF08F10408BDF86E304345F4D80AF159
:1059980001090123524659462046FEF7ACFE08B9D4
:1059A8000137E6E6019B0BB101255FE2584600F09E
:1059B80071FAF9E7994659E44FF0030AB9F1000F73
:1059C80013D04F46B1FBF7F39D1CBDF86E2002EBD8
:1059D8008505013DB5FBF2F5A3F57F43F63B284A63
:1059E800934210D8002420205DE4480C4A46012741
:1059F80001E001327F00234B33F81230002BE1D055
:105A08008342F6D9DEE7019B0BB10E252EE25846FC
:105A180000F040FAF9E7080B4A46012701E0013295
:105A28007F00194B33F81230002B3FF428AC834227
:105A3800F5D924E403EB430501356D0803354FF030
:105A4800010A25E418449C444FE4019B0BB10E2540
:105A58000CE2584600F01EFAF9E74FF6F572934249
:105A68003FF654ACB9F1000F04D14FEA5709012FA2
:105A78003FF6FCAB019B4BB10E25F7E188E7000828
:105A8800FFFFFE0FE4E70008D4E70008584600F0DF
:105A980001FAF1E7584600F0FDF958E440F6F572CE
:105AA800934210D8B9F1000F05D14FEA4709B9F16F
:105AB800800F7FF6DBAB019B0BB10E25D6E1584674
:105AC80000F0E8F9F9E75246CDF810A0E146059054
