:020000040800F2
:1000000000000120991300080112000803120008E3
:10001000051200080712000809120008000000007D
:100020000000000000000000000000000B120008AB
:100030000D120008000000000F1200081112000845
:10004000E1130008E1130008E1130008E1130008C0
:10005000E1130008E1130008291200083312000818
:10006000E1130008E1130008E1130008E1130008A0
:10007000E1130008E1130008E1130008E113000890
:10008000E1130008E1130008E1130008E113000880
:1000900019120008E1130008E11300083D120008DE
:1000A000E1130008E1130008E1130008E113000860
:1000B000E1130008E1130008E1130008E113000850
:1000C000E1130008E1130008E1130008E113000840
:1000D000E1130008E1130008E1130008E113000830
:1000E0005B120008E1130008E1130008E1130008A7
:1000F000E1130008E1130008E1130008E113000810
:10010000E1130008E1130008E1130008E1130008FF
:10011000E1130008E1130008E1130008E1130008EF
:10012000E1130008E1130008E1130008E1130008DF
:1001300000000000000000000000000000000000BF
:1001400000000000000000000000000000000000AF
:10015000000000000000000000000000000000009F
:10016000000000000000000000000000000000008F
:10017000000000000000000000000000000000007F
:10018000000000000000000000000000000000006F
:10019000000000000000000000000000000000005F
:1001A000000000000000000000000000000000004F
:1001B000000000000000000000000000000000003F
:1001C000000000000000000000000000000000002F
:1001D000000000000000000000000000000000001F
:0401E0005FF8E0F1F3
:1001E80010B5054C237833B9044B13B10448AFF369
:1001F80000800123237010BD783600200000000025
:10020800A4FB000808B5034B1BB103490348AFF32F
:10021800008008BD000000007C360020A4FB000818
:10022800844641EA000313F0030349D1403A23D33B
:100238000B6803604B6843608B688360CB68C3605E
:100248000B6903614B6943618B698361CB69C36146
:100258000B6A03624B6A43628B6A8362CB6AC3622E
:100268000B6B03634B6B43638B6B8363CB6BC36316
:1002780040304031403ADBD230320BD30B68036058
:100288004B6843608B688360CB68C3601030103163
:10029800103AF3D20C3205D351F8043B40F8043B32
:1002A800043AF9D2043208D0D2071CBF11F8013B36
:1002B80000F8013B01D30B8803806046704700BFFC
:1002C800082A13D38B07B1D010F00303AED0C3F1C3
:1002D8000403D21ADB071CBF11F8013B00F8013BED
:1002E800A4D331F8023B20F8023B9FE7043AD9D364
:1002F800013A11F8013B00F8013BF9D20B78037081
:100308004B7843708B7883706046704781F000416A
:1003180002E000BF83F0004330B54FEA41044FEAE2
:10032800430594EA050F08BF90EA020F1FBF54EA7D
:10033800000C55EA020C7FEA645C7FEA655C00F019
:10034800E2804FEA5454D4EB5555B8BF6D420CDDEA
:100358002C4480EA020281EA030382EA000083EA6D
:10036800010180EA020281EA0303362D88BF30BD0D
:1003780011F0004F4FEA01314FF4801C4CEA113163
:1003880002D0404261EB410113F0004F4FEA0333C2
:100398004CEA133302D0524263EB430394EA050F4D
:1003A80000F0A780A4F10104D5F1200E0DDB02FABC
:1003B8000EFC22FA05F2801841F1000103FA0EF250
:1003C800801843FA05F359410EE0A5F120050EF116
:1003D800200E012A03FA0EFC28BF4CF0020C43FA47
:1003E80005F3C01851EBE37101F0004507D54FF054
:1003F800000EDCF1000C7EEB00006EEB0101B1F5A4
:10040800801F1BD3B1F5001F0CD349085FEA3000E9
:100418004FEA3C0C04F101044FEA445212F5800FF4
:1004280080F09A80BCF1004F08BF5FEA500C50F191
:10043800000041EB045141EA050130BD5FEA4C0C74
:10044800404141EB0101013C28BFB1F5801FE9D2D1
:1004580091F0000F04BF01460020B1FA81F308BFF4
:100468002033A3F10B03B3F120020CDA0C3208DDC0
:1004780002F1140CC2F10C0201FA0CF021FA02F19B
:100488000CE002F11402D8BFC2F1200C01FA02F10B
:1004980020FA0CFCDCBF41EA0C019040E41AA2BF30
:1004A80001EB0451294330BD6FEA04041F3C1CDAF8
:1004B8000C340EDC04F11404C4F1200220FA04F018
:1004C80001FA02F340EA030021FA04F345EA0301C2
:1004D80030BDC4F10C04C4F1200220FA02F001FA84
:1004E80004F340EA0300294630BD21FA04F0294606
:1004F80030BD94F0000F83F4801306BF81F480119F
:100508000134013D4EE77FEA645C18BF7FEA655C11
:1005180029D094EA050F08BF90EA020F05D054EAE3
:10052800000C04BF1946104630BD91EA030F1EBFE8
:100538000021002030BD5FEA545C05D140004941EC
:1005480028BF41F0004130BD14F580043CBF01F5DF
:10055800801130BD01F0004545F0FE4141F47001C5
:100568004FF0000030BD7FEA645C1ABF19461046A0
:100578007FEA655C1CBF0B46024650EA013406BFA1
:1005880052EA033591EA030F41F4002130BD00BF60
:1005980090F0000F04BF0021704730B54FF480641D
:1005A80004F132044FF000054FF0000150E700BF9E
:1005B80090F0000F04BF0021704730B54FF48064FD
:1005C80004F1320410F0004548BF40424FF00001EA
:1005D8003EE700BF42004FEAE2014FEA31014FEA2D
:1005E80002701FBF12F07F4393F07F4F81F060517C
:1005F800704732F07F4208BF704793F07F4F04BFC7
:1006080041F40021704730B54FF4607401F00045A3
:1006180021F000411CE700BF50EA010208BF704703
:1006280030B54FF000050AE050EA010208BF7047F4
:1006380030B511F0004502D5404261EB41014FF45D
:10064800806404F132045FEA915C3FF4D8AE4FF065
:1006580003025FEADC0C18BF03325FEADC0C18BF48
:10066800033202EBDC02C2F1200300FA03FC20FA99
:1006780002F001FA03FE40EA0E0021FA02F11444E6
:10068800BDE600BF70B54FF0FF0C4CF4E06C1CEAFF
:1006980011541DBF1CEA135594EA0C0F95EA0C0F70
:1006A80000F0DEF82C4481EA030621EA4C5123EAE3
:1006B8004C5350EA013518BF52EA033541F4801112
:1006C80043F4801338D0A0FB02CE4FF00005E1FBC5
:1006D80002E506F00042E0FB03E54FF00006E1FB0F
:1006E80003569CF0000F18BF4EF0010EA4F1FF0452
:1006F800B6F5007F64F5407404D25FEA4E0E6D4192
:1007080046EB060642EAC62141EA55514FEAC520A2
:1007180040EA5E504FEACE2EB4F1FD0C88BFBCF51E
:10072800E06F1ED8BEF1004F08BF5FEA500E50F1CF
:10073800000041EB045170BD06F0004646EA010195
:1007480040EA020081EA0301B4EB5C04C2BFD4EBC7
:100758000C0541EA045170BD41F480114FF0000EC0
:10076800013C00F3AB8014F1360FDEBF002001F02E
:10077800004170BDC4F10004203C35DA0C341BDCA8
:1007880004F11404C4F1200500FA05F320FA04F07A
:1007980001FA05F240EA020001F0004221F00041AE
:1007A80010EBD37021FA04F642EB06015EEA430E21
:1007B80008BF20EAD37070BDC4F10C04C4F1200551
:1007C80000FA04F320FA05F001FA04F240EA020004
:1007D80001F0004110EBD37041F100015EEA430ED5
:1007E80008BF20EAD37070BDC4F1200500FA05F2F5
:1007F8004EEA020E20FA04F301FA05F243EA020374
:1008080021FA04F001F0004121FA04F220EA020082
:1008180000EBD3705EEA430E08BF20EAD37070BDC8
:1008280094F0000F0FD101F00046400041EB0101A8
:1008380011F4801F08BF013CF7D041EA060195F08A
:10084800000F18BF704703F00046520043EB030344
:1008580013F4801F08BF013DF7D043EA0603704731
:1008680094EA0C0F0CEA135518BF95EA0C0F0CD03C
:1008780050EA410618BF52EA4306D1D181EA030182
:1008880001F000414FF0000070BD50EA410606BF7C
:100898001046194652EA430619D094EA0C0F02D1C1
:1008A80050EA013613D195EA0C0F05D152EA033606
:1008B8001CBF104619460AD181EA030101F0004124
:1008C80041F0FE4141F470014FF0000070BD41F06D
:1008D800FE4141F4780170BD70B54FF0FF0C4CF447
:1008E800E06C1CEA11541DBF1CEA135594EA0C0F66
:1008F80095EA0C0F00F0A7F8A4EB050481EA030EB3
:1009080052EA03354FEA013100F088804FEA033399
:100918004FF0805545EA131343EA12634FEA022267
:1009280045EA111545EA10654FEA00260EF0004128
:100938009D4208BF964244F1FD0404F5407402D27A
:100948005B084FEA3202B61A65EB03055B084FEA0B
:1009580032024FF480104FF4002CB6EB020E75EB08
:10096800030E22BFB61A754640EA0C005B084FEA30
:100978003202B6EB020E75EB030E22BFB61A7546AD
:1009880040EA5C005B084FEA3202B6EB020E75EBF8
:10099800030E22BFB61A754640EA9C005B084FEA70
:1009A8003202B6EB020E75EB030E22BFB61A75467D
:1009B80040EADC0055EA060E18D04FEA051545EA6C
:1009C80016754FEA06164FEAC30343EA52734FEA15
:1009D800C2025FEA1C1CC0D111F4801F0BD141EA8E
:1009E80000014FF000004FF0004CB6E711F4801FF3
:1009F80004BF01430020B4F1FD0C88BFBCF5E06FD3
:100A08003FF6AFAEB5EB030C04BFB6EB020C5FEAE2
:100A1800500C50F1000041EB045170BD0EF0004E37
:100A28004EEA113114EB5C04C2BFD4EB0C0541EA69
:100A3800045170BD41F480114FF0000E013C90E666
:100A480045EA060E8DE60CEA135594EA0C0F08BF2A
:100A580095EA0C0F3FF43BAF94EA0C0F0AD150EA29
:100A680001347FF434AF95EA0C0F7FF425AF1046BC
:100A780019462CE795EA0C0F06D152EA03353FF4E4
:100A8800FDAE1046194622E750EA410618BF52EA61
:100A980043067FF4C5AE50EA41047FF40DAF52EA35
:100AA80043057FF4EBAE12E74FF0FF3C06E000BFD2
:100AB8004FF0010C02E000BF4FF0010C4DF804CDDF
:100AC8004FEA410C7FEA6C5C4FEA430C18BF7FEA9F
:100AD8006C5C1BD001B050EA410C0CBF52EA430CCD
:100AE80091EA030F02BF90EA020F0020704710F14D
:100AF800000F91EA030F58BF994208BF90422CBFDC
:100B0800D8176FEAE37040F0010070474FEA410CD4
:100B18007FEA6C5C02D150EA013C07D14FEA430CF2
:100B28007FEA6C5CD6D152EA033CD3D05DF8040B63
:100B3800704700BF8446104662468C461946634695
:100B480000E000BF01B5FFF7B7FF002848BF10F16C
:100B5800000F01BD4DF808EDFFF7F4FF0CBF0120B1
:100B680000205DF808FB00BF4DF808EDFFF7EAFF2D
:100B780034BF012000205DF808FB00BF4DF808EDE8
:100B8800FFF7E0FF94BF012000205DF808FB00BFDD
:100B98004DF808EDFFF7CEFF94BF012000205DF867
:100BA80008FB00BF4DF808EDFFF7C4FF34BF012074
:100BB80000205DF808FB00BF4FEA410C7FEA6C5C3F
:100BC80002D150EA013C0AD14FEA430C7FEA6C5C3F
:100BD80002D152EA033C02D14FF0000070474FF0B7
:100BE800010070474FEA410212F5001215D211D5E3
:100BF8006FF47873B3EB625212D94FEAC12343F012
:100C0800004343EA505311F0004F23FA02F018BF93
:100C1800404270474FF00000704750EA013005D15C
:100C280011F0004008BF6FF0004070474FF000001F
:100C3800704700BF53B94AB9002908BF00281CBF34
:100C48004FF0FF314FF0FF3000F076B9ADF1080CEE
:100C58006DE904CE00F006F8DDF804E0DDE90223D2
:100C680004B070472DE9F047089E0D4604468846B3
:100C7800002B4DD18A42944668D9B2FA82F252B119
:100C880001FA02F3C2F1200120FA01F10CFA02FC88
:100C980041EA030894404FEA1C41B8FBF1F71FFAF8
:100CA8008CFE01FB178807FB0EF0230C43EA084370
:100CB80098420AD91CEB030307F1FF3580F01E8127
:100CC800984240F21B81023F63441B1AB3FBF1F0C8
:100CD80001FB103300FB0EFEA4B244EA0344A64510
:100CE8000AD91CEB040400F1FF3380F00981A64502
:100CF80040F20681644402380021A4EB0E0440EA65
:100D080007401EB10023D440C6E90043BDE8F08780
:100D18008B4208D9002E00F0EE800021C6E90005BC
:100D28000846BDE8F087B3FA83F100294AD1AB42FF
:100D380002D3824200F2FC80841A65EB030301208F
:100D48009846002EE2D0C6E90048DFE702B9FFDE88
:100D5800B2FA82F2002A40F09180A1EB0C00012146
:100D68004FEA1C471FFA8CFEB0FBF7F307FB130092
:100D7800250C45EA00450EFB03F0A84208D91CEBF8
:100D8800050503F1FF3802D2A84200F2CE8043469F
:100D98002D1AB5FBF7F007FB10550EFB00FEA4B2A9
:100DA80044EA0544A64508D91CEB040400F1FF35C4
:100DB80002D2A64500F2B6802846A4EB0E0440EA0B
:100DC80003409EE7C1F120078B4022FA07FC4CEA5A
:100DD800030C25FA07FA4FEA1C49BAFBF9F820FA7E
:100DE80007F309FB18AA8D401FFA8CFE1D4300FA71
:100DF80001F308FB0EF02C0C44EA0A44A04202FA64
:100E080001F20BD91CEB040408F1FF3A80F088804A
:100E1800A04240F28580A8F102086444241AB4FB79
:100E2800F9F009FB104400FB0EFEADB245EA04449C
:100E3800A64508D91CEB040400F1FF356CD2A64581
:100E48006AD90238644440EA0840A0FB0295A4EB42
:100E58000E04AC42C846AE4656D353D0002E69D0D5
:100E6800B3EB080264EB0E0422FA01F304FA07F765
:100E78001F43CC40C6E90074002147E70CFA02FC86
:100E8800C2F1200125FA01F34FEA1C4720FA01F1CB
:100E980095400D43B3FBF7F107FB11331FFA8CFEA6
:100EA800280C40EA034001FB0EF3834204FA02F4E3
:100EB80008D91CEB000001F1FF382FD283422DD94D
:100EC80002396044C01AB0FBF7F307FB1300ADB258
:100ED80045EA004503FB0EF0A84208D91CEB0505BE
:100EE80003F1FF3816D2A84214D9023B6544281AE8
:100EF80043EA014138E73146304607E72F46E4E642
:100F08001846F9E64B45A9D2B9EB020865EB0C0E79
:100F18000138A3E74346EAE7284694E74146D1E784
:100F2800D0467BE76444023847E7023B65442FE735
:100F3800084606E73146E9E6704700BF2DE9F0416B
:100F480088B0002404940594069407941F4B9A696A
:100F580042F040029A619A6902F040020192019AB5
:100F68009A6942F004029A619A6902F004020292B4
:100F7800029A9A6942F020029A619B6903F0200361
:100F88000393039BDFF8488022466021404600F027
:100F980004FC104D22464021284600F0FEFB602349
:100FA80004930127059706940226079604A940464C
:100FB80000F0CCFA4023049305970694079604A9F9
:100FC800284600F0C3FA08B0BDE8F08100100240DE
:100FD800001801400014014072B6FEE700B597B052
:100FE800282200210CA806F09BFD002307930893F4
:100FF80009930A930B930193029303930493059324
:10100800069301220C924FF480330D931092022222
:10101800139214934FF4E01315930CA801F0FCFB02
:10102800C0B90F23079302210891002309934FF4B5
:1010380080620A920B9307A801F020FE60B9102382
:1010480001930023069301A801F0F4FE30B917B00C
:101058005DF804FBFFF7C0FFFFF7BEFFFFF7BCFF1B
:1010680000B583B0184800F035F800F0DDF9FFF757
:10107800B5FFFFF763FF00F035F905F013FC06F044
:10108800FBF906F035F905F019FE05F077FE06F0D4
:10109800CFFA0E4B93E803000090ADF80410090C4A
:1010A8008DF8061007226946002005F073FE072216
:1010B8006946002005F086FE6946054806F082FD6F
:1010C80006F0DEF9FCE700BF9C360020D8FB0008DC
:1010D800C4FB000808B5054B1860054B18680023C9
:1010E80002221946806806F0D7FD08BD9436002014
:1010F800CC2C0020022801D80120704708B506F042
:10110800E5FC09230360002008BD000010B5013884
:1011180001280AD814464FF0FF3392B207480068F6
:1011280002F0CCF940B9204610BD06F0CFFC0923E7
:1011380003604FF0FF30F7E70520F5E7943600200D
:10114800022801D80020704708B506F0BFFC092323
:1011580003604FF0FF3008BD08B506F0B7FC09235F
:1011680003604FF0FF3008BD08B548B94FF0FF33B2
:1011780001220848006802F000FA40B9012008BDC1
:1011880006F0A4FC092303604FF0FF30F7E70520C1
:10119800F5E700BF9436002008B5022804D84FF4BC
:1011A80000534B60002008BD06F090FC0923036043
:1011B800F8E7000082B00E4B9A6942F001029A618A
:1011C8009A6902F001020092009ADA6942F08052AC
:1011D800DA61DB6903F080530193019B054A536888
:1011E80023F0E06343F00073536002B0704700BF20
:1011F8000010024000000140FEE7FEE7FEE7FEE7C0
:10120800FEE770477047704708B505F08FFD08BDC9
:1012180008B5024801F0C6F808BD00BF9852002082
:1012280008B5012000F0C0FA08BD08B5022000F09A
:10123800BBFA08BD08B5202000F0B6FA402000F03F
:10124800B3FA802000F0B0FA4FF4807000F0ACFAE6
:1012580008BD08B54FF4806000F0A6FA4FF40060AE
:1012680000F0A2FA4FF4805000F09EFA4FF40050BC
:1012780000F09AFA08BD0120704708B506F026FC70
:10128800162303604FF0FF3008BD08B54FF0FF315B
:10129800FFF7F3FFFEE7000010B503460C4A0D49BF
:1012A8000D48006840B10C4800680344521A934244
:1012B80006D8094A136010BD0748084C0460F2E7D5
:1012C80006F004FC0C2303604FF0FF30F3E700BF87
:1012D80000000120000C000098360020D8B600203D
:1012E8007047000008B50A480A4B03604FF4E13321
:1012F800436000238360C36003610C224261836101
:10130800C36102F0ABF800B908BDFFF765FEFBE763
:101318009C3600200038014010B586B000230293A7
:101328000393049305930268174B9A4201D006B0C1
:1013380010BD03F558439A6942F480429A619A694C
:1013480002F480420092009A9A6942F004029A617B
:101358009B6903F004030193019B4FF4007302930C
:101368000223039303230593084C02A9204600F0A7
:10137800EDF84FF48063029300230393049302A9CA
:10138800204600F0E3F8D2E70038014000080140A9
:10139800FFF7A6FF0B480C490C4A002302E0D4587B
:1013A800C4500433C4188C42F9D3094A094C0023A9
:1013B80001E013600432A242FBD306F08DFBFFF775
:1013C8004FFE7047000000207836002064020108B4
:1013D80078360020D8B60020FEE7000010B5044695
:1013E8000E4B18784FF47A73B3FBF0F30C4A10687D
:1013F800B0FBF3F000F096F868B90F2C01D9012082
:101408000AE0002221464FF0FF3000F045F8054B76
:101418001C60002000E0012010BD00BF0400002077
:10142800000000200800002008B5074A136843F0B0
:1014380010031360032000F01DF80F20FFF7CEFF04
:10144800FFF7B8FE002008BD0020024038B504466A
:1014580005F08EFC0546B4F1FF3F02D0044B1B7823
:101468001C4405F085FC401BA042FAD338BD00BFE0
:1014780004000020074AD36823F4E0631B041B0C14
:10148800000200F4E060034343F0BF6343F4003319
:10149800D360704700ED00E000B5194BDB68C3F37B
:1014A8000223C3F1070CBCF1040F28BF4FF0040C52
:1014B80003F1040EBEF1060F18D9033B4FF0FF3EAF
:1014C8000EFA0CFC21EA0C0199400EFA03F322EA09
:1014D8000303194300280BDB0901C9B200F160407E
:1014E80000F5614080F800135DF804FB0023E5E790
:1014F80000F00F000901C9B2024B1954F4E700BF0C
:1015080000ED00E014ED00E0002807DB00F01F020A
:10151800400901239340024A42F82030704700BF37
:1015280000E100E00138B0F1807F0BD24FF0E023FA
:101538005861054AF02182F823100020986107229B
:101548001A6170470120704700ED00E070B582B065
:101558000024A446B0E0874DAA4210D007D9864D92
:10156800AA420CD005F58035AA4208D013E0A5F5AB
:101578008015AA4203D005F57025AA4207D18A68CA
:10158800002A62D0012A5BD04361082403E0A5F554
:101598008015AA42F3D0BEF1FF0F58D80646BEF117
:1015A800FF0F56D84FEA8C0233680F25954023EA7F
:1015B800050304FA02F2134333604B6813F0805FAB
:1015C80078D06E4B9A6942F001029A619B6903F0E8
:1015D80001030193019B4FEA9C02951C684B53F849
:1015E80025600CF003039D000F23AB4026EA030699
:1015F800644B984233D003F58063984200F098809A
:1016080003F58063984200F0958003F58063984263
:1016180000F0928003F58063984200F08F8003F514
:101628008063984219D006231AE0CC68B3E7CC68E7
:101638000434B0E7CC680834ADE7CC680C34AAE7CA
:1016480003610824A7E70024A5E70424A3E7061DEF
:10165800A5E7ACF108029200A6E7052300E0002305
:10166800AB4033430232464D45F822304B6813F401
:10167800801F65D0444A936843EA0E0393604B6821
:1016880013F4001F62D0404AD36843EA0E03D360C4
:101698004B6813F4003F5FD03B4A536843EA0E039C
:1016A80053604B6813F4803F5CD0374A136843EAB1
:1016B8000E0313600CF1010C0A6832FA0CF357D0D0
:1016C800012303FA0CF302EA030E33EA0202F1D112
:1016D8004A68122A3FF63FAF122A3FF65CAF01A5CF
:1016E80055F822F087150008331600083D16000843
:1016F8004F1600089F1500089F1500089F15000841
:101708009F1500089F1500089F1500089F150008E1
:101718009F1500089F1500089F1500089F150008D1
:101728009F1500089F150008371600084316000883
:10173800012395E7022393E7032391E704238FE727
:10174800114A936823EA0E03936098E70E4AD36818
:1017580023EA0E03D3609BE70B4A536823EA0E0380
:1017680053609EE7084A136823EA0E031360A1E753
:1017780002B070BD000022100000311000100240BD
:10178800000001400008014000040140836819423C
:1017980001D001207047002070470AB101617047ED
:1017A800090401617047000008B5054B5B690342F5
:1017B80000D108BD024B586102F076FFF9E700BF7F
:1017C8000004014038B512F4804F44D00468B4F8DE
:1017D80050309BB291F800C003EBCC03023304EB0A
:1017E8004303B3F80044C4F309048B69A34228D324
:1017F8001B1B8B618B697BB9056835F82C309BB254
:1018080023F4804323F0700383F4005343F400432C
:1018180043F0800325F82C3012F0400F0ED00268F8
:101828000D7832F825309BB223F4E04323F070039F
:1018380043F4004343F0C00322F8253024B920467E
:1018480038BD00238B61D5E723460A8949690068BA
:1018580002F076FEF3E70468B4F850309BB291F8D2
:1018680000C003EBCC03063304EB4303B3F8004496
:10187800C4F309048B69A3422FD31B1B8B618B69AB
:101888007BB9056835F82C309BB223F4804323F0EC
:10189800700383F4005343F4004343F0800325F8B6
:1018A8002C3012F0400F0FD1026891F800C032F8C6
:1018B8002C309BB223F4E04323F0700343F400433D
:1018C80043F0C00322F82C30002CB8D023464A89B4
:1018D8004969006802F034FEB1E700238B61CEE766
:1018E80070B586B0002800F08180044690F8A932CF
:1018F800EBB1032384F8A932206801F0B3FE254632
:1019080055F8106BEC460FCDACE80F002B68CCF8FF
:101918000030231D0ECB304601F094FE054658B129
:10192800022384F8A9320125284606B070BD80F844
:10193800A83205F099F8DCE70021206801F09CFE48
:101948002B4616E05A1C02EB820104EBC101012070
:10195800487002EB820104F8313004EBC100002129
:10196800C17003EB830004EBC0008163C1630164B1
:10197800D3B261688B42E5D316E005EB850304EB2F
:10198800C303002283F8692183F8685183F86B2127
:10199800C3F87821C3F87C2105EB850304EBC30366
:1019A800C3F880210135EDB2A942E6D8254655F89D
:1019B800106BEC460FCDACE80F002B68CCF800306C
:1019C800231D0ECB304601F059FE054620B10223F7
:1019D80084F8A9320125A7E7002384F824300123DD
:1019E80084F8A932206802F0A8F99DE701259BE751
:1019F80038B590F8A832012B11D00446012580F89B
:101A0800A852006801F025FE2946204605F039F95C
:101A1800206802F090F9002084F8A80238BD02205E
:101A2800FCE770B505460C46164612F0400F00F06C
:101A38000E810268B2F850309BB2097803EBC103FB
:101A4800023302EB4303B3F80024C2F30902A3698B
:101A580093424ED99B1AA361A369002B66D1637880
:101A6800002B49D12B68B3F8502092B2134403EBF2
:101A78000111B1F80434C3F30903A1F80434B1F82F
:101A880004346FEA43436FEA53439BB2A1F804342A
:101A98002B686278002A3CD1B3F8502092B21344E4
:101AA800227803EB0213B3F80C24C2F30902A3F85B
:101AB8000C24B3F80C246FEA42426FEA524292B205
:101AC800A3F80C242178284605F002F816F4804F74
:101AD80041D02A68217832F821309BB223F4E043C0
:101AE80023F0700343F4404343F0800322F821308D
:101AF80031E00023A361AFE7012BC9D12B68B3F80C
:101B0800502092B2134403EB01110023A1F80434CE
:101B1800BEE7012AD6D1B3F8502092B213442278F6
:101B280003EB02130022A3F80C24CBE716F4804F32
:101B38000DD0286830F821309BB223F4E04323F01D
:101B4800700343F4404343F0800320F8213094F8B5
:101B58002430012B12D02A68217832F821309BB228
:101B680023F4E04323F0400383F0300343F40043BD
:101B780043F0800322F82130002070BD63691344CC
:101B88006361E3691344E361216A2369994224D3B9
:101B9800C91A21626278002A44D12A68B2F8501022
:101BA80089B20A44217802EB0112B2F80414C1F395
:101BB8000901A2F804143E2B1BD9580913F01F0F72
:101BC80000D10138B2F8041489B2800280B201430E
:101BD80041F40041A2F8041426E021B9002384F856
:101BE80024301346D6E7002384F8243023620B46BA
:101BF800D0E74BB9B2F804146FEA41416FEA51419A
:101C080089B2A2F804140FE0590813F0010F00D0AC
:101C18000131B2F8040480B2890289B20143A2F802
:101C2800041401E0012A06D09BB222896169286860
:101C380002F08BF88FE72A68B2F8501089B20A448C
:101C4800217802EB011299B2A2F80414ECE70268B9
:101C5800B2F850309BB2097803EBC103063302EBAC
:101C68004303B3F80024C2F30902A36993424FD394
:101C78009B1AA361A369002B67D16378002B4AD113
:101C88002B68B3F8502092B2134403EB0111B1F85A
:101C98000434C3F30903A1F80434B1F804346FEA37
:101CA80043436FEA53439BB2A1F804342B6862782C
:101CB800002A3DD1B3F8502092B21344227803EBA6
:101CC8000213B3F80C24C2F30902A3F80C24B3F8E6
:101CD8000C246FEA42426FEA524292B2A3F80C24F3
:101CE8002178284604F0F4FE16F4804F7FF433AFD1
:101CF8002A68217832F821309BB223F4E04323F09C
:101D0800700343F4404343F0800322F8213022E774
:101D18000023A361AEE7012BC8D12B68B3F850208C
:101D280092B2134403EB01110023A1F80434BDE778
:101D3800012AD5D1B3F8502092B21344227803EB8C
:101D480002130022A3F80C24CAE716F4804F0DD121
:101D5800286830F821309BB223F4E04323F0700365
:101D680043F4404343F0800320F8213094F82430B2
:101D7800012B7FF4F0AE636913446361E369134494
:101D8800E361216A2369994224D3C91A21622A6826
:101D98006178002943D1B2F8501089B20A442178F9
:101DA80002EB0112B2F80C14C1F30901A2F80C14E9
:101DB8003E2B1BD9580913F01F0F00D10138B2F878
:101DC8000C1489B2800280B2014341F40041A2F8A8
:101DD8000C1426E021B9002384F824301346D6E7F2
:101DE8000023236284F824300B46D0E74BB9B2F8BD
:101DF8000C146FEA41416FEA514189B2A2F80C1400
:101E08000FE0590813F0010F00D00131B2F80C04AB
:101E180080B2890289B20143A2F80C1401E00129B9
:101E280006D09BB262896169286801F08EFF92E64C
:101E3800B2F8501089B20A44217802EB011299B223
:101E4800A2F80C14EDE72DE9F04105462868B0F832
:101E5800443013F4004F00F08E82B0F84440A3B22F
:101E680014F00F0440F0E28013F0100F6BD00388D9
:101E78009AB213F4006F40F09D8012F4004FE5D041
:101E8800038823F070031B051B0D43F080030380B8
:101E98002868B0F850309BB295F8682103EBC2036C
:101EA800063300EB4303B3F80034C3F30903C5F862
:101EB80084318BB1D5F87C1171B1B5F86E2102F07F
:101EC8003FFBD5F88421D5F87C311344C5F87C3123
:101ED8000021284604F0F0FD2A68138899B213F40B
:101EE800006FB3D101F44051B1F5405FAED0B2F804
:101EF80050309BB21A44B2F80C34C3F30903A2F869
:101F08000C34D5F878313E2B77D9590913F01F0FC7
:101F180000D10139B2F80C349BB2890289B20B4363
:101F280043F40043A2F80C342A6813889BB223F4C4
:101F3800804323F0700383F4405343F4004343F099
:101F48008003138082E703889BB223F4E14323F0E4
:101F580070036FEA43436FEA53439BB203802A68D6
:101F6800B2F850309BB295F8281003EBC103023346
:101F780002EB4303B3F80034C3F309036B64EA6B61
:101F88001344EB630021284604F0A2FD95F82430A1
:101F9800002B3FF45BAF2B6C002B7FF457AF95F809
:101FA80024302A6843F08003A2F84C30002385F8D7
:101FB80024304BE7B0F850309BB295F8682103EB1A
:101FC800C203063300EB4303B3F80034C3F3090339
:101FD800C5F88431B5F86E2105F52C7102F0B0FA18
:101FE8002A68138823F070031B051B0D43F0800338
:101FF8001380284604F058FD28E74BB9B2F80C3492
:102008006FEA43436FEA53439BB2A2F80C348BE761
:10201800590813F0010F00D00131B2F80C3498B20E
:102028008B029BB20343A2F80C347DE730F82430CE
:102038009EB213F4004F4CD116F0800F3FF406AF58
:10204800621C02EB820105EBC101286830F82430DC
:102058009BB223F4E14323F070036FEA43436FEA32
:1020680053439BB220F82430CB78012B00F0F28048
:1020780016F4807F40F07A812868B0F850309BB21F
:10208800621C02EB820215F8326003EBC6030233CE
:1020980000EB4303B3F80034C3F3090304EB8402F1
:1020A80005EBC202126C9A4240F24C8104EB8407A1
:1020B80005EBC707D21A3A6404EB840205EBC202A7
:1020C800126C002A40F045813146284604F000FD94
:1020D800BCE630F8243023F070031B051B0D43F0D9
:1020E800800320F8243004EB8401C90001F5B471A1
:1020F80005EB010804EB840305EBC30393F8743183
:10210800002B42D12868B0F850309BB204EB84020F
:1021180005EBC20292F8682103EBC203063300EB19
:102128004303B3F80074C7F3090717BB04EB840330
:1021380005EBC303D3F884213A44C3F88421D3F8C8
:102148007C213A44C3F87C21D3F880313BB104EBBD
:10215800840305EBC303D3F878319F4275D204EBAF
:10216800840305EBC30393F86811284604F0A4FC24
:1021780062E704EB840105EBC1013B46B1F86E212F
:10218800D1F87C1102F0DCF9D0E704EB840305EB0D
:10219800C30393F86B31022B35D0296804EB840212
:1021A80005EBC20292F8680131F820309BB223F4A3
:1021B800E04323F0700343F4004343F0C00321F8E5
:1021C8002030286892F8682130F8223013F4804FC4
:1021D80020D0B0F850309BB203EBC203023300EBBF
:1021E8004303B3F80074C7F30907002F9ED004EB2C
:1021F800840105EBC1013B46B1F87021D1F87C118F
:1022080002F09EF992E7324641462846FFF7DAFA8D
:1022180007468BE7B0F850309BB203EBC203063396
:1022280000EB4303B3F80074C7F30907002F3FF42A
:102238007DAF04EB840105EBC1013B46B1F8722187
:10224800D1F87C1102F07CF970E74146286801F06A
:1022580090FDF1E604EB840305EBC30300221A6446
:1022680093F83430FBB116F0400F37D04B781BBBD6
:102278002B68B3F8502092B21344621C02EB82021E
:1022880015F8322003EB0213B3F80424C2F3090251
:10229800A3F80424B3F804246FEA42426FEA5242D6
:1022A80092B2A3F80424013404EB840415F8341022
:1022B800284604F00DFCC9E5012BF4D12B68B3F8CE
:1022C800502092B21344621C02EB820215F83220AD
:1022D80003EB02130022A3F80424E4E72A68631C32
:1022E80003EB830305EBC3035B78D3B9B2F8503033
:1022F8009BB21344621C02EB820215F8322003EBF6
:102308000213B3F80C24C2F30902A3F80C24B3F89F
:102318000C246FEA42426FEA524292B2A3F80C24AC
:10232800C1E7012BBFD1B2F850309BB21344621CF5
:1023380002EB820215F8322003EB02130022A3F805
:102348000C24B0E704EB840205EBC20200271764F3
:10235800B2E604EB840205EBC202D66B1E44D663D8
:10236800546C2344536401F004FD6FE5324628465B
:10237800FFF757FB6AE50020BDE8F08190F8A83226
:10238800012B0DD010B50446012380F8A83280F83F
:102398002410006801F0C9FC002084F8A80210BDD0
:1023A8000220704710B584B00446006801F0C7FCED
:1023B80010F4004F20D110F4806F21D110F4804F19
:1023C8002FD110F4005F37D110F4805F3ED110F4A4
:1023D800006F40F0878010F4007F40F0AE8010F46A
:1023E800807F27D02268B2F844309BB223F48073F0
:1023F8009BB2A2F844301DE02046FFF724FD19E007
:102408002268B2F844309BB223F480639BB2A2F8EE
:102418004430204604F06DFB00212046FFF7AEFF54
:1024280008E02268B2F844309BB223F480439BB2A0
:10243800A2F8443004B010BD2268B2F844309BB210
:1024480023F400539BB2A2F84430F3E72268B2F8B1
:1024580040309BB223F004039BB2A2F840302268BC
:10246800B2F840309BB223F008039BB2A2F8403088
:10247800204604F061FB2268B2F844309BB223F492
:1024880080539BB2A2F84430D4E7226832F8231074
:1024980004AA02EB430222F8101C0133DBB2072B1B
:1024A800F3D92268B2F840309BB243F00103A2F896
:1024B80040302268B2F840309BB223F001039BB24F
:1024C800A2F840302368B3F8442012F4806FF9D0A2
:1024D800B3F8442092B222F4806292B2A3F8442066
:1024E80000230BE00023DAE7226804A901EB43018B
:1024F80031F8101C22F823100133DBB2072BF3D973
:102508002268B2F840309BB243F00803A2F840308A
:102518002268B2F844309BB223F400639BB2A2F85D
:1025280044302268B2F840309BB243F00403A2F86A
:102538004030204604F0F0FA7CE72268B2F84430D4
:102548009BB223F400739BB2A2F84430204604F0F7
:10255800CAFA6FE710B50446084611F0800F25D176
:1025680001F0070C0CEB8C01C90001F5B47E04EBFB
:102578000E010CEB8C0C04EBCC0C4FF0000E8CF81D
:1025880069E100F0070008700A61CB70022B1AD0CD
:1025980094F8A832012B19D0012384F8A8322068B6
:1025A80001F07DF8002084F8A80210BD01F0070CA6
:1025B8000CF1010C0CEB8C0104EBC1014FF0010E86
:1025C80081F801E0DDE700230B71E1E70220ECE789
:1025D80010B504460B4611F0800F1FD101F0070219
:1025E80002EB8201C90001F5B471014402EB8202D9
:1025F80000EBC202002082F8690103F007030B70A8
:1026080094F8A832012B13D0012384F8A83220684B
:1026180001F02AFA002084F8A80210BD01F0070290
:10262800013202EB820100EBC10101204870E4E7AE
:102638000220F2E710B501F0070C0CEB8C01C90081
:1026480001F5B4710CEB8C0E00EBCE0ECEF87C21AC
:10265800CEF880310024CEF884418EF869418EF896
:1026680068C10144006801F084FB204610BD01F0F8
:10267800070101EB810100EBC101D1F8840170472A
:1026880038B501F0070404F1010C0CEB8C0104EBE4
:10269800840E00EBCE0ECEF83C20CEF8403001225E
:1026A8008EF84C20CEF848300025CEF8445000EB88
:1026B800C1035A7000F831401946006801F059FB0F
:1026C800284638BD38B501F007054268954231D82B
:1026D80004460B4611F0800F1ED101EB8101C900A1
:1026E80001F5B471014403EB830300EBC30300223B
:1026F80083F8692101238B700D7094F8A832012B9F
:102708001AD0012384F8A832206801F098FA5DB144
:10271800002084F8A80238BD6B1C03EB830100EB92
:10272800C10101224A70E5E704F52C71206801F027
:102738000AFBEDE70120EEE70220ECE70B4601F08B
:102748000F014268914230D810B5044613F0800F4B
:1027580021D103F0070202EB8201C90001F5B4712F
:10276800014402EB820200EBC202002082F86901F8
:1027780000228A7003F007030B7094F8A832012B2B
:1027880015D0012384F8A832206801F07DFA0020D2
:1027980084F8A80210BD03F00702013202EB82019F
:1027A80000EBC10101204870E2E7012070470220D8
:1027B800F0E711F0800F0BD001F00701013101EBB8
:1027C800810100EBC10152B90A73CB800020704728
:1027D80001EB8101C90001F5B4710144F3E701225D
:1027E8000A730B811B0C4B81F0E7000082B0084B89
:1027F8001B68084AA2FB03235B0A00FB03F301934F
:1028080000BF019B5A1E0192002BF9D102B07047FC
:1028180000000020D34D6210002800F0F18170B54F
:1028280082B00446036813F0010F2CD0994B5B6803
:1028380003F00C03042B1DD0964B5B6803F00C03CC
:10284800082B12D06368B3F5803F41D0002B55D1D7
:1028580003F1804303F504331A6822F480321A60C6
:102868001A6822F480221A6037E08A4B5B6813F4F6
:10287800803FE7D0874B1B6813F4003F03D06368A1
:10288800002B00F0BF81236813F0020F75D0814B35
:102898005B6813F00C0F5FD07E4B5B6803F00C0392
:1028A800082B54D02369002B00F08A807A4B012230
:1028B8001A6004F05DFA0546764B1B6813F0020FA8
:1028C80075D104F055FA401B0228F5D903209EE182
:1028D800704A136843F480331360636843B304F0A9
:1028E80047FA05466B4B1B6813F4003FCBD104F045
:1028F8003FFA401B6428F5D9032088E1B3F5A02FDF
:1029080009D0644B1A6822F480321A601A6822F4DB
:1029180080221A60E1E703F18043A3F53C331A688B
:1029280042F480221A601A6842F480321A60D4E7AE
:1029380004F01EFA0546574B1B6813F4003FA2D05B
:1029480004F016FA401B6428F5D903205FE1514BC7
:102958005B6813F4803FA5D14E4B1B6813F0020F40
:1029680003D02369012B40F04F814A4A136823F0B2
:10297800F803616943EAC1031360236813F0080F81
:1029880033D0A369002B5CD0434B0122C3F88024C9
:1029980004F0EEF905463F4B5B6A13F0020F21D1B4
:1029A80004F0E6F9401B0228F5D903202FE1394A43
:1029B800136823F0F803616943EAC1031360DCE795
:1029C800354B00221A6004F0D3F90546314B1B68D9
:1029D80013F0020FD1D004F0CBF9401B0228F5D92F
:1029E800032014E10120FFF701FF236813F0040F0F
:1029F80000F09680274BDB6913F0805F34D1254BBC
:102A0800DA6942F08052DA61DB6903F0805301939E
:102A1800019B0125214B1B6813F4807F26D0E368B6
:102A2800012B3DD0002B53D103F1804303F5043330
:102A38001A6A22F001021A621A6A22F004021A6261
:102A480033E0154B0022C3F8802404F091F90546C1
:102A5800104B5B6A13F0020FC7D004F089F9401BD2
:102A68000228F5D90320D2E00025D3E70B4A1368E2
:102A780043F48073136004F07BF90646074B1B6828
:102A880013F4807FCBD104F073F9801B6428F5D947
:102A98000320BCE0001002400000424200700040E9
:102AA8005F4A136A43F001031362E36833B304F027
:102AB8005FF906465A4B1B6A13F0020F2FD104F038
:102AC80057F9801B41F288339842F3D903209EE0DE
:102AD800052B09D0524B1A6A22F001021A621A6AAF
:102AE80022F004021A62E0E74D4B1A6A42F004022F
:102AF8001A621A6A42F001021A62D6E704F038F93B
:102B08000646474B1B6A13F0020F08D004F030F951
:102B1800801B41F288339842F3D9032077E0E5B966
:102B2800E369002B72D03E4A526802F00C02082A70
:102B380056D0022B17D03B4B00221A6604F018F926
:102B48000446374B1B6813F0007F47D004F010F998
:102B5800001B0228F5D9032059E0314AD36923F034
:102B68008053D361DCE72F4B00221A6604F000F98A
:102B780005462B4B1B6813F0007F06D004F0F8F8CD
:102B8800401B0228F5D9032041E0236AB3F5803FB2
:102B98001AD023494B6823F47413226A606A0243EB
:102BA80013434B601F4B01221A6604F0E1F80446F8
:102BB8001B4B1B6813F0007F0ED104F0D9F8001BE3
:102BC8000228F5D9032022E0154A536823F400337C
:102BD800A1680B435360DCE7002018E0002016E0F2
:102BE800012B16D00E4B5B6803F48031226A9142A8
:102BF80011D103F47013626A93420ED1002006E0EB
:102C080001207047012002E0012000E0002002B00E
:102C180070BD0120FBE70120F9E70120F7E700BFBD
:102C280000100240000042420F4B5B6803F00C02A8
:102C3800082A01D00D487047C3F383420C49885CC9
:102C480013F4803F0BD0084B5B68C3F34043094A39
:102C5800D35C064A02FB00F0B0FBF3F07047064B6A
:102C680003FB00F0704700BF0010024000127A001A
:102C7800F8FB000808FC000800093D00002800F0E7
:102C8800A08070B50D460446524B1B6803F007033D
:102C98008B420BD24F4A136823F007030B43136090
:102CA800136803F007038B4240F08D80236813F00C
:102CB800020F17D013F0040F04D0474A536843F4A7
:102CC800E0635360236813F0080F04D0424A536846
:102CD80043F460535360404A536823F0F003A168FB
:102CE8000B435360236813F0010F31D06368012B45
:102CF80020D0022B25D0384A126812F0020F64D077
:102D080035494A6822F0030213434B6004F030F857
:102D18000646314B5B6803F00C036268B3EB820F25
:102D280016D004F025F8801B41F288339842F0D978
:102D3800032045E0284A126812F4003FE0D1012040
:102D48003EE0254A126812F0007FD9D1012037E011
:102D5800204B1B6803F00703AB420AD91D4A1368CE
:102D680023F007032B431360136803F00703AB42F8
:102D78002DD1236813F0040F06D0174A536823F4A3
:102D8800E063E1680B435360236813F0080F07D032
:102D9800114A536823F46053216943EAC10353601D
:102DA800FFF742FF0C4B5B68C3F303130B4AD35C7A
:102DB800D8400B4B18600B4B1868FEF70FFB002030
:102DC80070BD012070470120FAE70120F8E70120D3
:102DD800F6E700BF0020024000100240E0FB0008B8
:102DE8000000002008000020014B1868704700BF51
:102DF8000000002008B5FFF7F7FF044B5B68C3F33A
:102E08000223034AD35CD84008BD00BF001002402B
:102E1800F0FB000808B5FFF7E7FF044B5B68C3F356
:102E2800C223034AD35CD84008BD00BF001002404B
:102E3800F0FB000870B582B00446036813F0010F78
:102E480036D03F4BDB6913F0805F49D13C4BDA69E0
:102E580042F08052DA61DB6903F080530193019BF1
:102E68000125384B1B6813F4807F3BD0344B1B6A19
:102E780013F4407313D0626802F440729A420ED081
:102E88002F4A136A23F440702F490126C1F8406481
:102E98000026C1F84064106213F0010F36D1284AA9
:102EA800136A23F4407361680B431362002D3ED10B
:102EB800236813F0020F06D0214A536823F44043D5
:102EC800A1680B435360236813F0100F34D01C4AD9
:102ED800536823F4800361690B43536000202CE09E
:102EE8000025BEE7174A136843F48073136003F0A4
:102EF8003FFF0646134B1B6813F4807FB6D103F0DF
:102F080037FF801B6428F5D9032016E003F030FF53
:102F180006460B4B1B6A13F0020FC0D103F028FFC3
:102F2800801B41F288339842F3D9032005E0D36926
:102F380023F08053D361BBE7002002B070BD00BF0F
:102F48000010024000700040000042422DE9F047A6
:102F580082B00546884617461E4603F009FF0A9BBD
:102F68001B1A03EB060903F003FF82462B4B1B6871
:102F7800C3F3CB3309FB03F301932B689C6838EA4E
:102F880004030CBF4FF0010C4FF0000CBC4540D0BF
:102F9800B6F1FF3FF1D003F0EBFEA0EB0A00484585
:102FA8000AD2B9F1000F07D0019A02B14A46019B33
:102FB800013B01939146E0E72A68536823F0E00358
:102FC80053606B68B3F5827F0BD0AB6AB3F5005FD3
:102FD80014D0012385F85130002385F850300320A0
:102FE80018E0AB68B3F5004F02D0B3F5806FECD1B1
:102FF8002A68136823F040031360E6E72A68136819
:1030080023F4005313602A68136843F400531360D1
:10301800DFE7002002B0BDE8F08700BF0000002015
:1030280010B582B004460B46009200228021FFF7BB
:103038008DFF08B902B010BD636D43F020036365CE
:103048000320F7E7002856D010B50446436A33B981
:103058004368B3F5827F05D00023C36102E00023F3
:10306800036143610023A36294F85130002B3CD0E4
:10307800022384F851302268136823F04003136058
:10308800636803F48273A26802F404421343E2689B
:1030980002F400621343226902F0020213436269D8
:1030A80002F001021343A26902F400721343E269B9
:1030B80002F038021343226A02F080021343A26A24
:1030C80002F40052216813430B60638B226803F0FB
:1030D800040353602268D36923F40063D36100209A
:1030E8006065012384F8513010BD84F850302046C3
:1030F80003F036FBBCE7012070472DE9F04383B0AD
:103108001F460A9D90F85030012B00F016810446A6
:1031180088469146012380F8503003F029FE064680
:1031280094F85130DBB26268012B0AD0B2F5827F85
:1031380040F0F080A268002A40F0F380042B40F0B1
:10314800F280B8F1000F00F0F080B9F1000F00F044
:10315800EE80002F00F0ED8094F85130DBB2042BA4
:1031680002D0052384F8513000236365C4F83890F1
:10317800E787A787C4F83080E786A7862364636457
:1031880023681A6812F0400F03D11A6842F040020F
:103198001A60E368B3F5006F11D063680BB1012FB3
:1031A8000BD1226B236812781A73236B01332363C4
:1031B800E38E9BB2013B9BB2E38601276EE0636816
:1031C8000BB1012F0BD1226B23681288DA60236BB5
:1031D80002332363E38E9BB2013B9BB2E386012754
:1031E8001BE023689A6812F0010F0ED0E28F92B2AA
:1031F8005AB1DA68A36B1A80A36B0233A363E38F17
:103208009BB2013B9BB2E387012703F0B1FD801B12
:10321800A84202D3B5F1FF3F1ED1E38E9BB21BB982
:10322800E38F9BB2002B5CD023689A6812F0020FE0
:10323800D7D0E28E92B2002AD3D0002FD1D0226B01
:103248001288DA60236B02332363E38E9BB2013B5F
:103258009BB2E3860027C4E7012384F8513003209A
:1032680059E023689A6812F0010F0ED0E28F92B2EB
:103278005AB1DA68A36B1A70A36B0133A363E38FA7
:103288009BB2013B9BB2E387012703F071FD831BCF
:10329800AB4202D3B5F1FF3F1ED1EDB1E38E9BB235
:1032A80013B9E38F9BB2E3B123689A6812F0020F57
:1032B800D7D0E28E92B2002AD3D0002FD1D0226B81
:1032C80012781A73236B01332363E38E9BB2013B9D
:1032D8009BB2E3860027C4E7012384F8513003201A
:1032E80019E0324629462046FFF79AFE70B9A368CE
:1032F80033B901932368DA6801929B680193019BB3
:10330800636DC3B9012384F8513004E02023636559
:10331800012000E00220002384F8503003B0BDE80B
:10332800F0830220F7E70220F5E70120F3E7012008
:10333800F1E70120EFE70120EDE70220EEE70000CA
:1033480010B504460268136923F44053C1680B435F
:10335800136183680269134342691A430168CB68A1
:1033680023F4B05323F00C031343CB600268536972
:1033780023F4407381690B4353610268134B9A42EB
:1033880020D0FFF737FD024602EB820202EB8202F1
:1033980063689B00B2FBF3F20D48A0FB02314909B8
:1033A800642303FB11231B013233A0FB03235B09B6
:1033B80003F0F00202EB011203F00F03216813443B
:1033C8008B6010BDFFF726FD0246DDE7003801409F
:1033D8001F85EB512DE9F84305460F4616469946D9
:1033E800DDF820802C68246837EA04030CBF4FF00E
:1033F800010C4FF0000CB4452DD1B8F1FF3FF1D0CE
:10340800B8F1000F05D003F0B3FCA0EB090040456C
:10341800E8D92A6802F10C0353E8003F23F4D0737B
:103428000C3242E800310029F3D12A6802F1140372
:1034380053E8003F23F00103143242E80031002929
:10344800F3D1202385F8413085F84230002385F8F0
:103458004030032000E00020BDE8F88360B310B5D9
:10346800044690F8413013B3242384F8413022688D
:10347800D36823F40053D3602046FFF761FF226826
:10348800136923F4904313612268536923F02A03D4
:1034980053612268D36843F40053D360002060640A
:1034A800202384F8413084F84230606310BD80F8EE
:1034B8004030FDF731FFD7E7012070472DE9F04193
:1034C80082B01E4690F84130DBB2202B4BD1044627
:1034D8000D46904600294AD00AB9012044E000234D
:1034E8004364212380F8413003F042FC0746A4F8E6
:1034F8002480A4F82680A368B3F5805F02D04FF03B
:1035080000080FE02369FBB14FF000080AE038F823
:10351800023B2268C3F308035360E28C92B2013A7B
:1035280092B2E284E38C9BB28BB100963B460022B8
:1035380080212046FFF74EFFD8B9002DE7D015F8B7
:10354800012B23685A60E8E7A8460025EAE70096B9
:103558003B46002240212046FFF73CFF58B9202374
:1035680084F8413000E0022002B0BDE8F08101207B
:10357800FAE70320F8E70320F6E72DE9F04182B0E7
:103588001E4690F84230DBB2202B53D104460D463C
:103598009046002952D00AB901204CE00023436428
:1035A800222280F84220036303F0E2FB0746A4F8D6
:1035B8002C80A4F82E80A368B3F5805F02D04FF06A
:1035C800000817E0236913B14FF0000812E0A8467D
:1035D80000250FE023685B68C3F3080328F8023B63
:1035E80003E023685B682B700135E28D92B2013AE3
:1035F80092B2E285E38D9BB2BBB100963B460022B6
:1036080020212046FFF7E6FED0B9002DE2D0A368BE
:10361800B3F5805FE5D013B92369002BE1D02368A7
:103628005B6803F07F032B70DEE7202384F84230C9
:10363800002000E0022002B0BDE8F0810120FAE796
:103648000320F8E784B001A880E80E00002004B049
:10365800704703460020A3F844004FF43F42A3F804
:1036680040207047B0F8403023F47C535B045B0C77
:10367800A0F84030002070470020704784B084468E
:1036880001A880E80E000123ACF840300020ACF817
:103698004000ACF84400ACF8500004B0704710B5D6
:1036A800034691F800C030F82C2092B222F4EC4284
:1036B80022F0700292B2C878032861D8DFE800F0DF
:1036C800555C0258002048F2800E42EA0E0223F8A8
:1036D8002C2091F800C033F82C2092B222F4E0425A
:1036E80022F070024CEA020242EA0E0223F82C2071
:1036F8000A7B002A40F0DC804A78002A51D0B3F8CF
:10370800502092B21A440C7802EB0412B1F806C0A9
:103718004FEA5C0C4FEA4C0CA2F800C40C7833F862
:10372800242012F0400F0CD033F8242092B222F457
:10373800E04222F0700242F4004242F0C00223F854
:103748002420CA78012A1DD0097833F8212092B2A2
:1037580022F4E04222F0400282F0200242F40042C9
:1037680042F0800223F8212017E142F40072AAE710
:1037780042F4C0620020A6E742F480620020A2E77B
:103788000120A0E7097833F8212092B222F4E04220
:1037980022F0400242F4004242F0800223F8212045
:1037A800FBE0B3F8502092B21A440C7802EB0412F2
:1037B800B1F806C04FEA5C0C4FEA4C0CA2F808C4FA
:1037C800B3F8502092B21A440C7802EB0412B2F803
:1037D8000CC4CCF3090CA2F80CC40C693E2C39D9E2
:1037E8004FEA541E14F01F0F01D10EF1FF3EB2F83C
:1037F8000CC41FFA8CFC4FEA8E2E1FFA8EFE4CEA80
:103808000E0C4CF4004CA2F80CC40C7833F82420AD
:1038180012F4804F0CD033F8242092B222F4E04204
:1038280022F0700242F4404242F0800223F8242041
:10383800097869BB33F8212092B222F4804222F041
:10384800700282F4405242F4004242F0800223F8AF
:103858002120A2E04CB9B2F80C446FEA44446FEA64
:103868005444A4B2A2F80C44CFE74FEA540C14F025
:10387800010F01D00CF1010CB2F80C44A4B24FEACC
:103888008C2C1FFA8CFC44EA0C0CA2F80CC4BCE784
:1038980033F8212092B222F4804222F0700282F49E
:1038A800005242F4004242F0800223F8212074E0E2
:1038B800CA78022A72D00C7833F8242092B222F403
:1038C800E24222F0700242F4004242F0800223F801
:1038D8002420B3F8502092B21A4491F800C002EBA9
:1038E8000C12B1F808C04FEA5C0C4FEA4C0CA2F875
:1038F80000C4B3F8502092B21A4491F800C002EB09
:103908000C12B1F80AC04FEA5C0C4FEA4C0CA2F852
:1039180008C44A78002A50D10C7833F8242012F4CD
:10392800804F0CD033F8242092B222F4E04222F0E7
:10393800700242F4404242F0800223F824200C78BE
:1039480033F8242012F0400F0CD033F8242092B220
:1039580022F4E04222F0700242F4004242F0C00237
:1039680023F8242091F800C033F82C2092B222F4D6
:10397800804222F0700282F4405248F280042243CE
:1039880023F82C20097833F8212092B222F4E0425F
:1039980022F04002224323F8212010BD0C7833F88E
:1039A800242092B222F4E04222F0700242F4014252
:1039B80042F0800223F824208BE70C7833F8242087
:1039C80012F4804F0CD033F8242092B222F4E04253
:1039D80022F0700242F4404242F0800223F8242090
:1039E8000C7833F8242012F0400F0CD033F8242040
:1039F80092B222F4E04222F0700242F4004242F015
:103A0800C00223F82420CA78012A1ED00C7833F883
:103A1800242092B222F4E04222F0400282F02002F6
:103A280042F4004242F0800223F82420097833F857
:103A3800212092B222F4804222F0700242F4004225
:103A480042F0800223F82120A7E70C7833F82420DD
:103A580092B222F4E04222F0400242F4004242F0E4
:103A6800800223F82420E1E70B7B002B46D14B781A
:103A780013B30A7830F8223013F0400F0CD030F826
:103A880022309BB223F4E04323F0700343F4004355
:103A980043F0C00320F822300A7830F822309BB275
:103AA80023F4E04323F0400343F4004343F080034E
:103AB80020F82230002070470A7830F8223013F4BA
:103AC800804F0CD030F822309BB223F4E04323F02F
:103AD800700343F4404343F0800320F822300A780F
:103AE80030F822309BB223F4804323F0700343F470
:103AF800004343F0800320F82230DBE74B78002BAB
:103B08004ED10A7830F8223013F4804F0CD030F8B8
:103B180022309BB223F4E04323F0700343F4404384
:103B280043F0800320F822300A7830F8223013F06E
:103B3800400F0CD030F822309BB223F4E04323F03E
:103B4800700343F4004343F0C00320F822300A789E
:103B580030F822309BB223F4E04323F0700343F49F
:103B6800004343F0C00320F822300B7830F82320BC
:103B780092B222F4804222F0700248F2800C42EAAB
:103B88000C0220F823200A7830F822309BB223F464
:103B9800E04323F0400343EA0C0320F8223089E78E
:103BA8000A7830F8223013F4804F0CD030F82230E5
:103BB8009BB223F4E04323F0700343F4404343F003
:103BC800800320F822300A7830F8223013F0400FB2
:103BD8000CD030F822309BB223F4E04323F070037A
:103BE80043F4004343F0C00320F822300A7830F849
:103BF80022309BB223F4E04323F0700343F44043A4
:103C080043F0800320F822300B7830F8232092B25A
:103C180022F4E04222F0400248F2800C42EA0C0210
:103C280020F823200A7830F822309BB223F480430E
:103C380023F0700343EA0C0320F822303AE74B786C
:103C48008BB10A7830F822309BB223F4E04323F09A
:103C5800400383F0100343F4004343F0800320F84B
:103C68002230002070470A7830F822309BB223F4C3
:103C7800804323F0700383F4805343F4004343F0FC
:103C8800800320F82230ECE70B7B002B4BD14B78DC
:103C980033B30A7830F8223013F0400F0CD030F8E4
:103CA80022309BB223F4E04323F0700343F4004333
:103CB80043F0C00320F82230CB78012B33D00A78A8
:103CC80030F822309BB223F4E04323F0400383F022
:103CD800200343F4004343F0800320F8223022E01D
:103CE8000A7830F8223013F4804F0CD030F82230A4
:103CF8009BB223F4E04323F0700343F4404343F0C2
:103D0800800320F822300A7830F822309BB223F45E
:103D1800804323F0700383F4405343F4004343F09B
:103D2800800320F822300020704711B98023A0F8C2
:103D38004C30002070470020704700207047B0F8D2
:103D4800440080B270470020704710B45C1C6408BF
:103D580000EB420202F5806207E00B78487843EAFC
:103D6800002322F8043B0231013C002CF5D110BCA1
:103D7800704770B505460C464A78012A3BD00B7B44
:103D8800002B40F0A6828B690A69934240F2848234
:103D98009B1A8B61B5F850309BB22B44217803EB0A
:103DA8000113B3F80C14C1F30901A3F80C143E2A4B
:103DB80040F27682510912F01F0F00D10139B3F891
:103DC8000C2492B2890289B20A4342F40042A3F851
:103DD8000C24227835F822309BB223F4804323F058
:103DE800700383F4405343F4004343F0800325F801
:103DF8002230002070BD8E6909698E4200D90E46B6
:103E0800237B73B3E378022B4DD0236A9B1B236279
:103E1800217835F8213013F0400F00F0F581002AA1
:103E280040F0E281B5F850309BB22B4403EB01130C
:103E3800B3F80C24C2F30902A3F80C243E2E40F276
:103E4800BA81710916F01F0F00D10139B3F80C249B
:103E580092B2890289B20A4342F40042A3F80C24C0
:103E6800CBE1B6B23346E28861692846FFF76DFFB9
:103E7800B5F850309BB22B44227803EB0213A3F819
:103E88000464227835F822309BB223F4E04323F00F
:103E9800400383F0300343F4004343F0800325F8E4
:103EA80022300020A6E7236A994280F066812278B2
:103EB80035F822309BB223F4E04323F0700343F437
:103EC800014343F0800325F82230236A9B1B2362B9
:103ED800227835F8223013F0400F00F0A78063787D
:103EE800B3BBB5F850309BB22B4403EB0213B3F8C5
:103EF8000C24C2F30902A3F80C243E2E0FD9710931
:103F080016F01F0F00D10139B3F80C2492B28902C0
:103F180089B20A4342F40042A3F80C241AE04EB9CD
:103F2800B3F80C246FEA42426FEA524292B2A3F805
:103F38000C240FE0720816F0010F00D00132B3F81C
:103F48000C1489B2920292B20A43A3F80C2401E03D
:103F5800012B30D0B3B2628961692846FFF7F5FEBC
:103F6800636933446361236A226993422DD99B1B99
:103F780023626378002B45D1B5F850309BB22B44AF
:103F8800227803EB0213B3F80424C2F30902A3F85E
:103F980004243E2E1DD9710916F01F0F00D10139D6
:103FA800B3F8042492B2890289B20A4342F4004267
:103FB800A3F8042428E0B5F850309BB22B4403EB57
:103FC8000213B2B2A3F80C24C4E7002222621E46F0
:103FD800CFE74EB9B3F804246FEA42426FEA52427F
:103FE80092B2A3F804240FE0720816F0010F00D073
:103FF8000132B3F8041489B2920292B20A43A3F8C8
:10400800042401E0012B06D0B3B222896169284655
:10401800FFF79BFE35E7B5F850309BB22B4422786A
:1040280003EB0213B2B2A3F80424EDE76378B3BB41
:10403800B5F850309BB22B4403EB0213B3F80424B9
:10404800C2F30902A3F804243E2E0FD9710916F011
:104058001F0F00D10139B3F8042492B2890289B242
:104068000A4342F40042A3F804241AE04EB9B3F814
:1040780004246FEA42426FEA524292B2A3F804243F
:104088000FE0720816F0010F00D00132B3F80414E3
:1040980089B2920292B20A43A3F8042401E0012BE8
:1040A80030D0B3B2228961692846FFF74EFE6369B2
:1040B80033446361236A226993422DD99B1B23628F
:1040C8006378002B45D1B5F850309BB22B44227849
:1040D80003EB0213B3F80C24C2F30902A3F80C246F
:1040E8003E2E1DD9710916F01F0F00D10139B3F802
:1040F8000C2492B2890289B20A4342F40042A3F81E
:104108000C2428E0B5F850309BB22B4403EB021383
:10411800B2B2A3F80424C4E7002222621E46CFE705
:104128004EB9B3F80C246FEA42426FEA524292B297
:10413800A3F80C240FE0720816F0010F00D001322A
:10414800B3F80C1489B2920292B20A43A3F80C2471
:1041580001E0012B06D0B3B2628961692846FFF7F6
:10416800F4FD8EE6B5F850309BB22B44227803EB71
:104178000213B2B2A3F80C24EDE7217835F8212018
:1041880092B222F4E24222F0700242F4004242F07B
:10419800800225F82120B5F8502092B22A442178CF
:1041A80002EB01129BB2A2F8043422896169284605
:1041B800FFF7CBFD65E64EB9B3F80C246FEA42422F
:1041C8006FEA524292B2A3F80C2416E0720816F075
:1041D800010F00D00132B3F80C1489B2920292B2E6
:1041E8000A43A3F80C2408E0B5F850309BB22B44DE
:1041F80003EB0113B2B2A3F80C24B3B2628961696C
:104208002846FFF7A2FD3CE6B2BBB5F850309BB29A
:104218002B4403EB0113B3F80424C2F30902A3F8F7
:1042280004243E2E0FD9710916F01F0F00D1013951
:10423800B3F8042492B2890289B20A4342F40042D4
:10424800A3F8042421E04EB9B3F804246FEA4242EB
:104258006FEA524292B2A3F8042416E0720816F0EC
:10426800010F00D00132B3F8041489B2920292B25D
:104278000A43A3F8042408E0B5F850309BB22B4455
:1042880003EB0113B2B2A3F80424B3B22289616923
:104298002846FFF75AFDF4E500228A611A4679E5B7
:1042A8004AB9B3F80C246FEA42426FEA524292B21A
:1042B800A3F80C248DE5510812F0010F00D001314C
:1042C800B3F80C2492B2890289B21143A3F80C14F2
:1042D8007FE5CB78022B4DD0012B40F02F818969E7
:1042E8002369994240F2E680C91AA161F2B9B5F88A
:1042F800502092B22A44217802EB0112B2F8041439
:10430800C1F30901A2F804143E2B40F2D7805809E2
:1043180013F01F0F00D10138B2F8041489B28002DB
:1043280080B2014341F40041A2F804146278002AE3
:1043380040F0F680B5F8502092B22A44217802EB7A
:104348000112B2F80C14C1F30901A2F80C143E2BA7
:1043580040F2CD80590913F01F0F00D10139B2F88E
:104368000C349BB2890289B20B4343F40043A2F890
:104378000C342EE5F2B9B0F850309BB203440A78F9
:1043880003EB0213B3F80424C2F30902A3F80424CC
:104398000A693E2A31D9510912F01F0F00D101399B
:1043A800B3F8042492B2890289B20A4342F4004263
:1043B800A3F804246378002B51D1B5F850309BB290
:1043C8002B44227803EB0213B3F80C24C2F309023E
:1043D800A3F80C2422693E2A28D9510912F01F0F8C
:1043E80000D10139B3F80C2492B2890289B20A4388
:1043F80042F40042A3F80C2433E04AB9B3F8042489
:104408006FEA42426FEA524292B2A3F80424D1E71B
:10441800510812F0010F00D00131B3F8042490B212
:104428008A0292B20243A3F80424C3E74AB9B3F854
:104438000C246FEA42426FEA524292B2A3F80C246B
:104448000FE0510812F0010F00D00131B3F80C242D
:1044580090B28A0292B20243A3F80C2401E0012B25
:104468001DD0E369002B3FF4B4AC227835F8221054
:1044780044F2400303EA01008B4302D000287FF492
:10448800A8AC35F822309BB223F4E04323F0700344
:1044980043F4004343F0C00325F8223099E4B5F80B
:1044A80050309BB22B44227803EB0213228AA3F8E4
:1044B8000C24D6E70023A3610B4617E74BB9B2F8E3
:1044C80004146FEA41416FEA514189B2A2F8041419
:1044D8002CE7590813F0010F00D00131B2F8040499
:1044E80080B2890289B20143A2F804141EE74BB9CD
:1044F800B2F80C346FEA43436FEA53439BB2A2F815
:104508000C3466E4590813F0010F00D00131B2F8F9
:104518000C3498B28B029BB20343A2F80C3458E4D3
:10452800012A7FF456ACB5F8502092B22A4421787B
:1045380002EB01129BB2A2F80C344AE4012059E4C0
:1045480010B45C0800EB420000F5806007E030F82A
:10455800042B0A70C2F307224A700231013C002C76
:10456800F5D113F0010F01D003880B7010BC704710
:1045780010B586B01C4B9A6942F010029A619B698B
:1045880003F010030193019B43F6E3530293174B87
:104598000393012404940323059302A91448FCF708
:1045A800D5FF224602210620FCF776FF0620FCF7FD
:1045B800ABFF224602210720FCF76EFF0720FCF71D
:1045C800A3FF224602211720FCF766FF1720FCF7FD
:1045D8009BFF224602212820FCF75EFF2820FCF7DB
:1045E80093FF06B010BD00BF00100240000021106C
:1045F8000010014070B50646002406E0274B1B78E2
:10460800DBB2022B18D00134E4B2092C44D8244B75
:1046180033F81430B342F6D114F0010F1BD1651CE6
:104628001F4B33F815101F48FDF7B0F80128E5D1E6
:104638001A4B01221A70E1E7194B33F81510194883
:10464800FDF7A4F80028DED1204602F03BFB134B0F
:1046580000221A70D7E7651E114B33F81510114860
:10466800FDF794F8012813D00C4B1B78DBB2012B13
:10467800C9D10B4B33F815100A48FDF787F8002805
:10468800C1D1204602F01EFB044B00221A70BAE783
:10469800024B02221A70E7E770BD00BFE436002023
:1046A8000C0000200010014008B5FFF7A3FF08BD6B
:1046B80008B50B480B4B03604FF48273436000232B
:1046C8008360C36002220261012242614FF40072DA
:1046D8008261C361036207238362FEF7B3FC08BDEE
:1046E800E83600200030014010B40B4B1C682168EC
:1046F80021F0400121601C68216821F03801216007
:1047080019680A6802430A601A68136843F040038C
:10471800136010BC704700BFE836002000B587B0B2
:104728008DF80F004FF47A73009301230DF11702EF
:104738000DF10F010548FEF7E0FC20B99DF81700C0
:1047480007B05DF804FB0020FAE700BFE836002058
:1047580010B504460A4B1A884EF618739A420BD0C5
:10476800C4F30740FFF7DAFFC4F30720FFF7D6FFCB
:10477800E0B2FFF7D3FF10BD000EFFF7CFFFEFE762
:104788004047002010B5074C002210212046FDF7B5
:1047980004F80620FFF7C2FF012210212046FCF78B
:1047A800FCFF10BD0008014010B5074C0122102184
:1047B8002046FCF7F2FF0420FFF7B0FF002210218B
:1047C8002046FCF7EAFF10BD0008014038B5022872
:1047D80016D0032816D115240B4D00221021284687
:1047E800FCF7DBFF2046FFF799FFFF20FFF796FF56
:1047F8000446012210212846FCF7CFFF204638BD89
:104808003524E9E70524E7E70008014008B5012059
:10481800FFF7DCFF10F0010FF9D108BD70B50646AF
:104828000C461546FFF7AEFF002210210C48FCF796
:10483800B4FF0220FFF772FF2046FFF789FF00242C
:1048480004E0305DFFF76AFF0134A4B2AC42F8D34C
:10485800012210210248FCF7A0FFFFF7D7FF70BD27
:1048680000080140F8B507460E461446CDB2C5F516
:104878008075ADB2954203D3154601E04FF48075BB
:104888002A4631463846FFF7C9FFAC4208D02F44C4
:104898002E44641BA4B2B4F5807FEFD82546EFE719
:1048A800F8BD000070B50C46022814D0032814D1B6
:1048B80011260B4D002210212846FCF76EFF3046CA
:1048C800FFF72CFF2046FFF729FF01221021284679
:1048D800FCF763FF70BD3126EBE70126E9E700BF6F
:1048E8000008014038B5124D002210212846FCF777
:1048F80054FF9020FFF712FF0020FFF70FFF002062
:10490800FFF70CFF0020FFF709FFFF20FFF706FF66
:1049180084B22402A4B2FF20FFF700FF80B2044350
:10492800012210212846FCF738FF204638BD00BF79
:1049380000080140F0B587B0002402940394049461
:104948000594234B9A6942F008029A619B6903F027
:1049580008030193019B10270297012503950495ED
:10496800032305931B4E02A93046FCF7EFFD2A46A8
:1049780039463046FCF711FFFFF79AFE2046FFF74D
:10498800B3FEFFF7AFFF144B18804EF6187398422A
:1049980001D007B0F0BD0320FFF718FF044610F060
:1049A800010FF6D1FFF7EEFE44F00201C9B2032071
:1049B800FFF778FF002239463046FCF7EEFEB720B5
:1049C800FFF7ACFE2A4639463046FCF7E6FEE0E73C
:1049D80000100240000801404047002070B506461C
:1049E8000C461546002210210C48FCF7D6FE032081
:1049F800FFF794FE2046FFF7ABFE002405E0FF20FA
:104A0800FFF78CFE30550134A4B2AC42F7D3012233
:104A180010210248FCF7C1FE70BD00BF000801402C
:104A280038B50403FFF7AEFEFFF7F0FE094D00228C
:104A380010212846FCF7B1FE2020FFF76FFE204624
:104A4800FFF786FE012210212846FCF7A6FEFFF795
:104A5800DDFE38BD000801402DE9F04706468946CD
:104A680017464FEA1138C1F30B05C5F58054A4B2B7
:104A7800944204D3144602E04FF4805400254FEAD0
:104A8800083A4FF4805251461B48FFF7A7FF00230E
:104A98009C4207D9EA181849525CFF2A02D101330F
:104AA8009BB2F5E79C4211D8224649463046FFF7AB
:104AB800D9FEA7421ED008F101082644A1443F1B95
:104AC800BFB2B7F5805FD7D83C46D7E74046FFF777
:104AD800A7FF002305E05919F05C074A8854013301
:104AE8009BB29C42F7D84FF4805251460248FFF7D8
:104AF800B9FEDEE7BDE8F0874037002043689342FF
:104B08000AD25A1C426001EB03104FF0FF33836056
:104B180043600023C3607047002070470170426003
:104B280083600023C3607047F8B5064608461946F7
:104B380037680BE05D2C67D07D2C65D03A2C63D0AC
:104B4800203CE4B25E2C5BD801353560356895426F
:104B58005AD2445D002C57D02C2CEBD8092CEFD31B
:104B6800A4F1090CBCF1230FEAD801A353F82CF0E7
:104B7800114C0008114C0008494B0008494B00082B
:104B8800114C0008494B0008494B0008494B0008E4
:104B9800494B0008494B0008494B0008494B00089D
:104BA800494B0008494B0008494B0008494B00088D
:104BB800494B0008494B0008494B0008494B00087D
:104BC800494B0008494B0008494B0008114C0008A4
:104BD800494B0008494B0008494B0008494B00085D
:104BE800494B0008494B0008494B0008494B00084D
:104BF800494B0008494B0008494B0008114C000874
:104C080037606FF001000EE071B1069A3046FFF789
:104C180075FF68B133683A460821FFF77FFF3368AC
:104C2800013B33600020F8BD013D35600020FAE704
:104C380037604FF0FF30F6E770B505460668701C20
:104C4800286048E0002B00F09980049A194628460D
:104C5800FFF754FF30B12B68721C0421FFF75EFF89
:104C680000200AE02E604FF0FF3006E022282FD007
:104C78002F282DD02E606FF0010070BD01342C60FC
:104C88004FF0000E03E0013028600EF1010EBEF176
:104C9800030F1ADC2868904217D20C5CACB1A4F15F
:104CA800300C5FFA8CFCBCF1090FECD9A4F1410C73
:104CB8005FFA8CFCBCF1050FE5D9613CE4B2052C28
:104CC800E1D92E606FF00100D7E728680138286025
:104CD8002868013028602C6894424BD2085D00286F
:104CE80048D02228AED05C28F2D101349442EFD2C9
:104CF8002C60085D7528BDD85C28B7D35C381928A6
:104D0800B8D80FF2080C5CF820F000BFD94C0008A6
:104D18007D4C00087D4C00087D4C00087D4C000847
:104D28007D4C0008D94C00087D4C00087D4C0008DB
:104D38007D4C0008D94C00087D4C00087D4C0008CB
:104D48007D4C00087D4C00087D4C00087D4C000817
:104D58007D4C0008D94C00087D4C00087D4C0008AB
:104D68007D4C0008D94C00087D4C0008D94C00083F
:104D7800854C00082E606FF002007EE700207CE77B
:104D88002DE9F04782B00546884617461E46DDF8ED
:104D980028A0D0F8049096E07B2C27D01AD97D2C37
:104DA8001CD0CDF800A033463A4641462846FFF7C6
:104DB800BBFE0028C0F24A8109F10109AB68B3F1D2
:104DC800FF3F7DD0002E7BD006EB0313DA6801325B
:104DD800DA6075E05B2C09D05D2CE2D1002E6FD033
:104DE8007D2C25D002206C68013C24E009F10109E2
:104DF800002E65D0524631462846FFF77FFE024610
:104E0800002800F01B81AB68B3F1FF3F04D006EB2C
:104E18000313D9680131D9607B2C07D002231370A2
:104E28002B6853606B68013BAB6049E00123F6E7F0
:104E38000120D8E7013C002C12DB06EB0412516874
:104E4800B1F1FF3FF6D09168B1F1FF3FF2D111788F
:104E5800814240F0F6804FF0FF31A9600133936042
:104E6800B4F1FF3F03D16FF00109E3E0013C002CEE
:104E780026DB06EB04135A68B2F1FF3FF6D09B68B5
:104E8800B3F1FF3FF2D1AC601AE0CDF800A0334691
:104E98003A4641462846FFF7CFFE0028C0F2D480A4
:104EA80009F10109AB68B3F1FF3F09D046B106EB40
:104EB8000313DA680132DA6002E06B68013BAB6029
:104EC8002B6801332B602B68BB4280F0A08018F858
:104ED8000340002C00F09B803A2C3FF65DAF092C74
:104EE800FFF45FAF093C312C3FF65BAF01A353F8E9
:104EF80024F000BFC94E0008C94E0008AB4D000899
:104F0800AB4D0008C94E0008AB4D0008AB4D00087A
:104F1800AB4D0008AB4D0008AB4D0008AB4D000889
:104F2800AB4D0008AB4D0008AB4D0008AB4D000879
:104F3800AB4D0008AB4D0008AB4D0008AB4D000869
:104F4800AB4D0008AB4D0008AB4D0008AB4D000859
:104F5800C94E0008AB4D0008934E0008AB4D000841
:104F6800AB4D0008AB4D0008AB4D0008AB4D000839
:104F7800AB4D0008AB4D0008AB4D0008AB4D000829
:104F8800C54F0008AB4D0008AB4D0008AB4D0008FD
:104F9800AB4D0008AB4D0008AB4D0008AB4D000809
:104FA800AB4D0008AB4D0008AB4D0008AB4D0008F9
:104FB800AB4D0008AB4D0008C34E0008002E3FF46F
:104FC8007FAFAB68B3F1FF3F3FF47AAF1B01F35CEF
:104FD800022B3FF475AF012B3FF472AF6A68013AB8
:104FE80000E0013A002AFFF66BAF130106EB02114D
:104FF800F35C013BDBB2012BF3D84B68B3F1FF3F05
:10500800EFD08B68B3F1FF3FEBD1AA6058E78EB1C0
:105018006B68013B00E0013B002B0BDB06EB031246
:105028005168B1F1FF3FF6D09268B2F1FF3FF2D17B
:105038006FF00209484602B0BDE8F0874FF0FF392B
:10504800F8E76FF00109F5E78146F3E78146F1E7F4
:105058000023036043604FF0FF3383607047000014
:1050680038B5044630B1012C1AD0022C2ED0032CAE
:1050780042D038BD2B4D002208212846FCF78DFB75
:10508800012204212846FCF788FB01220221284638
:10509800FCF783FB012211462846FCF77EFBE2E77A
:1050A800204D012208212846FCF777FB0022042125
:1050B8002846FCF772FB012202212846FCF76DFB0B
:1050C800012211462846FCF768FBCEE7154D012260
:1050D80008212846FCF761FB012204212846FCF739
:1050E8005CFB002202212846FCF757FB01221146EF
:1050F8002846FCF752FBBAE70A4C01220821204651
:10510800FCF74BFB012204212046FCF746FB012259
:1051180002212046FCF741FB002201212046FCF732
:105128003CFBA6E70014014008B540B101280CD0AB
:10513800022810D0032813D0042816D008BD4FF435
:1051480000710C48FCF722FBF8E74FF4807109481E
:10515800FCF71CFBF2E780210648FCF717FBEDE79C
:1051680040210448FCF712FBE8E720210148FCF73E
:105178000DFBE3E7001401402DE9F04186B000255E
:105188000295039504950595194CA36943F02003EE
:10519800A361A36903F020030093009B0F230293EC
:1051A800012703974FF00308CDF81480114E02A988
:1051B8003046FCF7CBF9A36943F02003A361A36948
:1051C80003F020030193019B4FF478740294039534
:1051D8000497CDF8148002A93046FCF7B7F93A468F
:1051E80021463046FCF7D9FA06B0BDE8F08100BF89
:1051F800001002400014014008B5FFF7BDFF08BDCC
:1052080070B5064600253AE02046FFF78DFF0128D5
:105218001ED00134E4B2042C2FD82046FFF784FFB7
:105228000028F1D11B4B1A6805EB8503234422FAA9
:1052380003F111F0010FE7D0012101FA03F322EA8B
:105248000302144B1A602146284602F029F9E0E7C8
:10525800104B1A6805EB8503234422FA03F111F079
:10526800010FD6D1012101FA03F31A43094B1A6041
:105278002146284602F00CF9CBE70135EDB2032DA3
:1052880004D82846FFF7ECFE0024C4E7014B1B684E
:10529800338070BD200000204923038000487047F8
:1052A800180100204923038000487047640100204A
:1052B8004923038000487047C8010020D0F8B8325D
:1052C800002083F85000704710B5D0F8B842E36C5E
:1052D800012B01D0002010BDD0F8BC32DB6861780A
:1052E800207898470023E364F4E700000A2303804A
:1052F80000487047BC01002038B50446D0F8B852C1
:10530800D0F8BC32DB6869782878984740232A4669
:105318000121204601F0A2FC002038BD70B582B002
:10532800D0F8B8520023ADF806300C7814F06004B9
:1053380030D0202C40F08B804B78023B092B25D8AD
:10534800DFE803F0150924242424241C10058B7895
:105358002B6400247EE0012205F1400100F088FD65
:10536800002477E04B881B0A6B64002472E001225A
:1053780005F1440100F07CFD00246BE00123EB649F
:10538800CA88294600F089FD002463E000F063FA2A
:1053980002245FE04E780B2E55D8DFE806F006545D
:1053A80054545454155454543B4990F89C32032B8C
:1053B80003D000F050FA02244CE002220DF106015D
:1053C80000F056FD344645E04B881B0A222B07D0D7
:1053D800212B19D000231A46194600F049FD39E05F
:1053E8008D883DB9CA88222A28BF2222D0F8BC322B
:1053F8001B6801E000231A46012DEDD1CA88B92A9D
:1054080028BFB922154BE7E7CA88092A28BF09220D
:10541800134BE1E790F89C32032B03D000F01BFA02
:10542800022417E0012205F1480100F021FD11E0F6
:1054380090F89C32032B02D18B78AB640AE000F021
:105448000AFA022406E000F006FA022402E000F05C
:1054580002FA0224204602B070BD00BF24000020DA
:10546800B001002038B50446812101F0B8FB0025C1
:10547800E5620121204601F0B2FBC4F86C51D4F872
:10548800B8324BB1D4F8BC329B689847D4F8B8020C
:1054980001F0F6FBC4F8B852002038BD70B50446D8
:1054A80040230322812101F08FFB0125E5620923B6
:1054B80003228221204601F087FB25644023032232
:1054C8002946204601F080FBC4F86C5109230322C9
:1054D8000221204601F078FBC4F88051542001F0E5
:1054E800CBFBC4F8B80278B10546002680F85060B6
:1054F800D4F8BC325B68984740232A4601212046ED
:1055080001F0ACFB304670BD0120FCE738B5D0F89F
:10551800B85290F89C32032B02D00024204638BDA4
:1055280095F850400CB10124F8E7012385F8503074
:1055380013460A46822101F089FBEFE719B1C0F84A
:10554800BC12002070470220704798B108B5034686
:10555800D0F8B40210B10020C3F8B40209B1C3F8FE
:10556800B012012183F89C121A70184601F0EAFA69
:10557800002008BD0220704719B1C0F8B4120020FD
:1055880070470220704708B501F016FB002008BDDF
:1055980008B5D0F8B4322BB11B68984700B908BDDC
:1055A8000220FCE70220FAE708B5D0F8B4325B68BD
:1055B8009847002008BD38B5044600F52A752846E6
:1055C80000F035F90123C4F89432B4F8AE32C4F8C7
:1055D800983294F8A81201F01F03012B0ED0022B69
:1055E80011D02BB101F08001204601F000FB03E04F
:1055F8002946204600F0CAFA002038BD2946204630
:1056080000F0F8FAF8E72946204600F023FBF3E714
:1056180038B504460D4691BB1346D0F89422032AA8
:1056280003D0052A24D0084633E0D0F86011D0F81A
:10563800642191420DD9891AC0F860118A4206D9AD
:105648008AB21946204600F037FC284621E092B27B
:10565800F7E7D0F8B4321B691BB190F89C22032AF3
:1056680004D0204600F030FC284612E09847F8E7BE
:105678000021C0F8941201F0BAFA284609E0D0F8DF
:10568800B4329B6933B190F89C22032A04D198471D
:10569800002038BD0220FCE70220FAE738B50446AE
:1056A8000D46002953D11346D0F89422022A0CD073
:1056B800042A00D01AB98021204601F098FA94F8FB
:1056C800A032012B3ED0284638BD016A426A914279
:1056D8001BD8C169B1FBF2F302FB13132BB98A4241
:1056E80003D8D0F8983299421CD3D4F8B432DB6886
:1056F8001BB194F89C22032A21D08021204601F076
:1057080076FA204600F0EBFBD9E78A1A026292B2D9
:10571800194600F0BAFB00231A461946204601F044
:105728009DFACCE70022114600F0AFFB0021C4F837
:1057380098120B460A46204601F090FABFE7204629
:105748009847DAE7002384F8A0322846BCE7D0F867
:10575800B4325B6933B190F89C22032A04D198478C
:105768000020B1E70220AFE70220ADE770B504469C
:1057780040230022114601F027FA0125C4F85851A8
:105788004026C4F86461334600228021204601F097
:105798001BFAA561666284F89C520023C4F894320F
:1057A8006360C4F8A432D4F8B8322BB1D4F8B43258
:1057B8005B68002120469847002070BD01740020D6
:1057C800704790F89C3280F89D32042380F89C3210
:1057D8000020704790F89C32042B01D000207047BD
:1057E80090F89D3280F89C32F8E708B590F89C3222
:1057F800032B01D0002008BDD0F8B432DB69002BA0
:10580800F8D09847F6E70346002002E00130C0B21E
:1058180001331A78002AF9D1704708B54B88012B53
:1058280000D008BDC0F8A43200F04EFBF9E70B78B1
:1058380003704B7843708B78CA7803EB022343805C
:105848000B794A7903EB022383808B79CA7903EBBE
:105858000223C380704710B50446802101F0C7F9C0
:105868000021204601F0C3F910BD30B583B00546CC
:105878000C460023ADF806304A88130A013B062B74
:1058880000F2A480DFE803F004182CA2A28693009B
:10589800D0F8B0321B680DF10601007C9847BDF8BE
:1058A80006201AB1E388002B40F09480E388002B8F
:1058B80000F09A8003B030BD037C43B9D0F8B4320D
:1058C8009B6A0DF10600984702234370E7E7D0F87A
:1058D800B432DB6A0DF10600984702234370DEE715
:1058E800D2B2052A52D8DFE802F003101D2A374445
:1058F800D0F8B0325B6823B10DF10601007C9847FF
:10590800CDE72146FFF7A7FFD4E7D0F8B0329B6870
:1059180023B10DF10601007C9847C0E72146FFF747
:105928009AFFC7E7D0F8B032DB6823B10DF1060162
:10593800007C9847B3E72146FFF78DFFBAE7D0F818
:10594800B0321B6923B10DF10601007C9847A6E728
:105958002146FFF780FFADE7D0F8B0325B6923B18D
:105968000DF10601007C984799E72146FFF773FF80
:10597800A0E7D0F8B0329B6923B10DF10601007C95
:1059880098478CE72146FFF766FF93E72146FFF724
:1059980062FF8FE7037C33B9D0F8B4325B6B0DF14B
:1059A800060098477BE72146FFF755FF82E7037C0F
:1059B80043B9D0F8B4321B6B0DF1060098470723A2
:1059C80043706CE72146FFF746FF73E72146FFF770
:1059D80042FF6FE79A4228BF1A46ADF806200146F3
:1059E800284600F045FA61E7284600F06DFA61E7BD
:1059F80038B504468B88F3B9CB88E3B94B887F2B3D
:105A080019D803F07F0590F89C32032B0CD080F84E
:105A18009E52294601F012F9204600F055FA35B198
:105A2800022384F89C3209E0FFF715FF06E0012302
:105A380084F89C3202E02046FFF70DFF38BD0000D5
:105A480038B504460D468978284B197001290ED8B7
:105A580090F89C32022B0ED0032B21D02946FFF759
:105A6800FAFE224B19782046FFF79EFD02E02946F0
:105A7800FFF7F1FE38BD81B14160032380F89C3205
:105A8800FFF786FD022803D0204600F01DFAF1E753
:105A980029462046FFF7DFFEECE700F015FAE9E7B4
:105AA80089B1436899421DD0D9B2FFF77DFD0F4BEC
:105AB800197861602046FFF76BFD02280DD020465B
:105AC80000F002FAD6E7022380F89C324160FFF723
