:020000040800F2
:10000000000001201D130008DD110008DF110008A9
:10001000E1110008E3110008E511000800000000EC
:10002000000000000000000000000000E7110008D0
:10003000E911000800000000EB110008ED110008B4
:1000400065130008651300086513000865130008B0
:1000500065130008651300086513000865130008A0
:100060006513000865130008651300086513000890
:100070006513000865130008651300086513000880
:100080006513000865130008651300086513000870
:10009000F5110008651300086513000865130008D2
:1000A0006513000865130008651300086513000850
:1000B0006513000865130008651300086513000840
:1000C0006513000865130008651300086513000830
:1000D0006513000865130008651300086513000820
:1000E0006513000865130008651300086513000810
:1000F0006513000865130008651300086513000800
:1001000065130008651300086513000865130008EF
:1001100065130008651300086513000865130008DF
:1001200065130008651300086513000865130008CF
:1001300000000000000000000000000000000000BF
:1001400000000000000000000000000000000000AF
:10015000000000000000000000000000000000009F
:10016000000000000000000000000000000000008F
:10017000000000000000000000000000000000007F
:10018000000000000000000000000000000000006F
:10019000000000000000000000000000000000005F
:1001A000000000000000000000000000000000004F
:1001B000000000000000000000000000000000003F
:1001C000000000000000000000000000000000002F
:1001D000000000000000000000000000000000001F
:0401E0005FF8E0F1F3
:1001E80010B5054C237833B9044B13B10448AFF369
:1001F80000800123237010BDC046002000000000CD
:10020800E4EB000808B5034B1BB103490348AFF3FF
:10021800008008BD00000000C4460020E4EB000890
:10022800844641EA000313F0030349D1403A23D33B
:100238000B6803604B6843608B688360CB68C3605E
:100248000B6903614B6943618B698361CB69C36146
:100258000B6A03624B6A43628B6A8362CB6AC3622E
:100268000B6B03634B6B43638B6B8363CB6BC36316
:1002780040304031403ADBD230320BD30B68036058
:100288004B6843608B688360CB68C3601030103163
:10029800103AF3D20C3205D351F8043B40F8043B32
:1002A800043AF9D2043208D0D2071CBF11F8013B36
:1002B80000F8013B01D30B8803806046704700BFFC
:1002C800082A13D38B07B1D010F00303AED0C3F1C3
:1002D8000403D21ADB071CBF11F8013B00F8013BED
:1002E800A4D331F8023B20F8023B9FE7043AD9D364
:1002F800013A11F8013B00F8013BF9D20B78037081
:100308004B7843708B7883706046704781F000416A
:1003180002E000BF83F0004330B54FEA41044FEAE2
:10032800430594EA050F08BF90EA020F1FBF54EA7D
:10033800000C55EA020C7FEA645C7FEA655C00F019
:10034800E2804FEA5454D4EB5555B8BF6D420CDDEA
:100358002C4480EA020281EA030382EA000083EA6D
:10036800010180EA020281EA0303362D88BF30BD0D
:1003780011F0004F4FEA01314FF4801C4CEA113163
:1003880002D0404261EB410113F0004F4FEA0333C2
:100398004CEA133302D0524263EB430394EA050F4D
:1003A80000F0A780A4F10104D5F1200E0DDB02FABC
:1003B8000EFC22FA05F2801841F1000103FA0EF250
:1003C800801843FA05F359410EE0A5F120050EF116
:1003D800200E012A03FA0EFC28BF4CF0020C43FA47
:1003E80005F3C01851EBE37101F0004507D54FF054
:1003F800000EDCF1000C7EEB00006EEB0101B1F5A4
:10040800801F1BD3B1F5001F0CD349085FEA3000E9
:100418004FEA3C0C04F101044FEA445212F5800FF4
:1004280080F09A80BCF1004F08BF5FEA500C50F191
:10043800000041EB045141EA050130BD5FEA4C0C74
:10044800404141EB0101013C28BFB1F5801FE9D2D1
:1004580091F0000F04BF01460020B1FA81F308BFF4
:100468002033A3F10B03B3F120020CDA0C3208DDC0
:1004780002F1140CC2F10C0201FA0CF021FA02F19B
:100488000CE002F11402D8BFC2F1200C01FA02F10B
:1004980020FA0CFCDCBF41EA0C019040E41AA2BF30
:1004A80001EB0451294330BD6FEA04041F3C1CDAF8
:1004B8000C340EDC04F11404C4F1200220FA04F018
:1004C80001FA02F340EA030021FA04F345EA0301C2
:1004D80030BDC4F10C04C4F1200220FA02F001FA84
:1004E80004F340EA0300294630BD21FA04F0294606
:1004F80030BD94F0000F83F4801306BF81F480119F
:100508000134013D4EE77FEA645C18BF7FEA655C11
:1005180029D094EA050F08BF90EA020F05D054EAE3
:10052800000C04BF1946104630BD91EA030F1EBFE8
:100538000021002030BD5FEA545C05D140004941EC
:1005480028BF41F0004130BD14F580043CBF01F5DF
:10055800801130BD01F0004545F0FE4141F47001C5
:100568004FF0000030BD7FEA645C1ABF19461046A0
:100578007FEA655C1CBF0B46024650EA013406BFA1
:1005880052EA033591EA030F41F4002130BD00BF60
:1005980090F0000F04BF0021704730B54FF480641D
:1005A80004F132044FF000054FF0000150E700BF9E
:1005B80090F0000F04BF0021704730B54FF48064FD
:1005C80004F1320410F0004548BF40424FF00001EA
:1005D8003EE700BF42004FEAE2014FEA31014FEA2D
:1005E80002701FBF12F07F4393F07F4F81F060517C
:1005F800704732F07F4208BF704793F07F4F04BFC7
:1006080041F40021704730B54FF4607401F00045A3
:1006180021F000411CE700BF50EA010208BF704703
:1006280030B54FF000050AE050EA010208BF7047F4
:1006380030B511F0004502D5404261EB41014FF45D
:10064800806404F132045FEA915C3FF4D8AE4FF065
:1006580003025FEADC0C18BF03325FEADC0C18BF48
:10066800033202EBDC02C2F1200300FA03FC20FA99
:1006780002F001FA03FE40EA0E0021FA02F11444E6
:10068800BDE600BF70B54FF0FF0C4CF4E06C1CEAFF
:1006980011541DBF1CEA135594EA0C0F95EA0C0F70
:1006A80000F0DEF82C4481EA030621EA4C5123EAE3
:1006B8004C5350EA013518BF52EA033541F4801112
:1006C80043F4801338D0A0FB02CE4FF00005E1FBC5
:1006D80002E506F00042E0FB03E54FF00006E1FB0F
:1006E80003569CF0000F18BF4EF0010EA4F1FF0452
:1006F800B6F5007F64F5407404D25FEA4E0E6D4192
:1007080046EB060642EAC62141EA55514FEAC520A2
:1007180040EA5E504FEACE2EB4F1FD0C88BFBCF51E
:10072800E06F1ED8BEF1004F08BF5FEA500E50F1CF
:10073800000041EB045170BD06F0004646EA010195
:1007480040EA020081EA0301B4EB5C04C2BFD4EBC7
:100758000C0541EA045170BD41F480114FF0000EC0
:10076800013C00F3AB8014F1360FDEBF002001F02E
:10077800004170BDC4F10004203C35DA0C341BDCA8
:1007880004F11404C4F1200500FA05F320FA04F07A
:1007980001FA05F240EA020001F0004221F00041AE
:1007A80010EBD37021FA04F642EB06015EEA430E21
:1007B80008BF20EAD37070BDC4F10C04C4F1200551
:1007C80000FA04F320FA05F001FA04F240EA020004
:1007D80001F0004110EBD37041F100015EEA430ED5
:1007E80008BF20EAD37070BDC4F1200500FA05F2F5
:1007F8004EEA020E20FA04F301FA05F243EA020374
:1008080021FA04F001F0004121FA04F220EA020082
:1008180000EBD3705EEA430E08BF20EAD37070BDC8
:1008280094F0000F0FD101F00046400041EB0101A8
:1008380011F4801F08BF013CF7D041EA060195F08A
:10084800000F18BF704703F00046520043EB030344
:1008580013F4801F08BF013DF7D043EA0603704731
:1008680094EA0C0F0CEA135518BF95EA0C0F0CD03C
:1008780050EA410618BF52EA4306D1D181EA030182
:1008880001F000414FF0000070BD50EA410606BF7C
:100898001046194652EA430619D094EA0C0F02D1C1
:1008A80050EA013613D195EA0C0F05D152EA033606
:1008B8001CBF104619460AD181EA030101F0004124
:1008C80041F0FE4141F470014FF0000070BD41F06D
:1008D800FE4141F4780170BD70B54FF0FF0C4CF447
:1008E800E06C1CEA11541DBF1CEA135594EA0C0F66
:1008F80095EA0C0F00F0A7F8A4EB050481EA030EB3
:1009080052EA03354FEA013100F088804FEA033399
:100918004FF0805545EA131343EA12634FEA022267
:1009280045EA111545EA10654FEA00260EF0004128
:100938009D4208BF964244F1FD0404F5407402D27A
:100948005B084FEA3202B61A65EB03055B084FEA0B
:1009580032024FF480104FF4002CB6EB020E75EB08
:10096800030E22BFB61A754640EA0C005B084FEA30
:100978003202B6EB020E75EB030E22BFB61A7546AD
:1009880040EA5C005B084FEA3202B6EB020E75EBF8
:10099800030E22BFB61A754640EA9C005B084FEA70
:1009A8003202B6EB020E75EB030E22BFB61A75467D
:1009B80040EADC0055EA060E18D04FEA051545EA6C
:1009C80016754FEA06164FEAC30343EA52734FEA15
:1009D800C2025FEA1C1CC0D111F4801F0BD141EA8E
:1009E80000014FF000004FF0004CB6E711F4801FF3
:1009F80004BF01430020B4F1FD0C88BFBCF5E06FD3
:100A08003FF6AFAEB5EB030C04BFB6EB020C5FEAE2
:100A1800500C50F1000041EB045170BD0EF0004E37
:100A28004EEA113114EB5C04C2BFD4EB0C0541EA69
:100A3800045170BD41F480114FF0000E013C90E666
:100A480045EA060E8DE60CEA135594EA0C0F08BF2A
:100A580095EA0C0F3FF43BAF94EA0C0F0AD150EA29
:100A680001347FF434AF95EA0C0F7FF425AF1046BC
:100A780019462CE795EA0C0F06D152EA03353FF4E4
:100A8800FDAE1046194622E750EA410618BF52EA61
:100A980043067FF4C5AE50EA41047FF40DAF52EA35
:100AA80043057FF4EBAE12E74FF0FF3C06E000BFD2
:100AB8004FF0010C02E000BF4FF0010C4DF804CDDF
:100AC8004FEA410C7FEA6C5C4FEA430C18BF7FEA9F
:100AD8006C5C1BD001B050EA410C0CBF52EA430CCD
:100AE80091EA030F02BF90EA020F0020704710F14D
:100AF800000F91EA030F58BF994208BF90422CBFDC
:100B0800D8176FEAE37040F0010070474FEA410CD4
:100B18007FEA6C5C02D150EA013C07D14FEA430CF2
:100B28007FEA6C5CD6D152EA033CD3D05DF8040B63
:100B3800704700BF8446104662468C461946634695
:100B480000E000BF01B5FFF7B7FF002848BF10F16C
:100B5800000F01BD4DF808EDFFF7F4FF0CBF0120B1
:100B680000205DF808FB00BF4DF808EDFFF7EAFF2D
:100B780034BF012000205DF808FB00BF4DF808EDE8
:100B8800FFF7E0FF94BF012000205DF808FB00BFDD
:100B98004DF808EDFFF7CEFF94BF012000205DF867
:100BA80008FB00BF4DF808EDFFF7C4FF34BF012074
:100BB80000205DF808FB00BF4FEA410C7FEA6C5C3F
:100BC80002D150EA013C0AD14FEA430C7FEA6C5C3F
:100BD80002D152EA033C02D14FF0000070474FF0B7
:100BE800010070474FEA410212F5001215D211D5E3
:100BF8006FF47873B3EB625212D94FEAC12343F012
:100C0800004343EA505311F0004F23FA02F018BF93
:100C1800404270474FF00000704750EA013005D15C
:100C280011F0004008BF6FF0004070474FF000001F
:100C3800704700BF53B94AB9002908BF00281CBF34
:100C48004FF0FF314FF0FF3000F076B9ADF1080CEE
:100C58006DE904CE00F006F8DDF804E0DDE90223D2
:100C680004B070472DE9F047089E0D4604468846B3
:100C7800002B4DD18A42944668D9B2FA82F252B119
:100C880001FA02F3C2F1200120FA01F10CFA02FC88
:100C980041EA030894404FEA1C41B8FBF1F71FFAF8
:100CA8008CFE01FB178807FB0EF0230C43EA084370
:100CB80098420AD91CEB030307F1FF3580F01E8127
:100CC800984240F21B81023F63441B1AB3FBF1F0C8
:100CD80001FB103300FB0EFEA4B244EA0344A64510
:100CE8000AD91CEB040400F1FF3380F00981A64502
:100CF80040F20681644402380021A4EB0E0440EA65
:100D080007401EB10023D440C6E90043BDE8F08780
:100D18008B4208D9002E00F0EE800021C6E90005BC
:100D28000846BDE8F087B3FA83F100294AD1AB42FF
:100D380002D3824200F2FC80841A65EB030301208F
:100D48009846002EE2D0C6E90048DFE702B9FFDE88
:100D5800B2FA82F2002A40F09180A1EB0C00012146
:100D68004FEA1C471FFA8CFEB0FBF7F307FB130092
:100D7800250C45EA00450EFB03F0A84208D91CEBF8
:100D8800050503F1FF3802D2A84200F2CE8043469F
:100D98002D1AB5FBF7F007FB10550EFB00FEA4B2A9
:100DA80044EA0544A64508D91CEB040400F1FF35C4
:100DB80002D2A64500F2B6802846A4EB0E0440EA0B
:100DC80003409EE7C1F120078B4022FA07FC4CEA5A
:100DD800030C25FA07FA4FEA1C49BAFBF9F820FA7E
:100DE80007F309FB18AA8D401FFA8CFE1D4300FA71
:100DF80001F308FB0EF02C0C44EA0A44A04202FA64
:100E080001F20BD91CEB040408F1FF3A80F088804A
:100E1800A04240F28580A8F102086444241AB4FB79
:100E2800F9F009FB104400FB0EFEADB245EA04449C
:100E3800A64508D91CEB040400F1FF356CD2A64581
:100E48006AD90238644440EA0840A0FB0295A4EB42
:100E58000E04AC42C846AE4656D353D0002E69D0D5
:100E6800B3EB080264EB0E0422FA01F304FA07F765
:100E78001F43CC40C6E90074002147E70CFA02FC86
:100E8800C2F1200125FA01F34FEA1C4720FA01F1CB
:100E980095400D43B3FBF7F107FB11331FFA8CFEA6
:100EA800280C40EA034001FB0EF3834204FA02F4E3
:100EB80008D91CEB000001F1FF382FD283422DD94D
:100EC80002396044C01AB0FBF7F307FB1300ADB258
:100ED80045EA004503FB0EF0A84208D91CEB0505BE
:100EE80003F1FF3816D2A84214D9023B6544281AE8
:100EF80043EA014138E73146304607E72F46E4E642
:100F08001846F9E64B45A9D2B9EB020865EB0C0E79
:100F18000138A3E74346EAE7284694E74146D1E784
:100F2800D0467BE76444023847E7023B65442FE735
:100F3800084606E73146E9E6704700BF2DE9F0416B
:100F480088B0002404940594069407941F4B9A696A
:100F580042F040029A619A6902F040020192019AB5
:100F68009A6942F004029A619A6902F004020292B4
:100F7800029A9A6942F020029A619B6903F0200361
:100F88000393039BDFF8488022466021404600F027
:100F9800C6FB104D22464021284600F0C0FB6023C6
:100FA80004930127059706940226079604A940464C
:100FB80000F08EFA4023049305970694079604A937
:100FC800284600F085FA08B0BDE8F081001002401C
:100FD800001801400014014072B6FEE700B597B052
:100FE800282200210CA807F091FE002307930893FC
:100FF80009930A930B930193029303930493059324
:10100800069301220C924FF480330D931092022222
:10101800139214934FF4E01315930CA801F0AEFB50
:10102800C0B90F23079302210891002309934FF4B5
:1010380080620A920B9307A801F0D2FD60B91023D1
:1010480001930023069301A801F0A6FE30B917B05A
:101058005DF804FBFFF7C0FFFFF7BEFFFFF7BCFF1B
:1010680008B5124800F024F800F0A0F9FFF7B6FF21
:10107800FFF764FF00F0F8F806F090FA06F0ECFDD0
:1010880008B9002008BD07F0FBF807F031F906F0B1
:1010980053FD07F0ABF907F097F907F009FA07F0E5
:1010A8002BF906F051FD07F045FAF8E7E446002071
:1010B80008B5054B1860054B18680023022219462D
:1010C800806807F0FDFE08BDDC460020143D0020C6
:1010D800022801D80120704708B507F031FB092321
:1010E8000360002008BD000010B5013801280AD8A7
:1010F80014464FF0FF3392B20748006802F0ECFA4A
:1011080040B9204610BD07F01BFB092303604FF0D0
:10111800FF30F7E70520F5E7DC460020022801D874
:101128000020704708B507F00BFB092303604FF058
:10113800FF3008BD08B507F003FB092303604FF033
:10114800FF3008BD08B548B94FF0FF330122084801
:10115800006802F020FB40B9012008BD07F0F0FA52
:10116800092303604FF0FF30F7E70520F5E700BFDC
:10117800DC46002008B5022804D84FF400534B6021
:10118800002008BD07F0DCFA09230360F8E7000037
:1011980082B00E4B9A6942F001029A619A6902F094
:1011A80001020092009ADA6942F08052DA61DB6942
:1011B80003F080530193019B054A536823F0E063D1
:1011C80043F00073536002B0704700BF0010024044
:1011D80000000140FEE7FEE7FEE7FEE7FEE7704796
:1011E8007047704708B506F0C7FC08BD08B5024847
:1011F80001F08BF808BD00BFCC69002001207047C2
:1012080008B507F09DFA162303604FF0FF3008BDBC
:1012180008B54FF0FF31FFF7F3FFFEE710B50346BF
:101228000C4A0D490D48006840B10C480068034459
:10123800521A934206D8094A136010BD0748084C51
:101248000460F2E707F07CFA0C2303604FF0FF30EC
:10125800F3E700BF00000120000C0000E04600207A
:1012680048DD00207047000008B50A480A4B0360B3
:101278004FF4E133436000238360C36003610C22B1
:1012880042618361C36102F0F7F900B908BDFFF755
:10129800A3FEFBE7E44600200038014010B586B005
:1012A800002302930393049305930268174B9A4211
:1012B80001D006B010BD03F558439A6942F4804244
:1012C8009A619A6902F480420092009A9A6942F0FF
:1012D80004029A619B6903F004030193019B4FF494
:1012E800007302930223039303230593084C02A976
:1012F800204600F0EDF84FF4806302930023039337
:10130800049302A9204600F0E3F8D2E70038014030
:1013180000080140FFF7A6FF0B480C490C4A0023C0
:1013280002E0D458C4500433C4188C42F9D3094A93
:10133800094C002301E013600432A242FBD307F0FA
:1013480005FAFFF78DFE704700000020C046002018
:1013580004260108C046002044DD0020FEE7000006
:1013680010B504460E4B18784FF47A73B3FBF0F3BC
:101378000C4A1068B0FBF3F000F096F868B90F2C2F
:1013880001D901200AE0002221464FF0FF3000F089
:1013980045F8054B1C60002000E0012010BD00BF8F
:1013A80004000020000000200800002008B5074ABB
:1013B800136843F010031360032000F01DF80F209A
:1013C800FFF7CEFFFFF7E4FE002008BD0020024033
:1013D80038B5044606F0F2FB0546B4F1FF3F02D0EB
:1013E800044B1B781C4406F0E9FB401BA042FAD3CF
:1013F80038BD00BF04000020074AD36823F4E06327
:101408001B041B0C000200F4E060034343F0BF63BD
:1014180043F40033D360704700ED00E000B5194B8A
:10142800DB68C3F30223C3F1070CBCF1040F28BF28
:101438004FF0040C03F1040EBEF1060F18D9033B5C
:101448004FF0FF3E0EFA0CFC21EA0C0199400EFA0F
:1014580003F322EA0303194300280BDB0901C9B28D
:1014680000F1604000F5614080F800135DF804FB6E
:101478000023E5E700F00F000901C9B2024B195437
:10148800F4E700BF00ED00E014ED00E0002807DB02
:1014980000F01F02400901239340024A42F820301D
:1014A800704700BF00E100E00138B0F1807F0BD247
:1014B8004FF0E0235861054AF02182F823100020FC
:1014C800986107221A6170470120704700ED00E01B
:1014D80070B582B00024A446B0E0874DAA4210D06F
:1014E80007D9864DAA420CD005F58035AA4208D006
:1014F80013E0A5F58015AA4203D005F57025AA4288
:1015080007D18A68002A62D0012A5BD04361082487
:1015180003E0A5F58015AA42F3D0BEF1FF0F58D815
:101528000646BEF1FF0F56D84FEA8C0233680F25E6
:10153800954023EA050304FA02F2134333604B682B
:1015480013F0805F78D06E4B9A6942F001029A617D
:101558009B6903F001030193019B4FEA9C02951CD0
:10156800684B53F825600CF003039D000F23AB4034
:1015780026EA0306644B984233D003F58063984209
:1015880000F0988003F58063984200F0958003F599
:101598008063984200F0928003F58063984200F0DF
:1015A8008F8003F58063984219D006231AE0CC682F
:1015B800B3E7CC680434B0E7CC680834ADE7CC684E
:1015C8000C34AAE703610824A7E70024A5E704244C
:1015D800A3E7061DA5E7ACF108029200A6E70523DC
:1015E80000E00023AB4033430232464D45F8223039
:1015F8004B6813F4801F65D0444A936843EA0E038E
:1016080093604B6813F4001F62D0404AD36843EAE2
:101618000E03D3604B6813F4003F5FD03B4A536816
:1016280043EA0E0353604B6813F4803F5CD0374A9B
:10163800136843EA0E0313600CF1010C0A6832FACE
:101648000CF357D0012303FA0CF302EA030E33EA32
:101658000202F1D14A68122A3FF63FAF122A3FF63A
:101668005CAF01A555F822F00B150008B715000866
:10167800C1150008D3150008231500082315000814
:101688002315000823150008231500082315000852
:101698002315000823150008231500082315000842
:1016A800231500082315000823150008BB1500089A
:1016B800C7150008012395E7022393E7032391E761
:1016C80004238FE7114A936823EA0E03936098E78F
:1016D8000E4AD36823EA0E03D3609BE70B4A53688C
:1016E80023EA0E0353609EE7084A136823EA0E03B1
:1016F8001360A1E702B070BD000022100000311095
:1017080000100240000001400008014000040140B0
:101718008368194201D001207047002070470AB140
:101728000161704709040161704738B512F4804FB0
:1017380044D00468B4F850309BB291F800C003EB71
:10174800CC03023304EB4303B3F80044C4F30904A5
:101758008B69A34228D31B1B8B618B697BB90568F6
:1017680035F82C309BB223F4804323F0700383F4C4
:10177800005343F4004343F0800325F82C3012F063
:10178800400F0ED002680D7832F825309BB223F452
:10179800E04323F0700343F4004343F0C00322F80E
:1017A800253024B9204638BD00238B61D5E7234670
:1017B8000A894969006802F0D1FFF3E70468B4F8C0
:1017C80050309BB291F800C003EBCC03063304EB16
:1017D8004303B3F80044C4F309048B69A3422FD32D
:1017E8001B1B8B618B697BB9056835F82C309BB264
:1017F80023F4804323F0700383F4005343F400433D
:1018080043F0800325F82C3012F0400F0FD1026806
:1018180091F800C032F82C309BB223F4E04323F057
:10182800700343F4004343F0C00322F82C30002C2B
:10183800B8D023464A894969006802F08FFFB1E7AA
:1018480000238B61CEE770B586B0002800F0818058
:10185800044690F8A932EBB1032384F8A932206832
:1018680002F00EF8254655F8106BEC460FCDACE8A3
:101878000F002B68CCF80030231D0ECB304601F04A
:10188800EFFF054658B1022384F8A93201252846FE
:1018980006B070BD80F8A83206F010F8DCE7002129
:1018A800206801F0F7FF2B4616E05A1C02EB820174
:1018B80004EBC1010120487002EB820104F83130C9
:1018C80004EBC1000021C17003EB830004EBC000EE
:1018D8008163C1630164D3B261688B42E5D316E0CA
:1018E80005EB850304EBC303002283F8692183F821
:1018F800685183F86B21C3F87821C3F87C2105EB84
:10190800850304EBC303C3F880210135EDB2A94276
:10191800E6D8254655F8106BEC460FCDACE80F001D
:101928002B68CCF80030231D0ECB304601F0B4FFF5
:10193800054620B1022384F8A9320125A7E7002330
:1019480084F82430012384F8A932206802F003FBCC
:101958009DE701259BE738B590F8A832012B11D0F7
:101968000446012580F8A852006801F080FF294646
:10197800204606F0C3F8206802F0EBFA002084F84D
:10198800A80238BD0220FCE770B505460C4616468D
:1019980012F0400F00F00E810268B2F850309BB28E
:1019A800097803EBC103023302EB4303B3F80024C5
:1019B800C2F30902A36993424ED99B1AA361A36992
:1019C800002B66D16378002B49D12B68B3F85020DF
:1019D80092B2134403EB0111B1F80434C3F30903C1
:1019E800A1F80434B1F804346FEA43436FEA53436F
:1019F8009BB2A1F804342B686278002A3CD1B3F872
:101A0800502092B21344227803EB0213B3F80C244B
:101A1800C2F30902A3F80C24B3F80C246FEA42427B
:101A28006FEA524292B2A3F80C242178284605F0B6
:101A380079FF16F4804F41D02A68217832F8213096
:101A48009BB223F4E04323F0700343F4404343F094
:101A5800800322F8213031E00023A361AFE7012B96
:101A6800C9D12B68B3F8502092B2134403EB01118B
:101A78000023A1F80434BEE7012AD6D1B3F85020D8
:101A880092B21344227803EB02130022A3F80C2429
:101A9800CBE716F4804F0DD0286830F821309BB280
:101AA80023F4E04323F0700343F4404343F08003FE
:101AB80020F8213094F82430012B12D02A6821789C
:101AC80032F821309BB223F4E04323F0400383F043
:101AD800300343F4004343F0800322F82130002010
:101AE80070BD636913446361E3691344E361216A68
:101AF8002369994224D3C91A21626278002A44D101
:101B08002A68B2F8501089B20A44217802EB01120F
:101B1800B2F80414C1F30901A2F804143E2B1BD92E
:101B2800580913F01F0F00D10138B2F8041489B214
:101B3800800280B2014341F40041A2F8041426E077
:101B480021B9002384F824301346D6E7002384F80B
:101B5800243023620B46D0E74BB9B2F804146FEA7D
:101B680041416FEA514189B2A2F804140FE05908C3
:101B780013F0010F00D00131B2F8040480B28902D9
:101B880089B20143A2F8041401E0012A06D09BB2ED
:101B980022896169286802F0E6F98FE72A68B2F8B5
:101BA800501089B20A44217802EB011299B2A2F8C6
:101BB8000414ECE70268B2F850309BB2097803EBE2
:101BC800C103063302EB4303B3F80024C2F309024E
:101BD800A36993424FD39B1AA361A369002B67D1D2
:101BE8006378002B4AD12B68B3F8502092B2134483
:101BF80003EB0111B1F80434C3F30903A1F8043469
:101C0800B1F804346FEA43436FEA53439BB2A1F837
:101C180004342B686278002A3DD1B3F8502092B280
:101C28001344227803EB0213B3F80C24C2F309021D
:101C3800A3F80C24B3F80C246FEA42426FEA52422C
:101C480092B2A3F80C242178284605F06BFE16F40E
:101C5800804F7FF433AF2A68217832F821309BB265
:101C680023F4E04323F0700343F4404343F080033C
:101C780022F8213022E70023A361AEE7012BC8D167
:101C88002B68B3F8502092B2134403EB01110023E0
:101C9800A1F80434BDE7012AD5D1B3F8502092B297
:101CA8001344227803EB02130022A3F80C24CAE79A
:101CB80016F4804F0DD1286830F821309BB223F4F8
:101CC800E04323F0700343F4404343F0800320F8DB
:101CD800213094F82430012B7FF4F0AE636913446B
:101CE8006361E3691344E361216A2369994224D358
:101CF800C91A21622A686178002943D1B2F85010C4
:101D080089B20A44217802EB0112B2F80C14C1F32B
:101D18000901A2F80C143E2B1BD9580913F01F0F08
:101D280000D10138B2F80C1489B2800280B20143A4
:101D380041F40041A2F80C1426E021B9002384F8EC
:101D480024301346D6E70023236284F824300B4658
:101D5800D0E74BB9B2F80C146FEA41416FEA514130
:101D680089B2A2F80C140FE0590813F0010F00D043
:101D78000131B2F80C0480B2890289B20143A2F899
:101D88000C1401E0012906D09BB2628961692868B8
:101D980002F0E9F892E6B2F8501089B20A442178C4
:101DA80002EB011299B2A2F80C14EDE72DE9F0410B
:101DB80005462868B0F8443013F4004F00F08E82CE
:101DC800B0F84440A3B214F00F0440F0E28013F0DE
:101DD800100F6BD003889AB213F4006F40F09D8007
:101DE80012F4004FE5D0038823F070031B051B0D88
:101DF80043F0800303802868B0F850309BB295F810
:101E0800682103EBC203063300EB4303B3F8003445
:101E1800C3F30903C5F884318BB1D5F87C1171B1CE
:101E2800B5F86E2102F09AFCD5F88421D5F87C31FA
:101E38001344C5F87C310021284605F067FD2A685F
:101E4800138899B213F4006FB3D101F44051B1F57E
:101E5800405FAED0B2F850309BB21A44B2F80C349E
:101E6800C3F30903A2F80C34D5F878313E2B77D99F
:101E7800590913F01F0F00D10139B2F80C349BB285
:101E8800890289B20B4343F40043A2F80C342A6850
:101E980013889BB223F4804323F0700383F44053E8
:101EA80043F4004343F08003138082E703889BB226
:101EB80023F4E14323F070036FEA43436FEA53438B
:101EC8009BB203802A68B2F850309BB295F828106C
:101ED80003EBC103023302EB4303B3F80034C3F34B
:101EE80009036B64EA6B1344EB630021284605F091
:101EF80019FD95F82430002B3FF45BAF2B6C002BB9
:101F08007FF457AF95F824302A6843F08003A2F88D
:101F18004C30002385F824304BE7B0F850309BB2A2
:101F280095F8682103EBC203063300EB4303B3F8CB
:101F38000034C3F30903C5F88431B5F86E2105F5FB
:101F48002C7102F00BFC2A68138823F070031B0520
:101F58001B0D43F080031380284605F0CFFC28E7CB
:101F68004BB9B2F80C346FEA43436FEA53439BB260
:101F7800A2F80C348BE7590813F0010F00D0013197
:101F8800B2F80C3498B28B029BB20343A2F80C341B
:101F98007DE730F824309EB213F4004F4CD116F090
:101FA800800F3FF406AF621C02EB820105EBC10112
:101FB800286830F824309BB223F4E14323F07003FF
:101FC8006FEA43436FEA53439BB220F82430CB783F
:101FD800012B00F0F28016F4807F40F07A812868A7
:101FE800B0F850309BB2621C02EB820215F83260E6
:101FF80003EBC603023300EB4303B3F80034C3F327
:10200800090304EB840205EBC202126C9A4240F207
:102018004C8104EB840705EBC707D21A3A6404EB3A
:10202800840205EBC202126C002A40F04581314659
:10203800284605F077FCBCE630F8243023F070031E
:102048001B051B0D43F0800320F8243004EB8401AA
:10205800C90001F5B47105EB010804EB840305EB35
:10206800C30393F87431002B42D12868B0F850307C
:102078009BB204EB840205EBC20292F8682103EBE1
:10208800C203063300EB4303B3F80074C7F3090730
:1020980017BB04EB840305EBC303D3F884213A444C
:1020A800C3F88421D3F87C213A44C3F87C21D3F8BF
:1020B80080313BB104EB840305EBC303D3F87831DB
:1020C8009F4275D204EB840305EBC30393F86811B0
:1020D800284605F01BFC62E704EB840105EBC1010F
:1020E8003B46B1F86E21D1F87C1102F037FBD0E7FE
:1020F80004EB840305EBC30393F86B31022B35D053
:10210800296804EB840205EBC20292F8680131F8F1
:1021180020309BB223F4E04323F0700343F40043E0
:1021280043F0C00321F82030286892F8682130F87D
:10213800223013F4804F20D0B0F850309BB203EB1C
:10214800C203023300EB4303B3F80074C7F3090773
:10215800002F9ED004EB840105EBC1013B46B1F88A
:102168007021D1F87C1102F0F9FA92E73246414623
:102178002846FFF7DAFA07468BE7B0F850309BB2EB
:1021880003EBC203063300EB4303B3F80074C7F351
:102198000907002F3FF47DAF04EB840105EBC10173
:1021A8003B46B1F87221D1F87C1102F0D7FA70E7FA
:1021B8004146286801F0EBFEF1E604EB840305EBE9
:1021C800C30300221A6493F83430FBB116F0400FB1
:1021D80037D04B781BBB2B68B3F8502092B213440E
:1021E800621C02EB820215F8322003EB0213B3F8EB
:1021F8000424C2F30902A3F80424B3F804246FEA00
:1022080042426FEA524292B2A3F80424013404EB2A
:10221800840415F83410284605F084FBC9E5012B21
:10222800F4D12B68B3F8502092B21344621C02EB2D
:10223800820215F8322003EB02130022A3F80424CB
:10224800E4E72A68631C03EB830305EBC3035B78AD
:10225800D3B9B2F850309BB21344621C02EB82022D
:1022680015F8322003EB0213B3F80C24C2F3090269
:10227800A3F80C24B3F80C246FEA42426FEA5242E6
:1022880092B2A3F80C24C1E7012BBFD1B2F85030A9
:102298009BB21344621C02EB820215F8322003EB56
:1022A80002130022A3F80C24B0E704EB840205EB28
:1022B800C20200271764B2E604EB840205EBC202EF
:1022C800D66B1E44D663546C2344536401F05FFEFE
:1022D8006FE532462846FFF757FB6AE50020BDE860
:1022E800F08190F8A832012B0DD010B504460123D7
:1022F80080F8A83280F82410006801F024FE00203D
:1023080084F8A80210BD0220704710B584B00446B6
:10231800006801F022FE10F4004F20D110F4806F05
:1023280021D110F4804F2FD110F4005F37D110F471
:10233800805F3ED110F4006F40F0878010F4007F7A
:1023480040F0AE8010F4807F27D02268B2F8443085
:102358009BB223F480739BB2A2F844301DE0204660
:10236800FFF724FD19E02268B2F844309BB223F449
:1023780080639BB2A2F84430204605F0E4FA0021BD
:102388002046FFF7AEFF08E02268B2F844309BB25F
:1023980023F480439BB2A2F8443004B010BD2268F5
:1023A800B2F844309BB223F400539BB2A2F84430F5
:1023B800F3E72268B2F840309BB223F004039BB2E3
:1023C800A2F840302268B2F840309BB223F00803EC
:1023D8009BB2A2F84030204605F0D8FA2268B2F83D
:1023E80044309BB223F480539BB2A2F84430D4E724
:1023F800226832F8231004AA02EB430222F8101CC8
:102408000133DBB2072BF3D92268B2F840309BB214
:1024180043F00103A2F840302268B2F840309BB282
:1024280023F001039BB2A2F840302368B3F844209C
:1024380012F4806FF9D0B3F8442092B222F480628B
:1024480092B2A3F8442000230BE00023DAE72268C5
:1024580004A901EB430131F8101C22F823100133C1
:10246800DBB2072BF3D92268B2F840309BB243F0B5
:102478000803A2F840302268B2F844309BB223F433
:1024880000639BB2A2F844302268B2F840309BB295
:1024980043F00403A2F84030204605F067FA7CE7D1
:1024A8002268B2F844309BB223F400739BB2A2F8BE
:1024B8004430204605F041FA6FE710B50446084657
:1024C80011F0800F25D101F0070C0CEB8C01C9002D
:1024D80001F5B47E04EB0E010CEB8C0C04EBCC0C78
:1024E8004FF0000E8CF869E100F0070008700A61EF
:1024F800CB70022B1AD094F8A832012B19D00123E3
:1025080084F8A832206801F0D8F9002084F8A802DD
:1025180010BD01F0070C0CF1010C0CEB8C0104EB65
:10252800C1014FF0010E81F801E0DDE700230B71D6
:10253800E1E70220ECE710B504460B4611F0800FE6
:102548001FD101F0070202EB8201C90001F5B47145
:10255800014402EB820200EBC202002082F869010A
:1025680003F007030B7094F8A832012B13D0012352
:1025780084F8A832206801F085FB002084F8A802BE
:1025880010BD01F00702013202EB820100EBC1012C
:1025980001204870E4E70220F2E710B501F0070CCB
:1025A8000CEB8C01C90001F5B4710CEB8C0E00EB3F
:1025B800CE0ECEF87C21CEF880310024CEF88441AE
:1025C8008EF869418EF868C10144006801F0DFFCAB
:1025D800204610BD01F0070101EB810100EBC101AC
:1025E800D1F88401704738B501F0070404F1010CF3
:1025F8000CEB8C0104EB840E00EBCE0ECEF83C20E5
:10260800CEF8403001228EF84C20CEF84830002514
:10261800CEF8445000EBC1035A7000F83140194617
:10262800006801F0B4FC284638BD38B501F007054C
:102638004268954231D804460B4611F0800F1ED1EE
:1026480001EB8101C90001F5B471014403EB830377
:1026580000EBC303002283F8692101238B700D70FE
:1026680094F8A832012B1AD0012384F8A8322068E4
:1026780001F0F3FB5DB1002084F8A80238BD6B1CA3
:1026880003EB830100EBC10101224A70E5E704F581
:102698002C71206801F065FCEDE70120EEE70220CF
:1026A800ECE70B4601F00F014268914230D810B5B3
:1026B800044613F0800F21D103F0070202EB8201D8
:1026C800C90001F5B471014402EB820200EBC202B9
:1026D800002082F8690100228A7003F007030B705A
:1026E80094F8A832012B15D0012384F8A832206869
:1026F80001F0D8FB002084F8A80210BD03F00702FF
:10270800013202EB820100EBC10101204870E2E7CF
:10271800012070470220F0E711F0800F0BD001F084
:102728000701013101EB810100EBC10152B90A73C4
:10273800CB800020704701EB8101C90001F5B4711D
:102748000144F3E701220A730B811B0C4B81F0E76C
:1027580082B0084B1B68084AA2FB03235B0A00FBF4
:1027680003F3019300BF019B5A1E0192002BF9D17C
:1027780002B0704700000020D34D6210002800F01E
:10278800F18170B582B00446036813F0010F2CD0B4
:10279800994B5B6803F00C03042B1DD0964B5B68C8
:1027A80003F00C03082B12D06368B3F5803F41D0C7
:1027B800002B55D103F1804303F504331A6822F442
:1027C80080321A601A6822F480221A6037E08A4B35
:1027D8005B6813F4803FE7D0874B1B6813F4003F16
:1027E80003D06368002B00F0BF81236813F0020F49
:1027F80075D0814B5B6813F00C0F5FD07E4B5B6824
:1028080003F00C03082B54D02369002B00F08A80B6
:102818007A4B01221A6005F0D1F90546764B1B6800
:1028280013F0020F75D105F0C9F9401B0228F5D93C
:1028380003209EE1704A136843F480331360636891
:1028480043B305F0BBF905466B4B1B6813F4003F17
:10285800CBD105F0B3F9401B6428F5D9032088E1F2
:10286800B3F5A02F09D0644B1A6822F480321A609D
:102878001A6822F480221A60E1E703F18043A3F585
:102888003C331A6842F480221A601A6842F4803293
:102898001A60D4E705F092F90546574B1B6813F404
:1028A800003FA2D005F08AF9401B6428F5D903201F
:1028B8005FE1514B5B6813F4803FA5D14E4B1B6819
:1028C80013F0020F03D02369012B40F04F814A4ACD
:1028D800136823F0F803616943EAC10313602368AE
:1028E80013F0080F33D0A369002B5CD0434B0122AF
:1028F800C3F8802405F062F905463F4B5B6A13F084
:10290800020F21D105F05AF9401B0228F5D90320FE
:102918002FE1394A136823F0F803616943EAC103D8
:102928001360DCE7354B00221A6005F047F90546CD
:10293800314B1B6813F0020FD1D005F03FF9401B53
:102948000228F5D9032014E10120FFF701FF2368CD
:1029580013F0040F00F09680274BDB6913F0805FBB
:1029680034D1254BDA6942F08052DA61DB6903F031
:1029780080530193019B0125214B1B6813F4807F31
:1029880026D0E368012B3DD0002B53D103F18043BF
:1029980003F504331A6A22F001021A621A6A22F055
:1029A80004021A6233E0154B0022C3F8802405F0B4
:1029B80005F90546104B5B6A13F0020FC7D005F006
:1029C800FDF8401B0228F5D90320D2E00025D3E703
:1029D8000B4A136843F48073136005F0EFF806465A
:1029E800074B1B6813F4807FCBD105F0E7F8801BF9
:1029F8006428F5D90320BCE00010024000004242E0
:102A0800007000405F4A136A43F001031362E368F1
:102A180033B305F0D3F806465A4B1B6A13F0020F7E
:102A28002FD105F0CBF8801B41F288339842F3D9B7
:102A380003209EE0052B09D0524B1A6A22F00102AE
:102A48001A621A6A22F004021A62E0E74D4B1A6A07
:102A580042F004021A621A6A42F001021A62D6E7C8
:102A680005F0ACF80646474B1B6A13F0020F08D076
:102A780005F0A4F8801B41F288339842F3D903206B
:102A880077E0E5B9E369002B72D03E4A526802F05C
:102A98000C02082A56D0022B17D03B4B00221A668C
:102AA80005F08CF80446374B1B6813F0007F47D0BD
:102AB80005F084F8001B0228F5D9032059E0314AB3
:102AC800D36923F08053D361DCE72F4B00221A66C9
:102AD80005F074F805462B4B1B6813F0007F06D0F1
:102AE80005F06CF8401B0228F5D9032041E0236A61
:102AF800B3F5803F1AD023494B6823F47413226A34
:102B0800606A024313434B601F4B01221A6605F0AB
:102B180055F804461B4B1B6813F0007F0ED105F0D7
:102B28004DF8001B0228F5D9032022E0154A536806
:102B380023F40033A1680B435360DCE7002018E05E
:102B4800002016E0012B16D00E4B5B6803F4803191
:102B5800226A914211D103F47013626A93420ED132
:102B6800002006E001207047012002E0012000E07B
:102B7800002002B070BD0120FBE70120F9E7012029
:102B8800F7E700BF00100240000042420F4B5B68AD
:102B980003F00C02082A01D00D487047C3F38342A2
:102BA8000C49885C13F4803F0BD0084B5B68C3F377
:102BB8004043094AD35C064A02FB00F0B0FBF3F03D
:102BC8007047064B03FB00F0704700BF001002403F
:102BD80000127A001CEC00082CEC000800093D00EB
:102BE800002800F0A08070B50D460446524B1B68C3
:102BF80003F007038B420BD24F4A136823F00703F5
:102C08000B431360136803F007038B4240F08D8079
:102C1800236813F0020F17D013F0040F04D0474AAB
:102C2800536843F4E0635360236813F0080F04D03B
:102C3800424A536843F460535360404A536823F050
:102C4800F003A1680B435360236813F0010F31D0E0
:102C58006368012B20D0022B25D0384A126812F065
:102C6800020F64D035494A6822F0030213434B60CF
:102C780004F0A4FF0646314B5B6803F00C0362685E
:102C8800B3EB820F16D004F099FF801B41F2883312
:102C98009842F0D9032045E0284A126812F4003F10
:102CA800E0D101203EE0254A126812F0007FD9D118
:102CB800012037E0204B1B6803F00703AB420AD919
:102CC8001D4A136823F007032B431360136803F0AE
:102CD8000703AB422DD1236813F0040F06D0174A1F
:102CE800536823F4E063E1680B435360236813F0EF
:102CF800080F07D0114A536823F46053216943EA47
:102D0800C1035360FFF742FF0C4B5B68C3F3031327
:102D18000B4AD35CD8400B4B18600B4B1868FEF776
:102D28001FFB002070BD012070470120FAE7012039
:102D3800F8E70120F6E700BF00200240001002403B
:102D480004EC00080000002008000020014B18686F
:102D5800704700BF0000002008B5FFF7F7FF044BDD
:102D68005B68C3F30223034AD35CD84008BD00BFA5
:102D78000010024014EC000808B5FFF7E7FF044B09
:102D88005B68C3F3C223034AD35CD84008BD00BFC5
:102D98000010024014EC000870B582B004460368C5
:102DA80013F0010F36D03F4BDB6913F0805F49D138
:102DB8003C4BDA6942F08052DA61DB6903F08053F8
:102DC8000193019B0125384B1B6813F4807F3BD08E
:102DD800344B1B6A13F4407313D0626802F44072D8
:102DE8009A420ED02F4A136A23F440702F490126C5
:102DF800C1F840640026C1F84064106213F0010F66
:102E080036D1284A136A23F4407361680B4313626E
:102E1800002D3ED1236813F0020F06D0214A5368D3
:102E280023F44043A1680B435360236813F0100F49
:102E380034D01C4A536823F4800361690B43536000
:102E480000202CE00025BEE7174A136843F480737E
:102E5800136004F0B3FE0646134B1B6813F4807F1F
:102E6800B6D104F0ABFE801B6428F5D9032016E028
:102E780004F0A4FE06460B4B1B6A13F0020FC0D1E8
:102E880004F09CFE801B41F288339842F3D903205A
:102E980005E0D36923F08053D361BBE7002002B07B
:102EA80070BD00BF001002400070004000004242A8
:102EB8002DE9F04782B00546884617461E4604F0BD
:102EC8007DFE0A9B1B1A03EB060904F077FE824677
:102ED8002B4B1B68C3F3CB3309FB03F301932B681C
:102EE8009C6838EA04030CBF4FF0010C4FF0000C4B
:102EF800BC4540D0B6F1FF3FF1D004F05FFEA0EB37
:102F08000A0048450AD2B9F1000F07D0019A02B168
:102F18004A46019B013B01939146E0E72A685368C2
:102F280023F0E00353606B68B3F5827F0BD0AB6A84
:102F3800B3F5005F14D0012385F85130002385F8DC
:102F48005030032018E0AB68B3F5004F02D0B3F55A
:102F5800806FECD12A68136823F040031360E6E71A
:102F68002A68136823F4005313602A68136843F42B
:102F780000531360DFE7002002B0BDE8F08700BF10
:102F88000000002010B582B004460B4600920022D3
:102F98008021FFF78DFF08B902B010BD636D43F0C3
:102FA800200363650320F7E7002856D010B50446D0
:102FB800436A33B94368B3F5827F05D00023C36100
:102FC80002E00023036143610023A36294F85130B7
:102FD800002B3CD0022384F851302268136823F078
:102FE80040031360636803F48273A26802F4044226
:102FF8001343E26802F400621343226902F00202FA
:103008001343626902F001021343A26902F40072D9
:103018001343E26902F038021343226A02F0800285
:103028001343A26A02F40052216813430B60638BB6
:10303800226803F0040353602268D36923F4006311
:10304800D36100206065012384F8513010BD84F8F5
:103058005030204602F0CCFFBCE7012070472DE934
:10306800F04383B01F460A9D90F85030012B00F0C2
:103078001681044688469146012380F8503004F0B2
:103088009DFD064694F85130DBB26268012B0AD0E8
:10309800B2F5827F40F0F080A268002A40F0F38009
:1030A800042B40F0F280B8F1000F00F0F080B9F185
:1030B800000F00F0EE80002F00F0ED8094F8513002
:1030C800DBB2042B02D0052384F85130002363655A
:1030D800C4F83890E787A787C4F83080E786A786C2
:1030E8002364636423681A6812F0400F03D11A68D6
:1030F80042F040021A60E368B3F5006F11D06368CC
:103108000BB1012F0BD1226B236812781A73236B32
:1031180001332363E38E9BB2013B9BB2E386012715
:103128006EE063680BB1012F0BD1226B2368128804
:10313800DA60236B02332363E38E9BB2013B9BB2BD
:10314800E38601271BE023689A6812F0010F0ED06E
:10315800E28F92B25AB1DA68A36B1A80A36B02337A
:10316800A363E38F9BB2013B9BB2E387012704F083
:1031780025FD801BA84202D3B5F1FF3F1ED1E38E87
:103188009BB21BB9E38F9BB2002B5CD023689A6873
:1031980012F0020FD7D0E28E92B2002AD3D0002FBD
:1031A800D1D0226B1288DA60236B02332363E38E5B
:1031B8009BB2013B9BB2E3860027C4E7012384F856
:1031C8005130032059E023689A6812F0010F0ED09D
:1031D800E28F92B25AB1DA68A36B1A70A36B01330B
:1031E800A363E38F9BB2013B9BB2E387012704F003
:1031F800E5FC831BAB4202D3B5F1FF3F1ED1EDB115
:10320800E38E9BB213B9E38F9BB2E3B123689A684C
:1032180012F0020FD7D0E28E92B2002AD3D0002F3C
:10322800D1D0226B12781A73236B01332363E38E98
:103238009BB2013B9BB2E3860027C4E7012384F8D5
:103248005130032019E0324629462046FFF79AFEFE
:1032580070B9A36833B901932368DA6801929B684F
:103268000193019B636DC3B9012384F8513004E0D5
:1032780020236365012000E00220002384F85030F9
:1032880003B0BDE8F0830220F7E70220F5E701204C
:10329800F3E70120F1E70120EFE70120EDE7022045
:1032A800EEE700000368244A904212D002F500625B
:1032B80090420ED0B0F1804F0BD0A2F598329042D8
:1032C80007D002F58062904203D002F580629042F6
:1032D80003D123F070034A681343174A904212D06F
:1032E80002F5006290420ED0B0F1804F0BD0A2F5EB
:1032F8009832904207D002F58062904203D002F5DE
:103308008062904203D123F44073CA68134323F0C8
:1033180080034A69134303608B68C3620B68836246
:10332800054B984203D003F50063984201D10B691D
:103338000363012343617047002C0140002857D0E4
:1033480070B50D46044690F83D30002B4BD0022353
:1033580084F83D302268936823F4804323F0070300
:103368009360214651F8040BFFF79CFF21688A6897
:103378008B690E6A2868104323F4407C2CF0030CF8
:10338800AA68AB6942EA032343EA0C0323F47C43AB
:1033980023F0FC03EA69D5F80CC04CEA022C4CEA8D
:1033A800030C2A6A13032A6943EA021343EA0C034B
:1033B80026F022066A686D6942EA0512324388607F
:1033C80021688B6123681A62012384F8463084F8E7
:1033D8003E3084F83F3084F8423084F8433084F833
:1033E8003D30002070BD80F83C3002F081FFAEE730
:1033F8000120704701F01F01012303FA01FC036A51
:1034080023EA0C030362036A02FA01F10B43036225
:10341800704738B5044690F83E00C0B294F83F3083
:1034280094F84220D2B294F843C00D46B1B90128AD
:1034380049D1012A48D1022384F83E3084F8423029
:103448007DB3042D39D0012200212068FFF7D2FF77
:10345800012204212068FFF7CDFF27E0DBB25FFAE5
:103468008CFC042912D0012833D1012B2CD1012A3C
:1034780031D1BCF1010F30D1022384F83E3084F8F9
:103488003F3084F8423084F84330D9E7012B1CD10F
:10349800BCF1010F1BD1022384F83F3084F843307C
:1034A800CEE7012200212068FFF7A4FF22681368F5
:1034B80043F001031360002006E001220421206884
:1034C800FFF798FFF2E7012038BD0120FCE7184616
:1034D800FAE70120F8E71846F6E71046F4E7000097
:1034E80090F83C30012B34D010B4012380F83C30E4
:1034F800022380F83D3003685A689C6822F0700CFB
:103508000A6842EA0C025A600368134A934212D0CE
:1035180002F5006293420ED0B3F1804F0BD0A2F5B2
:103528009832934207D002F58062934203D002F5A5
:103538008062934204D124F080044A6814439C605A
:10354800012380F83D30002380F83C30184610BC39
:1035580070470220704700BF002C014010B5044698
:103568000268136923F44053C1680B4313618368ED
:103578000269134342691A430168CB6823F4B053C4
:1035880023F00C031343CB600268536923F44073A0
:1035980081690B4353610268134B9A4220D0FFF7AD
:1035A800DBFB024602EB820202EB820263689B00AD
:1035B800B2FBF3F20D48A0FB02314909642303FB77
:1035C80011231B013233A0FB03235B0903F0F00234
:1035D80002EB011203F00F03216813448B6010BD46
:1035E800FFF7CAFB0246DDE7003801401F85EB51B3
:1035F8002DE9F84305460F4616469946DDF8208022
:103608002C68246837EA04030CBF4FF0010C4FF014
:10361800000CB4452DD1B8F1FF3FF1D0B8F1000F3F
:1036280005D004F0CBFAA0EB09004045E8D92A6898
:1036380002F10C0353E8003F23F4D0730C3242E844
:1036480000310029F3D12A6802F1140353E8003F3E
:1036580023F00103143242E800310029F3D120237A
:1036680085F8413085F84230002385F84030032042
:1036780000E00020BDE8F88360B310B5044690F878
:10368800413013B3242384F841302268D36823F4EB
:103698000053D3602046FFF761FF2268136923F4C3
:1036A800904313612268536923F02A035361226807
:1036B800D36843F40053D36000206064202384F867
:1036C800413084F84230606310BD80F84030FDF727
:1036D800E5FDD7E7012070472DE9F04182B01E468D
:1036E80090F84130DBB2202B4BD104460D46904672
:1036F80000294AD00AB9012044E000234364212369
:1037080080F8413004F05AFA0746A4F82480A4F857
:103718002680A368B3F5805F02D04FF000080FE061
:103728002369FBB14FF000080AE038F8023B226831
:10373800C3F308035360E28C92B2013A92B2E28476
:10374800E38C9BB28BB100963B4600228021204639
:10375800FFF74EFFD8B9002DE7D015F8012B2368E5
:103768005A60E8E7A8460025EAE700963B460022AB
:1037780040212046FFF73CFF58B9202384F8413008
:1037880000E0022002B0BDE8F0810120FAE7032042
:10379800F8E70320F6E72DE9F04182B01E4690F8DD
:1037A8004230DBB2202B53D104460D469046002907
:1037B80052D00AB901204CE000234364222280F849
:1037C8004220036304F0FAF90746A4F82C80A4F811
:1037D8002E80A368B3F5805F02D04FF0000817E091
:1037E800236913B14FF0000812E0A84600250FE046
:1037F80023685B68C3F3080328F8023B03E02368E7
:103808005B682B700135E28D92B2013A92B2E28583
:10381800E38D9BB2BBB100963B4600222021204697
:10382800FFF7E6FED0B9002DE2D0A368B3F5805FBC
:10383800E5D013B92369002BE1D023685B6803F056
:103848007F032B70DEE7202384F84230002000E05D
:10385800022002B0BDE8F0810120FAE70320F8E772
:1038680084B001A880E80E00002004B07047034629
:103878000020A3F844004FF43F42A3F840207047CB
:10388800B0F8403023F47C535B045B0CA0F8403064
:10389800002070470020704784B0844601A880E863
:1038A8000E000123ACF840300020ACF84000ACF822
:1038B8004400ACF8500004B0704710B5034691F8C6
:1038C80000C030F82C2092B222F4EC4222F07002B0
:1038D80092B2C878032861D8DFE800F0555C025836
:1038E800002048F2800E42EA0E0223F82C2091F8BC
:1038F80000C033F82C2092B222F4E04222F0700289
:103908004CEA020242EA0E0223F82C200A7B002A23
:1039180040F0DC804A78002A51D0B3F8502092B2A7
:103928001A440C7802EB0412B1F806C04FEA5C0C9A
:103938004FEA4C0CA2F800C40C7833F8242012F09B
:10394800400F0CD033F8242092B222F4E04222F047
:10395800700242F4004242F0C00223F82420CA78E0
:10396800012A1DD0097833F8212092B222F4E042CE
:1039780022F0400282F0200242F4004242F080022B
:1039880023F8212017E142F40072AAE742F4C0624A
:103998000020A6E742F480620020A2E70120A0E709
:1039A800097833F8212092B222F4E04222F0400252
:1039B80042F4004242F0800223F82120FBE0B3F8F1
:1039C800502092B21A440C7802EB0412B1F806C0E7
:1039D8004FEA5C0C4FEA4C0CA2F808C4B3F850202C
:1039E80092B21A440C7802EB0412B2F80CC4CCF36D
:1039F800090CA2F80CC40C693E2C39D94FEA541EA4
:103A080014F01F0F01D10EF1FF3EB2F80CC41FFADB
:103A18008CFC4FEA8E2E1FFA8EFE4CEA0E0C4CF4EC
:103A2800004CA2F80CC40C7833F8242012F4804F10
:103A38000CD033F8242092B222F4E04222F0700233
:103A480042F4404242F0800223F82420097869BBFE
:103A580033F8212092B222F4804222F0700282F4DC
:103A6800405242F4004242F0800223F82120A2E0B2
:103A78004CB9B2F80C446FEA44446FEA5444A4B217
:103A8800A2F80C44CFE74FEA540C14F0010F01D010
:103A98000CF1010CB2F80C44A4B24FEA8C2C1FFABA
:103AA8008CFC44EA0C0CA2F80CC4BCE733F82120C7
:103AB80092B222F4804222F0700282F4005242F460
:103AC800004242F0800223F8212074E0CA78022ADA
:103AD80072D00C7833F8242092B222F4E24222F019
:103AE800700242F4004242F0800223F82420B3F826
:103AF800502092B21A4491F800C002EB0C12B1F8AF
:103B080008C04FEA5C0C4FEA4C0CA2F800C4B3F8AA
:103B1800502092B21A4491F800C002EB0C12B1F88E
:103B28000AC04FEA5C0C4FEA4C0CA2F808C44A7869
:103B3800002A50D10C7833F8242012F4804F0CD08E
:103B480033F8242092B222F4E04222F0700242F4C8
:103B5800404242F0800223F824200C7833F82420D5
:103B680012F0400F0CD033F8242092B222F4E04235
:103B780022F0700242F4004242F0C00223F82420EE
:103B880091F800C033F82C2092B222F4804222F03F
:103B9800700282F4405248F28004224323F82C2019
:103BA800097833F8212092B222F4E04222F0400250
:103BB800224323F8212010BD0C7833F8242092B238
:103BC80022F4E04222F0700242F4014242F0800204
:103BD80023F824208BE70C7833F8242012F4804F44
:103BE8000CD033F8242092B222F4E04222F0700282
:103BF80042F4404242F0800223F824200C7833F843
:103C0800242012F0400F0CD033F8242092B222F472
:103C1800E04222F0700242F4004242F0C00223F86F
:103C28002420CA78012A1ED00C7833F8242092B2B6
:103C380022F4E04222F0400282F0200242F40042E4
:103C480042F0800223F82420097833F8212092B228
:103C580022F4804222F0700242F4004242F08002D4
:103C680023F82120A7E70C7833F8242092B222F415
:103C7800E04222F0400242F4004242F0800223F87F
:103C88002420E1E70B7B002B46D14B7813B30A784D
:103C980030F8223013F0400F0CD030F822309BB2AD
:103CA80023F4E04323F0700343F4004343F0C003DC
:103CB80020F822300A7830F822309BB223F4E0430F
:103CC80023F0400343F4004343F0800320F82230FC
:103CD800002070470A7830F8223013F4804F0CD057
:103CE80030F822309BB223F4E04323F0700343F40E
:103CF800404343F0800320F822300A7830F822301D
:103D08009BB223F4804323F0700343F4004343F051
:103D1800800320F82230DBE74B78002B4ED10A785D
:103D280030F8223013F4804F0CD030F822309BB298
:103D380023F4E04323F0700343F4404343F080034B
:103D480020F822300A7830F8223013F0400F0CD0D7
:103D580030F822309BB223F4E04323F0700343F49D
:103D6800004343F0C00320F822300A7830F82230AC
:103D78009BB223F4E04323F0700343F4004343F081
:103D8800C00320F822300B7830F8232092B222F4B6
:103D9800804222F0700248F2800C42EA0C0220F8BD
:103DA80023200A7830F822309BB223F4E04323F032
:103DB800400343EA0C0320F8223089E70A7830F8F8
:103DC800223013F4804F0CD030F822309BB223F409
:103DD800E04323F0700343F4404343F0800320F8AA
:103DE80022300A7830F8223013F0400F0CD030F827
:103DF80022309BB223F4E04323F0700343F40043E2
:103E080043F0C00320F822300A7830F822309BB201
:103E180023F4E04323F0700343F4404343F080036A
:103E280020F822300B7830F8232092B222F4E042B6
:103E380022F0400248F2800C42EA0C0220F82320CB
:103E48000A7830F822309BB223F4804323F07003C1
:103E580043EA0C0320F822303AE74B788BB10A7812
:103E680030F822309BB223F4E04323F0400383F080
:103E7800100343F4004343F0800320F8223000206D
:103E880070470A7830F822309BB223F4804323F03D
:103E9800700383F4805343F4004343F0800320F815
:103EA8002230ECE70B7B002B4BD14B7833B30A78ED
:103EB80030F8223013F0400F0CD030F822309BB28B
:103EC80023F4E04323F0700343F4004343F0C003BA
:103ED80020F82230CB78012B33D00A7830F8223002
:103EE8009BB223F4E04323F0400383F0200343F420
:103EF800004343F0800320F8223022E00A7830F8AB
:103F0800223013F4804F0CD030F822309BB223F4C7
:103F1800E04323F0700343F4404343F0800320F868
:103F280022300A7830F822309BB223F4804323F001
:103F3800700383F4405343F4004343F0800320F8B4
:103F480022300020704711B98023A0F84C3000209F
:103F580070470020704700207047B0F8440080B2D6
:103F680070470020704710B45C1C640800EB4202E4
:103F780002F5806207E00B78487843EA002322F8CC
:103F8800043B0231013C002CF5D110BC704770B5E0
:103F980005460C464A78012A3BD00B7B002B40F0A3
:103FA800A6828B690A69934240F284829B1A8B61CC
:103FB800B5F850309BB22B44217803EB0113B3F8CA
:103FC8000C14C1F30901A3F80C143E2A40F27682BE
:103FD800510912F01F0F00D10139B3F80C2492B225
:103FE800890289B20A4342F40042A3F80C242278D9
:103FF80035F822309BB223F4804323F0700383F416
:10400800405343F4004343F0800325F82230002056
:1040180070BD8E6909698E4200D90E46237B73B341
:10402800E378022B4DD0236A9B1B2362217835F855
:10403800213013F0400F00F0F581002A40F0E281B2
:10404800B5F850309BB22B4403EB0113B3F80C24A2
:10405800C2F30902A3F80C243E2E40F2BA8171097A
:1040680016F01F0F00D10139B3F80C2492B289025F
:1040780089B20A4342F40042A3F80C24CBE1B6B259
:104088003346E28861692846FFF76DFFB5F850307E
:104098009BB22B44227803EB0213A3F80464227822
:1040A80035F822309BB223F4E04323F0400383F039
:1040B800300343F4004343F0800325F82230002006
:1040C800A6E7236A994280F06681227835F8223083
:1040D8009BB223F4E04323F0700343F4014343F01D
:1040E800800325F82230236A9B1B2362227835F847
:1040F800223013F0400F00F0A7806378B3BBB5F807
:1041080050309BB22B4403EB0213B3F80C24C2F3D8
:104118000902A3F80C243E2E0FD9710916F01F0FBF
:1041280000D10139B3F80C2492B2890289B20A434A
:1041380042F40042A3F80C241AE04EB9B3F80C2458
:104148006FEA42426FEA524292B2A3F80C240FE09F
:10415800720816F0010F00D00132B3F80C1489B2BE
:10416800920292B20A43A3F80C2401E0012B30D04A
:10417800B3B2628961692846FFF7F5FE6369334483
:104188006361236A226993422DD99B1B236263785A
:10419800002B45D1B5F850309BB22B44227803EB65
:1041A8000213B3F80424C2F30902A3F804243E2E30
:1041B8001DD9710916F01F0F00D10139B3F8042475
:1041C80092B2890289B20A4342F40042A3F8042455
:1041D80028E0B5F850309BB22B4403EB0213B2B27F
:1041E800A3F80C24C4E7002222621E46CFE74EB98A
:1041F800B3F804246FEA42426FEA524292B2A3F83B
:1042080004240FE0720816F0010F00D00132B3F851
:10421800041489B2920292B20A43A3F8042401E07A
:10422800012B06D0B3B2228961692846FFF79BFEAD
:1042380035E7B5F850309BB22B44227803EB0213D4
:10424800B2B2A3F80424EDE76378B3BBB5F85030F5
:104258009BB22B4403EB0213B3F80424C2F3090204
:10426800A3F804243E2E0FD9710916F01F0F00D1B0
:104278000139B3F8042492B2890289B20A4342F49C
:104288000042A3F804241AE04EB9B3F804246FEAF4
:1042980042426FEA524292B2A3F804240FE0720835
:1042A80016F0010F00D00132B3F8041489B292025B
:1042B80092B20A43A3F8042401E0012B30D0B3B230
:1042C800228961692846FFF74EFE636933446361BA
:1042D800236A226993422DD99B1B23626378002BA2
:1042E80045D1B5F850309BB22B44227803EB02132A
:1042F800B3F80C24C2F30902A3F80C243E2E1DD9EE
:10430800710916F01F0F00D10139B3F80C2492B2CD
:10431800890289B20A4342F40042A3F80C2428E037
:10432800B5F850309BB22B4403EB0213B2B2A3F89A
:104338000424C4E7002222621E46CFE74EB9B3F830
:104348000C246FEA42426FEA524292B2A3F80C245C
:104358000FE0720816F0010F00D00132B3F80C1408
:1043680089B2920292B20A43A3F80C2401E0012B0D
:1043780006D0B3B2628961692846FFF7F4FD8EE67C
:10438800B5F850309BB22B44227803EB0213B2B23B
:10439800A3F80C24EDE7217835F8212092B222F415
:1043A800E24222F0700242F4004242F0800225F814
:1043B8002120B5F8502092B22A44217802EB01124C
:1043C8009BB2A2F80434228961692846FFF7CBFD25
:1043D80065E64EB9B3F80C246FEA42426FEA5242DE
:1043E80092B2A3F80C2416E0720816F0010F00D060
:1043F8000132B3F80C1489B2920292B20A43A3F8BC
:104408000C2408E0B5F850309BB22B4403EB0113A1
:10441800B2B2A3F80C24B3B2628961692846FFF7E7
:10442800A2FD3CE6B2BBB5F850309BB22B4403EB7F
:104438000113B3F80424C2F30902A3F804243E2E9E
:104448000FD9710916F01F0F00D10139B3F80424F0
:1044580092B2890289B20A4342F40042A3F80424C2
:1044680021E04EB9B3F804246FEA42426FEA52429F
:1044780092B2A3F8042416E0720816F0010F00D0D7
:104488000132B3F8041489B2920292B20A43A3F833
:10449800042408E0B5F850309BB22B4403EB011319
:1044A800B2B2A3F80424B3B2228961692846FFF79F
:1044B8005AFDF4E500228A611A4679E54AB9B3F84B
:1044C8000C246FEA42426FEA524292B2A3F80C24DB
:1044D8008DE5510812F0010F00D00131B3F80C241A
:1044E80092B2890289B21143A3F80C147FE5CB7804
:1044F800022B4DD0012B40F02F8189692369994205
:1045080040F2E680C91AA161F2B9B5F8502092B21A
:104518002A44217802EB0112B2F80414C1F309010C
:10452800A2F804143E2B40F2D780580913F01F0F4D
:1045380000D10138B2F8041489B2800280B2014374
:1045480041F40041A2F804146278002A40F0F68091
:10455800B5F8502092B22A44217802EB0112B2F841
:104568000C14C1F30901A2F80C143E2B40F2CD80C3
:10457800590913F01F0F00D10139B2F80C349BB25E
:10458800890289B20B4343F40043A2F80C342EE5A8
:10459800F2B9B0F850309BB203440A7803EB021327
:1045A800B3F80424C2F30902A3F804240A693E2AD2
:1045B80031D9510912F01F0F00D10139B3F8042481
:1045C80092B2890289B20A4342F40042A3F8042451
:1045D8006378002B51D1B5F850309BB22B44227828
:1045E80003EB0213B3F80C24C2F30902A3F80C245A
:1045F80022693E2A28D9510912F01F0F00D101392A
:10460800B3F80C2492B2890289B20A4342F40042F8
:10461800A3F80C2433E04AB9B3F804246FEA424201
:104628006FEA524292B2A3F80424D1E7510812F07B
:10463800010F00D00131B3F8042490B28A0292B27B
:104648000243A3F80424C3E74AB9B3F80C246FEA79
:1046580042426FEA524292B2A3F80C240FE051088A
:1046680012F0010F00D00131B3F80C2490B28A0285
:1046780092B20243A3F80C2401E0012B1DD0E36998
:10468800002B3FF4B4AC227835F8221044F24003F2
:1046980003EA01008B4302D000287FF4A8AC35F868
:1046A80022309BB223F4E04323F0700343F4004329
:1046B80043F0C00325F8223099E4B5F850309BB296
:1046C8002B44227803EB0213228AA3F80C24D6E7A2
:1046D8000023A3610B4617E74BB9B2F804146FEA3D
:1046E80041416FEA514189B2A2F804142CE75908F4
:1046F80013F0010F00D00131B2F8040480B289022E
:1047080089B20143A2F804141EE74BB9B2F80C347D
:104718006FEA43436FEA53439BB2A2F80C3466E452
:10472800590813F0010F00D00131B2F80C3498B2D7
:104738008B029BB20343A2F80C3458E4012A7FF49D
:1047480056ACB5F8502092B22A44217802EB0112F7
:104758009BB2A2F80C344AE4012059E410B45C0876
:1047680000EB420000F5806007E030F8042B0A7087
:10477800C2F307224A700231013C002CF5D113F034
:10478800010F01D003880B7010BC704708B54FF4B7
:1047980080610F48FCF7BCFF18B90E4B1B78012B42
:1047A80007D04FF480610A48FCF7B2FF012805D012
:1047B80008BD084B187003F007FAF9E7054B1B789A
:1047C800002BF5D1034B187003F0FEF9F0E700BF9A
:1047D800001801400C00002008B501F0E3FC10F0BF
:1047E800030F08D183B233B1042B05D07C2B14D02E
:1047F800002001F0DFFC08BD4FF480610F48FCF792
:1048080087FF18B1022003F0DFF9F1E7042003F075
:10481800DBF9002001F0CEFCEDE74FF4806107489A
:10482800FCF776FF18B1032003F0CEF9E0E7052086
:1048380003F0CAF9002001F0BDFCDCE700180140D4
:1048480000B587B001F070FC0C4B9A6942F0400249
:104858009A619B6903F040030193019B4FF48063C5
:10486800029300230393012304930323059302A9CE
:104878000348FCF72DFE07B05DF804FB001002406A
:104888000018014008B5FFF781FFFFF7A5FF08BD35
:1048980008B54FF400410F48FCF73AFF18B90E4B22
:1048A8001B78012B07D04FF400410A48FCF730FF72
:1048B800012805D008BD084B187003F0B1F9F9E7D5
:1048C800054B1B78002BF5D1034B187003F0A8F9A2
:1048D800F0E700BF001401400D00002008B501F00A
:1048E800ABFC10F0030F08D183B233B1042B05D011
:1048F8007C2B14D0002001F0A7FC08BD4FF4004128
:104908000F48FCF705FF18B1022003F089F9F1E719
:10491800042003F085F9002001F096FCEDE74FF440
:1049280000410748FCF7F4FE18B1032003F078F9BA
:10493800E0E7052003F074F9002001F085FCDCE7CE
:104948000014014000B587B001F03AFC0C4B9A699D
:1049580042F020029A619B6903F020030193019BB6
:104968004FF400430293002303930123049303238A
:10497800059302A90348FCF7ABFD07B05DF804FBFB
:10498800001002400014014008B5FFF781FFFFF74F
:10499800A5FF08BD08B54FF480410F48FCF7B8FEE5
:1049A80018B90E4B1B78012B07D04FF480410A48E9
:1049B800FCF7AEFE012805D008BD084B187003F0BF
:1049C8003DF9F9E7054B1B78002BF5D1034B18701F
:1049D80003F034F9F0E700BF001401400E00002096
:1049E80008B501F077FC10F0030F08D183B233B19A
:1049F800042B05D07C2B14D0002001F073FC08BDDB
:104A08004FF480410F48FCF783FE18B1022003F0F1
:104A180015F9F1E7042003F011F9002001F062FC18
:104A2800EDE74FF480410748FCF772FE18B1032008
:104A380003F004F9E0E7052003F000F9002001F095
:104A480051FCDCE70014014000B587B001F002FC1E
:104A58000C4B9A6942F020029A619B6903F020038B
:104A68000193019B4FF48043029300230393012396
:104A780004930323059302A90348FCF729FD07B013
:104A88005DF804FB001002400014014008B5FFF770
:104A980081FFFFF7A5FF08BD38B5022816D0032807
:104AA80016D005240B4D002210212846FCF737FEAE
:104AB800204601F009FAFF2001F006FA0446012217
:104AC80010212846FCF72BFE204638BD3524E9E79F
:104AD8001524E7E70010014008B50120FFF7DCFFC7
:104AE80010F0010FF9D108BD70B50C46022814D09A
:104AF800032814D001260B4D002210212846FCF76C
:104B08000EFE304601F0E0F9204601F0DDF9012201
:104B180010212846FCF703FE70BD3126EBE711266D
:104B2800E9E700BF0010014010B504460A4B1A8897
:104B38004EF618739A420BD0C4F3074001F0C4F93B
:104B4800C4F3072001F0C0F9E0B201F0BDF910BDCF
:104B5800000E01F0B9F9EFE71000002038B5002485
:104B6800104D224610212846FCF7D9FD902001F06F
:104B7800ABF9204601F0A8F9204601F0A5F9204636
:104B880001F0A2F9FF2001F09FF90402FF2001F0D3
:104B98009BF90443A4B2012210212846FCF7BFFD6B
:104BA800204638BD0010014070B506460C46154633
:104BB800002210210C48FCF7B2FD032001F084F913
:104BC8002046FFF7B1FF002405E0FF2001F07CF943
:104BD80030550134A4B2AC42F7D301221021024867
:104BE800FCF79DFD70BD00BF0010014010B5074CDB
:104BF800002210212046FCF792FD062001F064F9FE
:104C0800012210212046FCF78AFD10BD001001404A
:104C180070B586B0214B9A6942F010029A619B697F
:104C280003F010030193019B1026029601240394BC
:104C38000494032305931A4D02A92846FCF748FC5F
:104C4800224631462846FCF76AFD01F007F920465E
:104C580001F050F9FFF782FF124B18804EF61873D7
:104C6800984201D006B070BD0320FFF715FF10F081
:104C7800010FF7D1FFF7BAFF02210320FFF734FF36
:104C8800002231462846FCF74AFDB72001F01CF9FE
:104C9800012231462846FCF742FDE3E700100240B6
:104CA800001001401000002070B506460C4615465D
:104CB800FFF79CFF002210210C48FCF730FD022072
:104CC80001F002F92046FFF72FFF002404E0305DD1
:104CD80001F0FAF80134A4B2AC42F8D30122102151
:104CE8000248FCF71CFDFFF7F7FE70BD00100140FD
:104CF800F8B507460E461446CDB2C5F58075ADB277
:104D0800954203D3154601E04FF480752A46314693
:104D18003846FFF7C9FFAC4208D02F442E44641B25
:104D2800A4B2B4F5807FEFD82546EFE7F8BD0000C0
:104D380038B50403FFF75AFFFFF7CEFE094D0022EE
:104D480010212846FCF7EBFC202001F0BDF8204696
:104D5800FFF7EAFE012210212846FCF7E0FCFFF7E6
:104D6800BBFE38BD001001402DE9F04706468946D4
:104D780017464FEA1138C1F30B05C5F58054A4B2A4
:104D8800944204D3144602E04FF4805400254FEABD
:104D9800083A4FF4805251461B48FFF705FF00239D
:104DA8009C4207D9EA181849525CFF2A02D10133FC
:104DB8009BB2F5E79C4211D8224649463046FFF798
:104DC80097FFA7421ED008F101082644A1443F1BC3
:104DD800BFB2B7F5805FD7D83C46D7E74046FFF764
:104DE800A7FF002305E05919F05C074A88540133EE
:104DF8009BB29C42F7D84FF4805251460248FFF7C5
:104E080077FFDEE7BDE8F0872C4700204368934230
:104E18000AD25A1C426001EB03104FF0FF33836043
:104E280043600023C36070470020704701704260F0
:104E380083600023C3607047F8B5064608461946E4
:104E480037680BE05D2C67D07D2C65D03A2C63D099
:104E5800203CE4B25E2C5BD801353560356895425C
:104E68005AD2445D002C57D02C2CEBD8092CEFD308
:104E7800A4F1090CBCF1230FEAD801A353F82CF0D4
:104E8800214F0008214F0008594E0008594E0008CC
:104E9800214F0008594E0008594E0008594E000885
:104EA800594E0008594E0008594E0008594E00083E
:104EB800594E0008594E0008594E0008594E00082E
:104EC800594E0008594E0008594E0008594E00081E
:104ED800594E0008594E0008594E0008214F000845
:104EE800594E0008594E0008594E0008594E0008FE
:104EF800594E0008594E0008594E0008594E0008EE
:104F0800594E0008594E0008594E0008214F000814
:104F180037606FF001000EE071B1069A3046FFF776
:104F280075FF68B133683A460821FFF77FFF336899
:104F3800013B33600020F8BD013D35600020FAE7F1
:104F480037604FF0FF30F6E770B505460668701C0D
:104F5800286048E0002B00F09980049A19462846FA
:104F6800FFF754FF30B12B68721C0421FFF75EFF76
:104F780000200AE02E604FF0FF3006E022282FD0F4
:104F88002F282DD02E606FF0010070BD01342C60E9
:104F98004FF0000E03E0013028600EF1010EBEF163
:104FA800030F1ADC2868904217D20C5CACB1A4F14C
:104FB800300C5FFA8CFCBCF1090FECD9A4F1410C60
:104FC8005FFA8CFCBCF1050FE5D9613CE4B2052C15
:104FD800E1D92E606FF00100D7E728680138286012
:104FE8002868013028602C6894424BD2085D00285C
:104FF80048D02228AED05C28F2D101349442EFD2B6
:105008002C60085D7528BDD85C28B7D35C38192892
:10501800B8D80FF2080C5CF820F000BFE94F000880
:105028008D4F00088D4F00088D4F00088D4F0008E8
:105038008D4F0008E94F00088D4F00088D4F00087C
:105048008D4F0008E94F00088D4F00088D4F00086C
:105058008D4F00088D4F00088D4F00088D4F0008B8
:105068008D4F0008E94F00088D4F00088D4F00084C
:105078008D4F0008E94F00088D4F0008E94F0008E0
:10508800954F00082E606FF002007EE700207CE755
:105098002DE9F04782B00546884617461E46DDF8DA
:1050A80028A0D0F8049096E07B2C27D01AD97D2C24
:1050B8001CD0CDF800A033463A4641462846FFF7B3
:1050C800BBFE0028C0F24A8109F10109AB68B3F1BF
:1050D800FF3F7DD0002E7BD006EB0313DA68013248
:1050E800DA6075E05B2C09D05D2CE2D1002E6FD020
:1050F8007D2C25D002206C68013C24E009F10109CF
:10510800002E65D0524631462846FFF77FFE0246FC
:10511800002800F01B81AB68B3F1FF3F04D006EB19
:105128000313D9680131D9607B2C07D0022313708F
:105138002B6853606B68013BAB6049E00123F6E7DD
:105148000120D8E7013C002C12DB06EB0412516861
:10515800B1F1FF3FF6D09168B1F1FF3FF2D111787C
:10516800814240F0F6804FF0FF31A960013393602F
:10517800B4F1FF3F03D16FF00109E3E0013C002CDB
:1051880026DB06EB04135A68B2F1FF3FF6D09B68A2
:10519800B3F1FF3FF2D1AC601AE0CDF800A033467E
:1051A8003A4641462846FFF7CFFE0028C0F2D48091
:1051B80009F10109AB68B3F1FF3F09D046B106EB2D
:1051C8000313DA680132DA6002E06B68013BAB6016
:1051D8002B6801332B602B68BB4280F0A08018F845
:1051E8000340002C00F09B803A2C3FF65DAF092C61
:1051F800FFF45FAF093C312C3FF65BAF01A353F8D6
:1052080024F000BFD9510008D9510008BB5000084C
:10521800BB500008D9510008BB500008BB5000081B
:10522800BB500008BB500008BB500008BB5000082A
:10523800BB500008BB500008BB500008BB5000081A
:10524800BB500008BB500008BB500008BB5000080A
:10525800BB500008BB500008BB500008BB500008FA
:10526800D9510008BB500008A3510008BB500008E2
:10527800BB500008BB500008BB500008BB500008DA
:10528800BB500008BB500008BB500008BB500008CA
:10529800D5520008BB500008BB500008BB5000089E
:1052A800BB500008BB500008BB500008BB500008AA
:1052B800BB500008BB500008BB500008BB5000089A
:1052C800BB500008BB500008D3510008002E3FF423
:1052D8007FAFAB68B3F1FF3F3FF47AAF1B01F35CDC
:1052E800022B3FF475AF012B3FF472AF6A68013AA5
:1052F80000E0013A002AFFF66BAF130106EB02113A
:10530800F35C013BDBB2012BF3D84B68B3F1FF3FF1
:10531800EFD08B68B3F1FF3FEBD1AA6058E78EB1AD
:105328006B68013B00E0013B002B0BDB06EB031233
:105338005168B1F1FF3FF6D09268B2F1FF3FF2D168
:105348006FF00209484602B0BDE8F0874FF0FF3918
:10535800F8E76FF00109F5E78146F3E78146F1E7E1
:105368000023036043604FF0FF3383607047000001
:1053780000B587B00D4B9A6942F020029A619B698B
:1053880003F020030193019B4FF4E063029303238E
:10539800059301230393049302A90548FCF798F8A1
:1053A80000F0C4FD07B05DF804FB00BF0010024028
:1053B8000014014070B505461446F9B101224FF4B6
:1053C80000711248FCF7ABF9114B03EBC402968845
:1053D80053F83440002231462046FCF7A0F928460D
:1053E80000F0C8FD012231462046FCF798F9012259
:1053F8004FF400710548FCF792F970BD00224FF494
:1054080000710248FCF78BF9DEE700BF0014014089
:105418002420010870B506460D460024002C00DD46
:1054280070BDE2B229463046FFF7C4FF0134F5E704
:1054380010B5FFF79DFF884C00224FF4807120467D
:10544800FCF76DF9C820FBF7C3FF01224FF4807108
:105458002046FCF764F900211120FFF7DBFF00214B
:105468003620FFF7D7FF01217020FFF7D3FF002177
:105478003A20FFF7CFFF01210520FFF7CBFF0021DE
:10548800B220FFF7C7FF01210C20FFF7C3FF01215E
:105498000C20FFF7BFFF01210020FFF7BBFF012110
:1054A8003320FFF7B7FF01213320FFF7B3FF0021B7
:1054B800B720FFF7AFFF01213520FFF7ABFF002131
:1054C800BB20FFF7A7FF01213520FFF7A3FF00212D
:1054D800C020FFF79FFF01212C20FFF79BFF002131
:1054E800C220FFF797FF01210846FFF793FF00212D
:1054F800C320FFF78FFF01211320FFF78BFF002147
:10550800C420FFF787FF01212020FFF783FF002138
:10551800C620FFF77FFF01210F20FFF77BFF002147
:10552800D020FFF777FF0121A420FFF773FF0121A7
:10553800A120FFF76FFF0021D620FFF76BFF0121A5
:10554800A120FFF767FF0021E020FFF763FF01219B
:10555800F020FFF75FFF01210020FFF75BFF01212B
:105568000420FFF757FF01210420FFF753FF012113
:105578000420FFF74FFF01210520FFF74BFF012112
:105588002920FFF747FF01213320FFF743FF0121BF
:105598003E20FFF73FFF01213820FFF73BFF0121A5
:1055A8001220FFF737FF01211220FFF733FF0121F7
:1055B8002820FFF72FFF01213020FFF72BFF0021C4
:1055C800E120FFF727FF0121F020FFF723FF01214A
:1055D8000720FFF71FFF01210A20FFF71BFF01210A
:1055E8000D20FFF717FF01210B20FFF713FF012103
:1055F8000720FFF70FFF01212820FFF70BFF0121EC
:105608003320FFF707FF01213E20FFF703FF0121A9
:105618003620FFF7FFFE01211420FFF7FBFE0121D2
:105628001420FFF7F7FE01212920FFF7F3FE0121DF
:105638003220FFF7EFFE00212120FFF7EBFE0021CB
:105648001120FFF7E7FE7820FBF7C2FE0021292092
:10565800FFF7E0FE10BD00BF0014014038B5044656
:105668000D460A460121000AFFF7A4FE2A46012139
:10567800E0B2FFF79FFE38BD2DE9F04180460E46A7
:1056880017461D469DF81840224600212A20FFF79C
:1056980091FE21464046FFF7E1FF21463846FFF7D5
:1056A800DDFF224600212B20FFF784FE06F12200B1
:1056B800214680B2FFF7D2FF05F12200214680B2D1
:1056C800FFF7CCFF224600212C20FFF773FEBDE830
:1056D800F0812DE9F04F83B093469946DDF830808C
:1056E8009DF83470821892B2CB189BB2013B013AF4
:1056F80000979BB292B2FFF7BFFF0025AA4616E0BB
:105708006E003A46012118F81500FFF753FE0136DE
:105718003A46012118F80600FFF74CFE013501341E
:10572800A4B24C45ECD30AF1010A1FFA8AFADA4509
:1057380001D20024F5E703B0BDE8F08F30B583B09F
:1057480015461C4600930B460246FFF795FF214677
:105758002846FFF783FF03B030BD2DE9F04782B03C
:105768008246884615469946BDF828709DF82C60F3
:10577800013B013A00969BB292B2FFF77DFF0BE026
:1057880031463846FFF76AFF0134A4B2AC42F7D37A
:1057980008F101081FFA88F8C84501D25446F5E710
:1057A80002B0BDE8F08700002DE9F04F8BB0064647
:1057B800039007910493BDF8503006939DF8543038
:1057C8001D4605939DF858909DF85CB05F0813F04E
:1057D8000E0318BF012303EB151305FB03F308930E
:1057E800203AD3B209932B4600EB550292B20B44F0
:1057F8009BB2013B013ACDF800B09BB292B2FFF7E1
:105808003BFF4FF0000A55464BE0099B03EB43036F
:10581800354A02EB830313F80A8000241EE0334B59
:10582800099A03EB021313F80A80F6E7099B03EBC6
:1058380043032F4A02EB031313F80A80EDE7594696
:105848000698FFF70BFF0135EDB2B5FBF7F307FB41
:10585800135313F0FF0342D00134E4B2072C1CD8D1
:10586800B9F1000F09D148FA04F313F0010FE6D09B
:1058780059460498FFF7F2FEE5E748FA04F313F0F7
:10588800010F24D10136B6B2039BF31ABB42E3D110
:10589800079B01339BB20793039E0AF1010A1FFA83
:1058A8008AFA089B9A451CD2059B0C2BADD0059B08
:1058B800102BB4D0059B182BB8D0059B202B10D1EA
:1058C8000C4B099A03EB821313F80A80A5E75B4691
:1058D800049A9DF81C10F0B2FFF730FFD2E71D467E
:1058E800DBE70BB0BDE8F08F30EC0008A4F000084F
:1058F80094F60008640801082DE9F04F85B00446C5
:10590800884615461F46BDF838B09DF83C609DF89E
:1059180040A09DF844900FE0CDF80C90CDF808A079
:105928000196CDF800B03B4641462046FFF73CFFC4
:1059380004EB5604A4B201352A78002AECD105B04C
:10594800BDE8F08F38B5044610B1012C0ED038BD33
:105958000D4D00224FF480612846FBF7E0FE01223E
:105968004FF400612846FBF7DAFEEEE7064C012209
:105978004FF480612046FBF7D2FE00224FF400610D
:105988002046FBF7CCFEE2E7000C014008B530B139
:1059980001280AD002280ED0032812D008BD4FF4DF
:1059A80080510B48FBF7B4FEF8E74FF40051084864
:1059B800FBF7AEFEF2E74FF480410548FBF7A8FE7F
:1059C800ECE74FF400410248FBF7A2FEE6E700BF10
:1059D8000018014070B506460D4600242846FFF71A
:1059E800D5FF58B90134E4B20A20FBF7F1FC322C98
:1059F800F4D92946304602F0B1FCEFE770BD00004B
:105A0800F0B587B000250295039504950595154CCA
:105A1800A36943F00803A361A36903F00803009393
:105A2800009B4FF4406302930127039703260596D2
:105A380002A90D48FBF74CFDA36943F04003A3619D
:105A4800A36903F040030193019B4FF47043029351
:105A580003950497059602A90448FBF739FD07B09A
:105A6800F0BD00BF00100240000C014000180140CA
:105A780038B500253CE02046FFF788FF012821D0F3
:105A880021462846FFF7A6FF0134E4B2032C2DD89F
:105A98002046FFF77BFF0028EDD1194B1B8804EB4C
:105AA800850243FA02F111F0010FE4D0012101FA55
:105AB80002F223EA0203124A13802146284602F022
:105AC8003BFCDDE70E4B1B8804EB850243FA02F131
