:020000040800F2
:100000000000012021130008CD110008CF110008C5
:10001000D1110008D3110008D5110008000000001C
:10002000000000000000000000000000D7110008E0
:10003000D911000800000000DB110008DD110008E4
:1000400069130008691300086913000869130008A0
:10005000691300086913000869130008F511000806
:100060006913000869130008691300086913000880
:100070006913000869130008691300086913000870
:100080006913000869130008691300086913000860
:10009000E51100086913000869130008FF11000842
:1000A0006913000869130008691300086913000840
:1000B0006913000869130008691300086913000830
:1000C0006913000869130008691300086913000820
:1000D0006913000869130008691300086913000810
:1000E0006913000869130008691300086913000800
:1000F00069130008691300086913000869130008F0
:1001000069130008691300086913000869130008DF
:1001100069130008691300086913000869130008CF
:1001200069130008691300086913000869130008BF
:1001300000000000000000000000000000000000BF
:1001400000000000000000000000000000000000AF
:10015000000000000000000000000000000000009F
:10016000000000000000000000000000000000008F
:10017000000000000000000000000000000000007F
:10018000000000000000000000000000000000006F
:10019000000000000000000000000000000000005F
:1001A000000000000000000000000000000000004F
:1001B000000000000000000000000000000000003F
:1001C000000000000000000000000000000000002F
:1001D000000000000000000000000000000000001F
:0401E0005FF8E0F1F3
:1001E80010B5054C237833B9044B13B10448AFF369
:1001F80000800123237010BD200B002000000000A8
:10020800B40E010808B5034B1BB103490348AFF30B
:10021800008008BD00000000240B0020B40E010877
:1002280053B94AB9002908BF00281CBF4FF0FF3155
:100238004FF0FF3000F076B9ADF1080C6DE904CE4F
:1002480000F006F8DDF804E0DDE9022304B07047A9
:100258002DE9F047089E0D4604468846002B4DD1EF
:100268008A42944668D9B2FA82F252B101FA02F38C
:10027800C2F1200120FA01F10CFA02FC41EA03085C
:1002880094404FEA1C41B8FBF1F71FFA8CFE01FBC2
:10029800178807FB0EF0230C43EA084398420AD953
:1002A8001CEB030307F1FF3580F01E81984240F2F2
:1002B8001B81023F63441B1AB3FBF1F001FB1033AF
:1002C80000FB0EFEA4B244EA0344A6450AD91CEB7F
:1002D800040400F1FF3380F00981A64540F206814D
:1002E800644402380021A4EB0E0440EA07401EB122
:1002F8000023D440C6E90043BDE8F0878B4208D903
:10030800002E00F0EE800021C6E900050846BDE891
:10031800F087B3FA83F100294AD1AB4202D3824273
:1003280000F2FC80841A65EB030301209846002E36
:10033800E2D0C6E90048DFE702B9FFDEB2FA82F28E
:10034800002A40F09180A1EB0C0001214FEA1C47E4
:100358001FFA8CFEB0FBF7F307FB1300250C45EAE8
:1003680000450EFB03F0A84208D91CEB050503F174
:10037800FF3802D2A84200F2CE8043462D1AB5FBC0
:10038800F7F007FB10550EFB00FEA4B244EA054443
:10039800A64508D91CEB040400F1FF3502D2A64596
:1003A80000F2B6802846A4EB0E0440EA03409EE71C
:1003B800C1F120078B4022FA07FC4CEA030C25FA0E
:1003C80007FA4FEA1C49BAFBF9F820FA07F309FBC8
:1003D80018AA8D401FFA8CFE1D4300FA01F308FB92
:1003E8000EF02C0C44EA0A44A04202FA01F20BD99E
:1003F8001CEB040408F1FF3A80F08880A04240F228
:100408008580A8F102086444241AB4FBF9F009FBBA
:10041800104400FB0EFEADB245EA0444A64508D9D7
:100428001CEB040400F1FF356CD2A6456AD90238EA
:10043800644440EA0840A0FB0295A4EB0E04AC42D9
:10044800C846AE4656D353D0002E69D0B3EB080247
:1004580064EB0E0422FA01F304FA07F71F43CC40B9
:10046800C6E90074002147E70CFA02FCC2F120013A
:1004780025FA01F34FEA1C4720FA01F195400D4394
:10048800B3FBF7F107FB11331FFA8CFE280C40EA87
:10049800034001FB0EF3834204FA02F408D91CEB73
:1004A800000001F1FF382FD283422DD90239604470
:1004B800C01AB0FBF7F307FB1300ADB245EA0045DD
:1004C80003FB0EF0A84208D91CEB050503F1FF3821
:1004D80016D2A84214D9023B6544281A43EA0141BE
:1004E80038E73146304607E72F46E4E61846F9E68E
:1004F8004B45A9D2B9EB020865EB0C0E0138A3E70E
:100508004346EAE7284694E74146D1E7D0467BE7E9
:100518006444023847E7023B65442FE7084606E78C
:100528003146E9E6704700BF844641EA000313F00C
:10053800030349D1403A23D30B6803604B684360F7
:100548008B688360CB68C3600B6903614B69436147
:100558008B698361CB69C3610B6A03624B6A43622F
:100568008B6A8362CB6AC3620B6B03634B6B436317
:100578008B6B8363CB6BC36340304031403ADBD233
:1005880030320BD30B6803604B6843608B68836021
:10059800CB68C36010301031103AF3D20C3205D357
:1005A80051F8043B40F8043B043AF9D2043208D02D
:1005B800D2071CBF11F8013B00F8013B01D30B889F
:1005C80003806046704700BF082A13D38B07B1D059
:1005D80010F00303AED0C3F10403D21ADB071CBF2B
:1005E80011F8013B00F8013BA4D331F8023B20F895
:1005F800023B9FE7043AD9D3013A11F8013B00F8CE
:10060800013BF9D20B7803704B7843708B78837079
:100618006046704781F0004102E000BF83F000436C
:1006280030B54FEA41044FEA430594EA050F08BF85
:1006380090EA020F1FBF54EA000C55EA020C7FEA49
:10064800645C7FEA655C00F0E2804FEA5454D4EBC6
:100658005555B8BF6D420CDD2C4480EA020281EA90
:10066800030382EA000083EA010180EA020281EAC8
:100678000303362D88BF30BD11F0004F4FEA01311A
:100688004FF4801C4CEA113102D0404261EB410129
:1006980013F0004F4FEA03334CEA133302D05242AF
:1006A80063EB430394EA050F00F0A780A4F101046B
:1006B800D5F1200E0DDB02FA0EFC22FA05F28018A5
:1006C80041F1000103FA0EF2801843FA05F359418B
:1006D8000EE0A5F120050EF1200E012A03FA0EFC0A
:1006E80028BF4CF0020C43FA05F3C01851EBE37134
:1006F80001F0004507D54FF0000EDCF1000C7EEB51
:1007080000006EEB0101B1F5801F1BD3B1F5001F8E
:100718000CD349085FEA30004FEA3C0C04F10104AD
:100728004FEA445212F5800F80F09A80BCF1004FD6
:1007380008BF5FEA500C50F1000041EB045141EA58
:10074800050130BD5FEA4C0C404141EB0101013C21
:1007580028BFB1F5801FE9D291F0000F04BF014610
:100768000020B1FA81F308BF2033A3F10B03B3F1E2
:1007780020020CDA0C3208DD02F1140CC2F10C0272
:1007880001FA0CF021FA02F10CE002F11402D8BFD0
:10079800C2F1200C01FA02F120FA0CFCDCBF41EA9C
:1007A8000C019040E41AA2BF01EB0451294330BD6B
:1007B8006FEA04041F3C1CDA0C340EDC04F1140448
:1007C800C4F1200220FA04F001FA02F340EA03001F
:1007D80021FA04F345EA030130BDC4F10C04C4F165
:1007E800200220FA02F001FA04F340EA0300294645
:1007F80030BD21FA04F0294630BD94F0000F83F48F
:10080800801306BF81F480110134013D4EE77FEA71
:10081800645C18BF7FEA655C29D094EA050F08BFBD
:1008280090EA020F05D054EA000C04BF194610469E
:1008380030BD91EA030F1EBF0021002030BD5FEAE2
:10084800545C05D14000494128BF41F0004130BD0A
:1008580014F580043CBF01F5801130BD01F000455E
:1008680045F0FE4141F470014FF0000030BD7FEAD1
:10087800645C1ABF194610467FEA655C1CBF0B46CC
:10088800024650EA013406BF52EA033591EA030FE3
:1008980041F4002130BD00BF90F0000F04BF0021DB
:1008A800704730B54FF4806404F132044FF000050E
:1008B8004FF0000150E700BF90F0000F04BF002187
:1008C800704730B54FF4806404F1320410F00045ED
:1008D80048BF40424FF000013EE700BF42004FEAE8
:1008E800E2014FEA31014FEA02701FBF12F07F4365
:1008F80093F07F4F81F06051704732F07F4208BF1C
:10090800704793F07F4F04BF41F40021704730B522
:100918004FF4607401F0004521F000411CE700BF6E
:1009280050EA010208BF704730B54FF000050AE0F1
:1009380050EA010208BF704730B511F0004502D5F2
:10094800404261EB41014FF4806404F132045FEAF4
:10095800915C3FF4D8AE4FF003025FEADC0C18BF9D
:1009680003325FEADC0C18BF033202EBDC02C2F18F
:10097800200300FA03FC20FA02F001FA03FE40EA21
:100988000E0021FA02F11444BDE600BF70B54FF025
:10099800FF0C4CF4E06C1CEA11541DBF1CEA135503
:1009A80094EA0C0F95EA0C0F00F0DEF82C4481EA6B
:1009B800030621EA4C5123EA4C5350EA013518BF8B
:1009C80052EA033541F4801143F4801338D0A0FB78
:1009D80002CE4FF00005E1FB02E506F00042E0FB25
:1009E80003E54FF00006E1FB03569CF0000F18BF2B
:1009F8004EF0010EA4F1FF04B6F5007F64F54074D3
:100A080004D25FEA4E0E6D4146EB060642EAC62165
:100A180041EA55514FEAC52040EA5E504FEACE2ED2
:100A2800B4F1FD0C88BFBCF5E06F1ED8BEF1004FD5
:100A380008BF5FEA500E50F1000041EB045170BD51
:100A480006F0004646EA010140EA020081EA030195
:100A5800B4EB5C04C2BFD4EB0C0541EA045170BD91
:100A680041F480114FF0000E013C00F3AB8014F10B
:100A7800360FDEBF002001F0004170BDC4F1000454
:100A8800203C35DA0C341BDC04F11404C4F12005D5
:100A980000FA05F320FA04F001FA05F240EA020030
:100AA80001F0004221F0004110EBD37021FA04F666
:100AB80042EB06015EEA430E08BF20EAD37070BD20
:100AC800C4F10C04C4F1200500FA04F320FA05F07F
:100AD80001FA04F240EA020001F0004110EBD37081
:100AE80041F100015EEA430E08BF20EAD37070BDF1
:100AF800C4F1200500FA05F24EEA020E20FA04F3CA
:100B080001FA05F243EA020321FA04F001F0004178
:100B180021FA04F220EA020000EBD3705EEA430EE9
:100B280008BF20EAD37070BD94F0000F0FD101F018
:100B38000046400041EB010111F4801F08BF013C51
:100B4800F7D041EA060195F0000F18BF704703F08F
:100B58000046520043EB030313F4801F08BF013D16
:100B6800F7D043EA0603704794EA0C0F0CEA1355D2
:100B780018BF95EA0C0F0CD050EA410618BF52EA8C
:100B88004306D1D181EA030101F000414FF0000092
:100B980070BD50EA410606BF1046194652EA4306A0
:100BA80019D094EA0C0F02D150EA013613D195EA14
:100BB8000C0F05D152EA03361CBF104619460AD15C
:100BC80081EA030101F0004141F0FE4141F4700166
:100BD8004FF0000070BD41F0FE4141F4780170BD56
:100BE80070B54FF0FF0C4CF4E06C1CEA11541DBFBB
:100BF8001CEA135594EA0C0F95EA0C0F00F0A7F8BD
:100C0800A4EB050481EA030E52EA03354FEA0131E9
:100C180000F088804FEA03334FF0805545EA1313FC
:100C280043EA12634FEA022245EA111545EA1065C4
:100C38004FEA00260EF000419D4208BF964244F15B
:100C4800FD0404F5407402D25B084FEA3202B61A7A
:100C580065EB03055B084FEA32024FF480104FF44E
:100C6800002CB6EB020E75EB030E22BFB61A7546C2
:100C780040EA0C005B084FEA3202B6EB020E75EB55
:100C8800030E22BFB61A754640EA5C005B084FEABD
:100C98003202B6EB020E75EB030E22BFB61A75468A
:100CA80040EA9C005B084FEA3202B6EB020E75EB95
:100CB800030E22BFB61A754640EADC0055EA060E56
:100CC80018D04FEA051545EA16754FEA06164FEA99
:100CD800C30343EA52734FEAC2025FEA1C1CC0D145
:100CE80011F4801F0BD141EA00014FF000004FF0D2
:100CF800004CB6E711F4801F04BF01430020B4F193
:100D0800FD0C88BFBCF5E06F3FF6AFAEB5EB030C4A
:100D180004BFB6EB020C5FEA500C50F1000041EB47
:100D2800045170BD0EF0004E4EEA113114EB5C0414
:100D3800C2BFD4EB0C0541EA045170BD41F48011E7
:100D48004FF0000E013C90E645EA060E8DE60CEAEF
:100D5800135594EA0C0F08BF95EA0C0F3FF43BAF0C
:100D680094EA0C0F0AD150EA01347FF434AF95EAC3
:100D78000C0F7FF425AF104619462CE795EA0C0FA7
:100D880006D152EA03353FF4FDAE1046194622E774
:100D980050EA410618BF52EA43067FF4C5AE50EA4E
:100DA80041047FF40DAF52EA43057FF4EBAE12E73E
:100DB8004FF0FF3C06E000BF4FF0010C02E000BF1F
:100DC8004FF0010C4DF804CD4FEA410C7FEA6C5C02
:100DD8004FEA430C18BF7FEA6C5C1BD001B050EAA5
:100DE800410C0CBF52EA430C91EA030F02BF90EA90
:100DF800020F0020704710F1000F91EA030F58BF4F
:100E0800994208BF90422CBFD8176FEAE37040F0B0
:100E1800010070474FEA410C7FEA6C5C02D150EA4E
:100E2800013C07D14FEA430C7FEA6C5CD6D152EA09
:100E3800033CD3D05DF8040B704700BF84461046CE
:100E480062468C461946634600E000BF01B5FFF7CD
:100E5800B7FF002848BF10F1000F01BD4DF808ED9D
:100E6800FFF7F4FF0CBF012000205DF808FB00BF6E
:100E78004DF808EDFFF7EAFF34BF012000205DF8C8
:100E880008FB00BF4DF808EDFFF7E0FF94BF012015
:100E980000205DF808FB00BF4DF808EDFFF7CEFF16
:100EA80094BF012000205DF808FB00BF4DF808ED55
:100EB800FFF7C4FF34BF012000205DF808FB00BF26
:100EC8004FEA410C7FEA6C5C02D150EA013C0AD13E
:100ED8004FEA430C7FEA6C5C02D152EA033C02D130
:100EE8004FF0000070474FF0010070474FEA410291
:100EF80012F5001215D211D56FF47873B3EB625264
:100F080012D94FEAC12343F0004343EA505311F08A
:100F1800004F23FA02F018BF404270474FF000001C
:100F2800704750EA013005D111F0004008BF6FF05A
:100F3800004070474FF00000704700BF2DE9F041B6
:100F480088B0002404940594069407941F4B9A696A
:100F580042F040029A619A6902F040020192019AB5
:100F68009A6942F004029A619A6902F004020292B4
:100F7800029A9A6942F020029A619B6903F0200361
:100F88000393039BDFF8488022466021404600F027
:100F9800DAFB104D22464021284600F0D4FB60239E
:100FA80004930127059706940226079604A940464C
:100FB80000F0A2FA4023049305970694079604A923
:100FC800284600F099FA08B0BDE8F0810010024008
:100FD800001801400014014072B6FEE700B597B052
:100FE800282200210CA809F063FF00230793089327
:100FF80009930A930B930193029303930493059324
:10100800069301220C924FF480330D931092022222
:10101800139214934FF4E01315930CA801F0C8FB36
:10102800C0B90F23079302210891002309934FF4B5
:1010380080620A920B9307A801F0ECFD60B91023B7
:1010480001930023069301A801F0C0FE30B917B040
:101058005DF804FBFFF7C0FFFFF7BEFFFFF7BCFF1B
:1010680008B50E4800F01CF800F0A2F9FFF7B6FF2B
:10107800FFF764FF00F0FAF808F0B0FF09F0E0FBB2
:1010880009F094FB09F064FB03F03EFA09F0E6F975
:1010980009F090FB09F0E0FBFAE700BF440B0020E1
:1010A80008B5054B1860054B18680023022219463D
:1010B800806809F0D7FF08BD3C0B002070010020B4
:1010C800022801D80120704708B509F0D7FB092389
:1010D8000360002008BD000010B5013801280AD8B7
:1010E80014464FF0FF3392B20748006802F0B2F995
:1010F80040B9204610BD09F0C1FB092303604FF039
:10110800FF30F7E70520F5E73C0B0020022801D85F
:101118000020704708B509F0B1FB092303604FF0C0
:10112800FF3008BD08B509F0A9FB092303604FF09B
:10113800FF3008BD08B548B94FF0FF330122084811
:10114800006802F0E6F940B9012008BD09F096FBF5
:10115800092303604FF0FF30F7E70520F5E700BFEC
:101168003C0B002008B5022804D84FF400534B600C
:10117800002008BD09F082FB09230360F8E700009E
:1011880082B00E4B9A6942F001029A619A6902F0A4
:1011980001020092009ADA6942F08052DA61DB6952
:1011A80003F080530193019B054A536823F0E063E1
:1011B80043F00073536002B0704700BF0010024054
:1011C80000000140FEE7FEE7FEE7FEE7FEE77047A6
:1011D8007047704708B500F0FDF808BD08B502482B
:1011E80001F0B6F808BD00BFFC22002008B5402079
:1011F80000F0B0FA08BD08B5022000F0ABFA08BD4F
:101208000120704708B509F039FB162303604FF039
:10121800FF3008BD08B54FF0FF31FFF7F3FFFEE7D9
:1012280010B503460C4A0D490D48006840B10C48FA
:1012380000680344521A934206D8094A136010BD45
:101248000748084C0460F2E709F018FB0C23036018
:101258004FF0FF30F3E700BF00000120000C000052
:10126800400B0020708600207047000008B50A482F
:101278000A4B03604FF4E133436000238360C3608B
:1012880003610C2242618361C36102F0B3F800B9C3
:1012980008BDFFF7A1FEFBE7440B00200038014022
:1012A80010B586B000230293039304930593026854
:1012B800174B9A4201D006B010BD03F558439A69FE
:1012C80042F480429A619A6902F480420092009A3C
:1012D8009A6942F004029A619B6903F0040301933E
:1012E800019B4FF400730293022303930323059396
:1012F800084C02A9204600F0FFF84FF480630293DF
:1013080000230393049302A9204600F0F5F8D2E7DE
:101318000038014000080140FFF7A6FF0B480C49C0
:101328000C4A002302E0D458C4500433C4188C4239
:10133800F9D3094A094C002301E013600432A242A0
:10134800FBD309F0A1FAFFF78BFE704700000020DD
:10135800200B00206CC50308200B0020708600209D
:10136800FEE7000010B504460E4B18784FF47A7368
:10137800B3FBF0F30C4A1068B0FBF3F000F0A8F8E8
:1013880068B90F2C01D901200AE0002221464FF04C
:10139800FF3000F057F8054B1C60002000E00120EA
:1013A80010BD00BF0400002000000020080000203D
:1013B80008B5074A136843F010031360032000F0D0
:1013C8002FF80F20FFF7CEFFFFF7DAFE002008BD49
:1013D80000200240034A1168034B1B780B4413603A
:1013E800704700BF8C0B002004000020014B1868D8
:1013F800704700BF8C0B002038B50446FFF7F6FF96
:101408000546B4F1FF3F02D0044B1B781C44FFF79C
:10141800EDFF401BA042FAD338BD00BF04000020F6
:10142800074AD36823F4E0631B041B0C000200F492
:10143800E060034343F0BF6343F40033D360704775
:1014480000ED00E000B5194BDB68C3F30223C3F1DC
:10145800070CBCF1040F28BF4FF0040C03F1040E75
:10146800BEF1060F18D9033B4FF0FF3E0EFA0CFCF5
:1014780021EA0C0199400EFA03F322EA0303194307
:1014880000280BDB0901C9B200F1604000F561409A
:1014980080F800135DF804FB0023E5E700F00F0077
:1014A8000901C9B2024B1954F4E700BF00ED00E08E
:1014B80014ED00E0002807DB00F01F0240090123BB
:1014C8009340024A42F82030704700BF00E100E034
:1014D8000138B0F1807F0BD24FF0E0235861054A04
:1014E800F02182F823100020986107221A617047C2
:1014F8000120704700ED00E070B582B00024A446DA
:10150800B0E0874DAA4210D007D9864DAA420CD028
:1015180005F58035AA4208D013E0A5F58015AA4242
:1015280003D005F57025AA4207D18A68002A62D03F
:10153800012A5BD04361082403E0A5F58015AA427F
:10154800F3D0BEF1FF0F58D80646BEF1FF0F56D8AC
:101558004FEA8C0233680F25954023EA050304FA05
:1015680002F2134333604B6813F0805F78D06E4B00
:101578009A6942F001029A619B6903F001030193A1
:10158800019B4FEA9C02951C684B53F825600CF0B0
:1015980003039D000F23AB4026EA0306644B9842E1
:1015A80033D003F58063984200F0988003F5806398
:1015B800984200F0958003F58063984200F092808D
:1015C80003F58063984200F08F8003F580639842AA
:1015D80019D006231AE0CC68B3E7CC680434B0E726
:1015E800CC680834ADE7CC680C34AAE7036108245A
:1015F800A7E70024A5E70424A3E7061DA5E7ACF1A7
:1016080008029200A6E7052300E00023AB4033431D
:101618000232464D45F822304B6813F4801F65D0DE
:10162800444A936843EA0E0393604B6813F4001F1F
:1016380062D0404AD36843EA0E03D3604B6813F480
:10164800003F5FD03B4A536843EA0E0353604B6840
:1016580013F4803F5CD0374A136843EA0E031360E3
:101668000CF1010C0A6832FA0CF357D0012303FA83
:101678000CF302EA030E33EA0202F1D14A68122A95
:101688003FF63FAF122A3FF65CAF01A555F822F0AE
:1016980033150008DF150008E9150008FB150008D8
:1016A8004B1500084B1500084B1500084B15000892
:1016B8004B1500084B1500084B1500084B15000882
:1016C8004B1500084B1500084B1500084B15000872
:1016D8004B150008E3150008EF150008012395E7EE
:1016E800022393E7032391E704238FE7114A9368C2
:1016F80023EA0E03936098E70E4AD36823EA0E03A1
:10170800D3609BE70B4A536823EA0E0353609EE7B6
:10171800084A136823EA0E031360A1E702B070BDFC
:1017280000002210000031100010024000000140AB
:1017380000080140000401408368194201D00120DB
:101748007047002070470AB10161704709040161C0
:101758007047000008B5054B5B69034200D108BD1E
:10176800024B586102F006FFF9E700BF0004014090
:1017780038B512F4804F44D00468B4F850309BB2A6
:1017880091F800C003EBCC03023304EB4303B3F836
:101798000044C4F309048B69A34228D31B1B8B6143
:1017A8008B697BB9056835F82C309BB223F48043EC
:1017B80023F0700383F4005343F4004343F08003A1
:1017C80025F82C3012F0400F0ED002680D7832F850
:1017D80025309BB223F4E04323F0700343F4004325
:1017E80043F0C00322F8253024B9204638BD002331
:1017F8008B61D5E723460A894969006802F06CFEC7
:10180800F3E70468B4F850309BB291F800C003EBDA
:10181800CC03063304EB4303B3F80044C4F30904D0
:101828008B69A3422FD31B1B8B618B697BB905681E
:1018380035F82C309BB223F4804323F0700383F4F3
:10184800005343F4004343F0800325F82C3012F092
:10185800400F0FD1026891F800C032F82C309BB2CB
:1018680023F4E04323F0700343F4004343F0C00340
:1018780022F82C30002CB8D023464A8949690068E0
:1018880002F02AFEB1E700238B61CEE770B586B07F
:10189800002800F08180044690F8A932EBB10323B8
:1018A80084F8A932206801F0A9FE254655F8106B86
:1018B800EC460FCDACE80F002B68CCF80030231DA8
:1018C8000ECB304601F08AFE054658B1022384F853
:1018D800A9320125284606B070BD80F8A83208F064
:1018E80041FCDCE70021206801F092FE2B4616E05F
:1018F8005A1C02EB820104EBC1010120487002EB83
:10190800820104F8313004EBC1000021C17003EBFF
:10191800830004EBC0008163C1630164D3B26168D2
:101928008B42E5D316E005EB850304EBC3030022E5
:1019380083F8692183F8685183F86B21C3F878210B
:10194800C3F87C2105EB850304EBC303C3F88021AE
:101958000135EDB2A942E6D8254655F8106BEC469C
:101968000FCDACE80F002B68CCF80030231D0ECB50
:10197800304601F04FFE054620B1022384F8A93213
:101988000125A7E7002384F82430012384F8A9322D
:10199800206802F09EF99DE701259BE738B590F88D
:1019A800A832012B11D00446012580F8A8520068FE
:1019B80001F01BFE2946204608F0D5FC206802F0FD
:1019C80086F9002084F8A80238BD0220FCE770B52B
:1019D80005460C46164612F0400F00F00E810268CC
:1019E800B2F850309BB2097803EBC103023302EB23
:1019F8004303B3F80024C2F30902A36993424ED902
:101A08009B1AA361A369002B66D16378002B49D187
:101A18002B68B3F8502092B2134403EB0111B1F8CC
:101A28000434C3F30903A1F80434B1F804346FEAA9
:101A380043436FEA53439BB2A1F804342B6862789E
:101A4800002A3CD1B3F8502092B21344227803EB19
:101A58000213B3F80C24C2F30902A3F80C24B3F858
:101A68000C246FEA42426FEA524292B2A3F80C2465
:101A78002178284608F0AAFB16F4804F41D02A683E
:101A8800217832F821309BB223F4E04323F070032D
:101A980043F4404343F0800322F8213031E000232F
:101AA800A361AFE7012BC9D12B68B3F8502092B2DC
:101AB800134403EB01110023A1F80434BEE7012A03
:101AC800D6D1B3F8502092B21344227803EB021314
:101AD8000022A3F80C24CBE716F4804F0DD0286819
:101AE80030F821309BB223F4E04323F0700343F431
:101AF800404343F0800320F8213094F82430012B30
:101B080012D02A68217832F821309BB223F4E043BE
:101B180023F0400383F0300343F4004343F0800391
:101B280022F82130002070BD636913446361E369C2
:101B38001344E361216A2369994224D3C91A2162B3
:101B48006278002A44D12A68B2F8501089B20A444F
:101B5800217802EB0112B2F80414C1F30901A2F8CA
:101B680004143E2B1BD9580913F01F0F00D101385C
:101B7800B2F8041489B2800280B2014341F40041F2
:101B8800A2F8041426E021B9002384F8243013466F
:101B9800D6E7002384F8243023620B46D0E74BB9FC
:101BA800B2F804146FEA41416FEA514189B2A2F8D0
:101BB80004140FE0590813F0010F00D00131B2F8F6
:101BC800040480B2890289B20143A2F8041401E036
:101BD800012A06D09BB222896169286802F081F83F
:101BE8008FE72A68B2F8501089B20A44217802EBCC
:101BF800011299B2A2F80414ECE70268B2F8503066
:101C08009BB2097803EBC103063302EB4303B3F835
:101C18000024C2F30902A36993424FD39B1AA3611C
:101C2800A369002B67D16378002B4AD12B68B3F8DE
:101C3800502092B2134403EB0111B1F80434C3F3FA
:101C48000903A1F80434B1F804346FEA43436FEA96
:101C580053439BB2A1F804342B686278002A3DD123
:101C6800B3F8502092B21344227803EB0213B3F86E
:101C78000C24C2F30902A3F80C24B3F80C246FEA6D
:101C880042426FEA524292B2A3F80C2421782846C5
:101C980008F09CFA16F4804F7FF433AF2A68217855
:101CA80032F821309BB223F4E04323F0700343F46D
:101CB800404343F0800322F8213022E70023A36148
:101CC800AEE7012BC8D12B68B3F8502092B2134469
:101CD80003EB01110023A1F80434BDE7012AD5D193
:101CE800B3F8502092B21344227803EB0213002277
:101CF800A3F80C24CAE716F4804F0DD1286830F8F1
:101D080021309BB223F4E04323F0700343F44043B3
:101D180043F0800320F8213094F82430012B7FF41D
:101D2800F0AE636913446361E3691344E361216AB4
:101D38002369994224D3C91A21622A686178002943
:101D480043D1B2F8501089B20A44217802EB01124B
:101D5800B2F80C14C1F30901A2F80C143E2B1BD9DC
:101D6800580913F01F0F00D10138B2F80C1489B2CA
:101D7800800280B2014341F40041A2F80C1426E02D
:101D880021B9002384F824301346D6E700232362C0
:101D980084F824300B46D0E74BB9B2F80C146FEA3C
:101DA80041416FEA514189B2A2F80C140FE0590879
:101DB80013F0010F00D00131B2F80C0480B289028F
:101DC80089B20143A2F80C1401E0012906D09BB2A4
:101DD80062896169286801F084FF92E6B2F85010C0
:101DE80089B20A44217802EB011299B2A2F80C14C4
:101DF800EDE72DE9F04105462868B0F8443013F4C2
:101E0800004F00F08E82B0F84440A3B214F00F04E3
:101E180040F0E28013F0100F6BD003889AB213F4ED
:101E2800006F40F09D8012F4004FE5D0038823F046
:101E380070031B051B0D43F0800303802868B0F86E
:101E480050309BB295F8682103EBC203063300EBD0
:101E58004303B3F80034C3F30903C5F884318BB1E5
:101E6800D5F87C1171B1B5F86E2102F035FBD5F8C3
:101E78008421D5F87C311344C5F87C3100212846EB
:101E880008F098F92A68138899B213F4006FB3D14F
:101E980001F44051B1F5405FAED0B2F850309BB27A
:101EA8001A44B2F80C34C3F30903A2F80C34D5F879
:101EB80078313E2B77D9590913F01F0F00D101391A
:101EC800B2F80C349BB2890289B20B4343F4004345
:101ED800A2F80C342A6813889BB223F4804323F0B9
:101EE800700383F4405343F4004343F080031380AA
:101EF80082E703889BB223F4E14323F070036FEA7F
:101F080043436FEA53439BB203802A68B2F85030C8
:101F18009BB295F8281003EBC103023302EB43038D
:101F2800B3F80034C3F309036B64EA6B1344EB633F
:101F38000021284608F04AF995F82430002B3FF490
:101F48005BAF2B6C002B7FF457AF95F824302A68D1
:101F580043F08003A2F84C30002385F824304BE787
:101F6800B0F850309BB295F8682103EBC2030633F2
:101F780000EB4303B3F80034C3F30903C5F8843115
:101F8800B5F86E2105F52C7102F0A6FA2A681388B7
:101F980023F070031B051B0D43F0800313802846B4
:101FA80008F000F928E74BB9B2F80C346FEA43435C
:101FB8006FEA53439BB2A2F80C348BE7590813F02D
:101FC800010F00D00131B2F80C3498B28B029BB2E9
:101FD8000343A2F80C347DE730F824309EB213F4A2
:101FE800004F4CD116F0800F3FF406AF621C02EB95
:101FF800820105EBC101286830F824309BB223F434
:10200800E14323F070036FEA43436FEA53439BB203
:1020180020F82430CB78012B00F0F28016F4807F72
:1020280040F07A812868B0F850309BB2621C02EB0D
:10203800820215F8326003EBC603023300EB430358
:10204800B3F80034C3F3090304EB840205EBC202BE
:10205800126C9A4240F24C8104EB840705EBC707E7
:10206800D21A3A6404EB840205EBC202126C002A0D
:1020780040F045813146284608F0A8F8BCE630F81B
:10208800243023F070031B051B0D43F0800320F858
:10209800243004EB8401C90001F5B47105EB010893
:1020A80004EB840305EBC30393F87431002B42D18E
:1020B8002868B0F850309BB204EB840205EBC202EA
:1020C80092F8682103EBC203063300EB4303B3F82D
:1020D8000074C7F3090717BB04EB840305EBC303BC
:1020E800D3F884213A44C3F88421D3F87C213A44B4
:1020F800C3F87C21D3F880313BB104EB840305EBB2
:10210800C303D3F878319F4275D204EB840305EBFF
:10211800C30393F86811284608F04CF862E704EB0B
:10212800840105EBC1013B46B1F86E21D1F87C1161
:1021380002F0D2F9D0E704EB840305EBC30393F86C
:102148006B31022B35D0296804EB840205EBC202FF
:1021580092F8680131F820309BB223F4E04323F071
:10216800700343F4004343F0C00321F8203028688B
:1021780092F8682130F8223013F4804F20D0B0F85C
:1021880050309BB203EBC203023300EB4303B3F8B6
:102198000074C7F30907002F9ED004EB840105EBF8
:1021A800C1013B46B1F87021D1F87C1102F094F9D5
:1021B80092E7324641462846FFF7DAFA07468BE7A8
:1021C800B0F850309BB203EBC203063300EB430375
:1021D800B3F80074C7F30907002F3FF47DAF04EB91
:1021E800840105EBC1013B46B1F87221D1F87C119D
:1021F80002F072F970E74146286801F086FDF1E6C1
:1022080004EB840305EBC30300221A6493F834300B
:10221800FBB116F0400F37D04B781BBB2B68B3F8D7
:10222800502092B21344621C02EB820215F832204D
:1022380003EB0213B3F80424C2F30902A3F804243D
:10224800B3F804246FEA42426FEA524292B2A3F80A
:102258000424013404EB840415F83410284607F0EC
:10226800B5FFC9E5012BF4D12B68B3F8502092B221
:102278001344621C02EB820215F8322003EB0213AE
:102288000022A3F80424E4E72A68631C03EB830311
:1022980005EBC3035B78D3B9B2F850309BB2134453
:1022A800621C02EB820215F8322003EB0213B3F82A
:1022B8000C24C2F30902A3F80C24B3F80C246FEA27
:1022C80042426FEA524292B2A3F80C24C1E7012BB2
:1022D800BFD1B2F850309BB21344621C02EB8202A9
:1022E80015F8322003EB02130022A3F80C24B0E700
:1022F80004EB840205EBC20200271764B2E604EB84
:10230800840205EBC202D66B1E44D663546C234488
:10231800536401F0FAFC6FE532462846FFF757FB95
:102328006AE50020BDE8F08190F8A832012B0DD0B5
:1023380010B50446012380F8A83280F824100068FC
:1023480001F0BFFC002084F8A80210BD02207047ED
:1023580010B584B00446006801F0BDFC10F4004FCD
:1023680020D110F4806F21D110F4804F2FD110F4B8
:10237800005F37D110F4805F3ED110F4006F40F059
:10238800878010F4007F40F0AE8010F4807F27D063
:102398002268B2F844309BB223F480739BB2A2F84F
:1023A80044301DE02046FFF724FD19E02268B2F80A
:1023B80044309BB223F480639BB2A2F84430204699
:1023C80007F015FF00212046FFF7AEFF08E022685E
:1023D800B2F844309BB223F480439BB2A2F8443055
:1023E80004B010BD2268B2F844309BB223F4005305
:1023F8009BB2A2F84430F3E72268B2F840309BB2AF
:1024080023F004039BB2A2F840302268B2F84030AF
:102418009BB223F008039BB2A2F84030204607F095
:1024280009FF2268B2F844309BB223F480539BB270
:10243800A2F84430D4E7226832F8231004AA02EB49
:10244800430222F8101C0133DBB2072BF3D92268B0
:10245800B2F840309BB243F00103A2F84030226842
:10246800B2F840309BB223F001039BB2A2F840308F
:102478002368B3F8442012F4806FF9D0B3F84420ED
:1024880092B222F4806292B2A3F8442000230BE0B7
:102498000023DAE7226804A901EB430131F8101C94
:1024A80022F823100133DBB2072BF3D92268B2F8E4
:1024B80040309BB243F00803A2F840302268B2F8DB
:1024C80044309BB223F400639BB2A2F844302268E4
:1024D800B2F840309BB243F00403A2F840302046E3
:1024E80007F098FE7CE72268B2F844309BB223F4E8
:1024F80000739BB2A2F84430204607F072FE6FE7E3
:1025080010B50446084611F0800F25D101F0070CDC
:102518000CEB8C01C90001F5B47E04EB0E010CEB49
:102528008C0C04EBCC0C4FF0000E8CF869E100F039
:10253800070008700A61CB70022B1AD094F8A832F1
:10254800012B19D0012384F8A832206801F073F810
:10255800002084F8A80210BD01F0070C0CF1010C52
:102568000CEB8C0104EBC1014FF0010E81F801E086
:10257800DDE700230B71E1E70220ECE710B5044624
:102588000B4611F0800F1FD101F0070202EB820108
:10259800C90001F5B471014402EB820200EBC202EA
:1025A800002082F8690103F007030B7094F8A83241
:1025B800012B13D0012384F8A832206801F020FAF7
:1025C800002084F8A80210BD01F00702013202EBD6
:1025D800820100EBC10101204870E4E70220F2E724
:1025E80010B501F0070C0CEB8C01C90001F5B471B2
:1025F8000CEB8C0E00EBCE0ECEF87C21CEF88031A1
:102608000024CEF884418EF869418EF868C10144EF
:10261800006801F07AFB204610BD38B501F00704C8
:1026280004F1010C0CEB8C0104EB840E00EBCE0ED4
:10263800CEF83C20CEF8403001228EF84C20CEF85F
:1026480048300025CEF8445000EBC1035A7000F81A
:1026580031401946006801F058FB284638BD38B5A6
:1026680001F007054268954231D804460B4611F03F
:10267800800F1ED101EB8101C90001F5B47101443D
:1026880003EB830300EBC303002283F869210123D2
:102698008B700D7094F8A832012B1AD0012384F89E
:1026A800A832206801F097FA5DB1002084F8A802EA
:1026B80038BD6B1C03EB830100EBC10101224A709A
:1026C800E5E704F52C71206801F009FBEDE701202E
:1026D800EEE70220ECE70B4601F00F014268914259
:1026E80030D810B5044613F0800F21D103F007024B
:1026F80002EB8201C90001F5B471014402EB8202C8
:1027080000EBC202002082F8690100228A7003F0FF
:1027180007030B7094F8A832012B15D0012384F815
:10272800A832206801F07CFA002084F8A80210BDC5
:1027380003F00702013202EB820100EBC101012024
:102748004870E2E7012070470220F0E711F0800F9F
:102758000BD001F00701013101EB810100EBC10150
:1027680052B90A73CB800020704701EB8101C90080
:1027780001F5B4710144F3E701220A730B811B0CC4
:102788004B81F0E782B0084B1B68084AA2FB032381
:102798005B0A00FB03F3019300BF019B5A1E0192E1
:1027A800002BF9D102B0704700000020D34D621011
:1027B800002800F0F18170B582B00446036813F078
:1027C800010F2CD0994B5B6803F00C03042B1DD030
:1027D800964B5B6803F00C03082B12D06368B3F5C3
:1027E800803F41D0002B55D103F1804303F50433DA
:1027F8001A6822F480321A601A6822F480221A6059
:1028080037E08A4B5B6813F4803FE7D0874B1B683F
:1028180013F4003F03D06368002B00F0BF812368E6
:1028280013F0020F75D0814B5B6813F00C0F5FD06B
:102838007E4B5B6803F00C03082B54D02369002BF4
:1028480000F08A807A4B01221A60FEF7CFFD054618
:10285800764B1B6813F0020F75D1FEF7C7FD401BBE
:102868000228F5D903209EE1704A136843F48033A7
:102878001360636843B3FEF7B9FD05466B4B1B68ED
:1028880013F4003FCBD1FEF7B1FD401B6428F5D906
:10289800032088E1B3F5A02F09D0644B1A6822F40D
:1028A80080321A601A6822F480221A60E1E703F184
:1028B8008043A3F53C331A6842F480221A601A68F0
:1028C80042F480321A60D4E7FEF790FD0546574B74
:1028D8001B6813F4003FA2D0FEF788FD401B642854
:1028E800F5D903205FE1514B5B6813F4803FA5D114
:1028F8004E4B1B6813F0020F03D02369012B40F0E5
:102908004F814A4A136823F0F803616943EAC10317
:102918001360236813F0080F33D0A369002B5CD031
:10292800434B0122C3F88024FEF760FD05463F4B68
:102938005B6A13F0020F21D1FEF758FD401B0228F5
:10294800F5D903202FE1394A136823F0F8036169A8
:1029580043EAC1031360DCE7354B00221A60FEF737
:1029680045FD0546314B1B6813F0020FD1D0FEF729
:102978003DFD401B0228F5D9032014E10120FFF793
:1029880001FF236813F0040F00F09680274BDB69E2
:1029980013F0805F34D1254BDA6942F08052DA6156
:1029A800DB6903F080530193019B0125214B1B68D0
:1029B80013F4807F26D0E368012B3DD0002B53D140
:1029C80003F1804303F504331A6A22F001021A6204
:1029D8001A6A22F004021A6233E0154B0022C3F887
:1029E8008024FEF703FD0546104B5B6A13F0020FC7
:1029F800C7D0FEF7FBFC401B0228F5D90320D2E024
:102A08000025D3E70B4A136843F480731360FEF77D
:102A1800EDFC0646074B1B6813F4807FCBD1FEF70D
:102A2800E5FC801B6428F5D90320BCE000100240B7
:102A380000004242007000405F4A136A43F00103FD
:102A48001362E36833B3FEF7D1FC06465A4B1B6AA0
:102A580013F0020F2FD1FEF7C9FC801B41F2883317
:102A68009842F3D903209EE0052B09D0524B1A6AED
:102A780022F001021A621A6A22F004021A62E0E7DE
:102A88004D4B1A6A42F004021A621A6A42F00102B5
:102A98001A62D6E7FEF7AAFC0646474B1B6A13F0F4
:102AA800020F08D0FEF7A2FC801B41F2883398423F
:102AB800F3D9032077E0E5B9E369002B72D03E4AE9
:102AC800526802F00C02082A56D0022B17D03B4B52
:102AD80000221A66FEF78AFC0446374B1B6813F07F
:102AE800007F47D0FEF782FC001B0228F5D903209F
:102AF80059E0314AD36923F08053D361DCE72F4B87
:102B080000221A66FEF772FC05462B4B1B6813F071
:102B1800007F06D0FEF76AFC401B0228F5D9032087
:102B280041E0236AB3F5803F1AD023494B6823F468
:102B38007413226A606A024313434B601F4B0122DD
:102B48001A66FEF753FC04461B4B1B6813F0007F04
:102B58000ED1FEF74BFC001B0228F5D9032022E01A
:102B6800154A536823F40033A1680B435360DCE72C
:102B7800002018E0002016E0012B16D00E4B5B68F1
:102B880003F48031226A914211D103F47013626A0E
:102B980093420ED1002006E001207047012002E098
:102BA800012000E0002002B070BD0120FBE70120F9
:102BB800F9E70120F7E700BF001002400000424299
:102BC8000F4B5B6803F00C02082A01D00D487047D0
:102BD800C3F383420C49885C13F4803F0BD0084B45
:102BE8005B68C3F34043094AD35C064A02FB00F022
:102BF800B0FBF3F07047064B03FB00F0704700BFD3
:102C08000010024000127A00EC0E0108FC0E0108C8
:102C180000093D00002800F0A08070B50D4604466C
:102C2800524B1B6803F007038B420BD24F4A1368C1
:102C380023F007030B431360136803F007038B4269
:102C480040F08D80236813F0020F17D013F0040FA3
:102C580004D0474A536843F4E0635360236813F091
:102C6800080F04D0424A536843F460535360404A03
:102C7800536823F0F003A1680B435360236813F0F3
:102C8800010F31D06368012B20D0022B25D0384AA0
:102C9800126812F0020F64D035494A6822F0030224
:102CA80013434B60FEF7A2FB0646314B5B6803F00B
:102CB8000C036268B3EB820F16D0FEF797FB801BFC
:102CC80041F288339842F0D9032045E0284A126837
:102CD80012F4003FE0D101203EE0254A126812F0CC
:102CE800007FD9D1012037E0204B1B6803F0070390
:102CF800AB420AD91D4A136823F007032B4313601C
:102D0800136803F00703AB422DD1236813F0040FB7
:102D180006D0174A536823F4E063E1680B43536015
:102D2800236813F0080F07D0114A536823F460533F
:102D3800216943EAC1035360FFF742FF0C4B5B680C
:102D4800C3F303130B4AD35CD8400B4B18600B4BEF
:102D58001868FEF707FB002070BD012070470120AE
:102D6800FAE70120F8E70120F6E700BF002002405B
:102D780000100240D40E01080000002008000020C6
:102D8800014B1868704700BF0000002008B5FFF726
:102D9800F7FF044B5B68C3F30223034AD35CD840B4
:102DA80008BD00BF00100240E40E010808B5FFF797
:102DB800E7FF044B5B68C3F3C223034AD35CD840E4
:102DC80008BD00BF00100240E40E010870B582B0D3
:102DD8000446036813F0010F36D03F4BDB6913F04C
:102DE800805F49D13C4BDA6942F08052DA61DB6995
:102DF80003F080530193019B0125384B1B6813F4A2
:102E0800807F3BD0344B1B6A13F4407313D0626845
:102E180002F440729A420ED02F4A136A23F440708B
:102E28002F490126C1F840640026C1F840641062A9
:102E380013F0010F36D1284A136A23F440736168EE
:102E48000B431362002D3ED1236813F0020F06D006
:102E5800214A536823F44043A1680B435360236815
:102E680013F0100F34D01C4A536823F480036169AF
:102E78000B43536000202CE00025BEE7174A136877
:102E880043F480731360FEF7B1FA0646134B1B68D0
:102E980013F4807FB6D1FEF7A9FA801B6428F5D910
:102EA800032016E0FEF7A2FA06460B4B1B6A13F046
:102EB800020FC0D1FEF79AFA801B41F2883398427C
:102EC800F3D9032005E0D36923F08053D361BBE72E
:102ED800002002B070BD00BF00100240007000402A
:102EE800000042422DE9F04782B005468846174661
:102EF8001E46FEF77BFA0A9B1B1A03EB0609FEF730
:102F080075FA82462B4B1B68C3F3CB3309FB03F3DB
:102F180001932B689C6838EA04030CBF4FF0010C3E
:102F28004FF0000CBC4540D0B6F1FF3FF1D0FEF7A2
:102F38005DFAA0EB0A0048450AD2B9F1000F07D0A4
:102F4800019A02B14A46019B013B01939146E0E791
:102F58002A68536823F0E00353606B68B3F5827FF7
:102F68000BD0AB6AB3F5005F14D0012385F851305C
:102F7800002385F85030032018E0AB68B3F5004F04
:102F880002D0B3F5806FECD12A68136823F04003B0
:102F98001360E6E72A68136823F4005313602A686D
:102FA800136843F400531360DFE7002002B0BDE864
:102FB800F08700BF0000002010B582B004460B4621
:102FC800009200228021FFF78DFF08B902B010BDE2
:102FD800636D43F0200363650320F7E7002856D0AC
:102FE80010B50446436A33B94368B3F5827F05D008
:102FF8000023C36102E00023036143610023A3624D
:1030080094F85130002B3CD0022384F851302268C8
:10301800136823F040031360636803F48273A268A3
:1030280002F404421343E26802F400621343226983
:1030380002F002021343626902F001021343A2691B
:1030480002F400721343E26902F038021343226A61
:1030580002F080021343A26A02F40052216813436B
:103068000B60638B226803F0040353602268D36902
:1030780023F40063D36100206065012384F8513094
:1030880010BD84F85030204606F042FFBCE701200E
:1030980070472DE9F04383B01F460A9D90F85030E1
:1030A800012B00F01681044688469146012380F8DA
:1030B8005030FEF79BF9064694F85130DBB262684F
:1030C800012B0AD0B2F5827F40F0F080A268002A76
:1030D80040F0F380042B40F0F280B8F1000F00F0CC
:1030E800F080B9F1000F00F0EE80002F00F0ED80C5
:1030F80094F85130DBB2042B02D0052384F8513008
:1031080000236365C4F83890E787A787C4F8308040
:10311800E786A7862364636423681A6812F0400F61
:1031280003D11A6842F040021A60E368B3F5006FF1
:1031380011D063680BB1012F0BD1226B2368127871
:103148001A73236B01332363E38E9BB2013B9BB25B
:10315800E38601276EE063680BB1012F0BD1226B68
:1031680023681288DA60236B02332363E38E9BB2F1
:10317800013B9BB2E38601271BE023689A6812F0A3
:10318800010F0ED0E28F92B25AB1DA68A36B1A809F
:10319800A36B0233A363E38F9BB2013B9BB2E3872C
:1031A8000127FEF723F9801BA84202D3B5F1FF3FA0
:1031B8001ED1E38E9BB21BB9E38F9BB2002B5CD070
:1031C80023689A6812F0020FD7D0E28E92B2002AD2
:1031D800D3D0002FD1D0226B1288DA60236B023350
:1031E8002363E38E9BB2013B9BB2E3860027C4E7CF
:1031F800012384F85130032059E023689A6812F0BB
:10320800010F0ED0E28F92B25AB1DA68A36B1A702E
:10321800A36B0133A363E38F9BB2013B9BB2E387AC
:103228000127FEF7E3F8831BAB4202D3B5F1FF3F5A
:103238001ED1EDB1E38E9BB213B9E38F9BB2E3B11C
:1032480023689A6812F0020FD7D0E28E92B2002A51
:10325800D3D0002FD1D0226B12781A73236B01338D
:103268002363E38E9BB2013B9BB2E3860027C4E74E
:10327800012384F85130032019E0324629462046BC
:10328800FFF79AFE70B9A36833B901932368DA6827
:1032980001929B680193019B636DC3B9012384F874
:1032A800513004E020236365012000E00220002360
:1032B80084F8503003B0BDE8F0830220F7E702201D
:1032C800F5E70120F3E70120F1E70120EFE701200E
:1032D800EDE70220EEE7000010B504460268136926
:1032E80023F44053C1680B43136183680269134395
:1032F80042691A430168CB6823F4B05323F00C03E6
:103308001343CB600268536923F4407381690B430C
:1033180053610268134B9A4220D0FFF737FD0246EB
:1033280002EB820202EB820263689B00B2FBF3F2BB
:103338000D48A0FB02314909642303FB11231B013B
:103348003233A0FB03235B0903F0F00202EB011206
:1033580003F00F03216813448B6010BDFFF726FDAF
:103368000246DDE7003801401F85EB512DE9F8439F
:1033780005460F4616469946DDF820802C682468D5
:1033880037EA04030CBF4FF0010C4FF0000CB445B2
:103398002DD1B8F1FF3FF1D0B8F1000F05D0FEF7FD
:1033A80025F8A0EB09004045E8D92A6802F10C038A
:1033B80053E8003F23F4D0730C3242E8003100296F
:1033C800F3D12A6802F1140353E8003F23F0010304
:1033D800143242E800310029F3D1202385F8413026
:1033E80085F84230002385F84030032000E00020B3
:1033F800BDE8F88360B310B5044690F8413013B3C4
:10340800242384F841302268D36823F40053D3601E
:103418002046FFF761FF2268136923F49043136184
:103428002268536923F02A0353612268D36843F45E
:103438000053D36000206064202384F8413084F86E
:103448004230606310BD80F84030FDF729FFD7E7B0
:10345800012070472DE9F04182B01E4690F84130B6
:10346800DBB2202B4BD104460D46904600294AD0AA
:103478000AB9012044E000234364212380F8413045
:10348800FDF7B4FF0746A4F82480A4F82680A368B3
:10349800B3F5805F02D04FF000080FE02369FBB15D
:1034A8004FF000080AE038F8023B2268C3F308032B
:1034B8005360E28C92B2013A92B2E284E38C9BB2FE
:1034C8008BB100963B46002280212046FFF74EFF35
:1034D800D8B9002DE7D015F8012B23685A60E8E722
:1034E800A8460025EAE700963B46002240212046F0
:1034F800FFF73CFF58B9202384F8413000E0022050
:1035080002B0BDE8F0810120FAE70320F8E70320C4
:10351800F6E72DE9F04182B01E4690F84230DBB262
:10352800202B53D104460D469046002952D00AB9A3
:1035380001204CE000234364222280F842200363E8
:10354800FDF754FF0746A4F82C80A4F82E80A36842
:10355800B3F5805F02D04FF0000817E0236913B17C
:103568004FF0000812E0A84600250FE023685B68CA
:10357800C3F3080328F8023B03E023685B682B7059
:103588000135E28D92B2013A92B2E285E38D9BB2A7
:10359800BBB100963B46002220212046FFF7E6FEFD
:1035A800D0B9002DE2D0A368B3F5805FE5D013B998
:1035B8002369002BE1D023685B6803F07F032B703D
:1035C800DEE7202384F84230002000E0022002B029
:1035D800BDE8F0810120FAE70320F8E784B001A8EC
:1035E80080E80E00002004B0704703460020A3F8CE
:1035F80044004FF43F42A3F840207047B0F84030F1
:1036080023F47C535B045B0CA0F840300020704727
:103618000020704784B0844601A880E80E0001238A
:10362800ACF840300020ACF84000ACF84400ACF8EE
:10363800500004B0704710B5034691F800C030F848
:103648002C2092B222F4EC4222F0700292B2C87896
:10365800032861D8DFE800F0555C0258002048F2E2
:10366800800E42EA0E0223F82C2091F800C033F8AD
:103678002C2092B222F4E04222F070024CEA0202BC
:1036880042EA0E0223F82C200A7B002A40F0DC8054
:103698004A78002A51D0B3F8502092B21A440C78D4
:1036A80002EB0412B1F806C04FEA5C0C4FEA4C0C6E
:1036B800A2F800C40C7833F8242012F0400F0CD084
:1036C80033F8242092B222F4E04222F0700242F44D
:1036D800004242F0C00223F82420CA78012A1DD0F3
:1036E800097833F8212092B222F4E04222F0400215
:1036F80082F0200242F4004242F0800223F82120A6
:1037080017E142F40072AAE742F4C0620020A6E77B
:1037180042F480620020A2E70120A0E7097833F88C
:10372800212092B222F4E04222F0400242F4004208
:1037380042F0800223F82120FBE0B3F8502092B237
:103748001A440C7802EB0412B1F806C04FEA5C0C7C
:103758004FEA4C0CA2F808C4B3F8502092B21A44AD
:103768000C7802EB0412B2F80CC4CCF3090CA2F8E2
:103778000CC40C693E2C39D94FEA541E14F01F0FA3
:1037880001D10EF1FF3EB2F80CC41FFA8CFC4FEACF
:103798008E2E1FFA8EFE4CEA0E0C4CF4004CA2F84A
:1037A8000CC40C7833F8242012F4804F0CD033F872
:1037B800242092B222F4E04222F0700242F4404205
:1037C80042F0800223F82420097869BB33F82120CD
:1037D80092B222F4804222F0700282F4405242F403
:1037E800004242F0800223F82120A2E04CB9B2F84E
:1037F8000C446FEA44446FEA5444A4B2A2F80C445F
:10380800CFE74FEA540C14F0010F01D00CF1010C72
:10381800B2F80C44A4B24FEA8C2C1FFA8CFC44EA90
:103828000C0CA2F80CC4BCE733F8212092B222F4A5
:10383800804222F0700282F4005242F4004242F0C8
:10384800800223F8212074E0CA78022A72D00C780A
:1038580033F8242092B222F4E24222F0700242F4B9
:10386800004242F0800223F82420B3F8502092B29C
:103878001A4491F800C002EB0C12B1F808C04FEAE4
:103888005C0C4FEA4C0CA2F800C4B3F8502092B27A
:103898001A4491F800C002EB0C12B1F80AC04FEAC2
:1038A8005C0C4FEA4C0CA2F808C44A78002A50D1A4
:1038B8000C7833F8242012F4804F0CD033F82420ED
:1038C80092B222F4E04222F0700242F4404242F006
:1038D800800223F824200C7833F8242012F0400FBB
:1038E8000CD033F8242092B222F4E04222F0700285
:1038F80042F4004242F0C00223F8242091F800C0AC
:1039080033F82C2092B222F4804222F0700282F422
:10391800405248F28004224323F82C20097833F8D7
:10392800212092B222F4E04222F04002224323F8FE
:10393800212010BD0C7833F8242092B222F4E04202
:1039480022F0700242F4014242F0800223F824205F
:103958008BE70C7833F8242012F4804F0CD033F81E
:10396800242092B222F4E04222F0700242F4404253
:1039780042F0800223F824200C7833F8242012F037
:10398800400F0CD033F8242092B222F4E04222F007
:10399800700242F4004242F0C00223F82420CA78A0
:1039A800012A1ED00C7833F8242092B222F4E04287
:1039B80022F0400282F0200242F4004242F08002EB
:1039C80023F82420097833F8212092B222F4804287
:1039D80022F0700242F4004242F0800223F82120D3
:1039E800A7E70C7833F8242092B222F4E04222F0C0
:1039F800400242F4004242F0800223F82420E1E72A
:103A08000B7B002B46D14B7813B30A7830F8223061
:103A180013F0400F0CD030F822309BB223F4E0436F
:103A280023F0700343F4004343F0C00320F822302E
:103A38000A7830F822309BB223F4E04323F04003A5
:103A480043F4004343F0800320F8223000207047FD
:103A58000A7830F8223013F4804F0CD030F8223036
:103A68009BB223F4E04323F0700343F4404343F054
:103A7800800320F822300A7830F822309BB223F4F1
:103A8800804323F0700343F4004343F0800320F89D
:103A98002230DBE74B78002B4ED10A7830F8223001
:103AA80013F4804F0CD030F822309BB223F4E0435B
:103AB80023F0700343F4404343F0800320F822309E
:103AC8000A7830F8223013F0400F0CD030F822304A
:103AD8009BB223F4E04323F0700343F4004343F024
:103AE800C00320F822300A7830F822309BB223F441
:103AF800E04323F0700343F4004343F0C00320F88D
:103B080022300B7830F8232092B222F4804222F03F
:103B1800700248F2800C42EA0C0220F823200A784E
:103B280030F822309BB223F4E04323F0400343EA09
:103B38000C0320F8223089E70A7830F8223013F491
:103B4800804F0CD030F822309BB223F4E04323F0AE
:103B5800700343F4404343F0800320F822300A788E
:103B680030F8223013F0400F0CD030F822309BB2DE
:103B780023F4E04323F0700343F4004343F0C0030D
:103B880020F822300A7830F822309BB223F4E04340
:103B980023F0700343F4404343F0800320F82230BD
:103BA8000B7830F8232092B222F4E04222F040024F
:103BB80048F2800C42EA0C0220F823200A7830F8F8
:103BC80022309BB223F4804323F0700343EA0C03B2
:103BD80020F822303AE74B788BB10A7830F8223057
:103BE8009BB223F4E04323F0400383F0100343F433
:103BF800004343F0800320F82230002070470A7801
:103C080030F822309BB223F4804323F0700383F40E
:103C1800805343F4004343F0800320F82230ECE75C
:103C28000B7B002B4BD14B7833B30A7830F822301A
:103C380013F0400F0CD030F822309BB223F4E0434D
:103C480023F0700343F4004343F0C00320F822300C
:103C5800CB78012B33D00A7830F822309BB223F48A
:103C6800E04323F0400383F0200343F4004343F090
:103C7800800320F8223022E00A7830F8223013F44A
:103C8800804F0CD030F822309BB223F4E04323F06D
:103C9800700343F4404343F0800320F822300A784D
:103CA80030F822309BB223F4804323F0700383F46E
:103CB800405343F4004343F0800320F822300020AF
:103CC800704711B98023A0F84C30002070470020BD
:103CD800704700207047B0F8440080B27047002059
:103CE800704710B45C1C640800EB420202F5806265
:103CF80007E00B78487843EA002322F8043B0231B6
:103D0800013C002CF5D110BC704770B505460C4637
:103D18004A78012A3BD00B7B002B40F0A6828B69A6
:103D28000A69934240F284829B1A8B61B5F850303D
:103D38009BB22B44217803EB0113B3F80C14C1F3A5
:103D48000901A3F80C143E2A40F27682510912F0B8
:103D58001F0F00D10139B3F80C2492B2890289B23D
:103D68000A4342F40042A3F80C24227835F82230A2
:103D78009BB223F4804323F0700383F4405343F44D
:103D8800004343F0800325F82230002070BD8E697F
:103D980009698E4200D90E46237B73B3E378022B60
:103DA8004DD0236A9B1B2362217835F8213013F00C
:103DB800400F00F0F581002A40F0E281B5F850305C
:103DC8009BB22B4403EB0113B3F80C24C2F3090292
:103DD800A3F80C243E2E40F2BA81710916F01F0F89
:103DE80000D10139B3F80C2492B2890289B20A438E
:103DF80042F40042A3F80C24CBE1B6B23346E28881
:103E080061692846FFF76DFFB5F850309BB22B4427
:103E1800227803EB0213A3F80464227835F82230E1
:103E28009BB223F4E04323F0400383F0300343F4D0
:103E3800004343F0800325F822300020A6E7236AD8
:103E4800994280F06681227835F822309BB223F4BB
:103E5800E04323F0700343F4014343F0800325F863
:103E68002230236A9B1B2362227835F8223013F014
:103E7800400F00F0A7806378B3BBB5F850309BB211
:103E88002B4403EB0213B3F80C24C2F30902A3F882
:103E98000C243E2E0FD9710916F01F0F00D10139DD
:103EA800B3F80C2492B2890289B20A4342F4004260
:103EB800A3F80C241AE04EB9B3F80C246FEA424276
:103EC8006FEA524292B2A3F80C240FE0720816F07F
:103ED800010F00D00132B3F80C1489B2920292B2E9
:103EE8000A43A3F80C2401E0012B30D0B3B2628955
:103EF80061692846FFF7F5FE636933446361236A05
:103F0800226993422DD99B1B23626378002B45D1EC
:103F1800B5F850309BB22B44227803EB0213B3F868
:103F28000424C2F30902A3F804243E2E1DD9710902
:103F380016F01F0F00D10139B3F8042492B2890298
:103F480089B20A4342F40042A3F8042428E0B5F8F1
:103F580050309BB22B4403EB0213B2B2A3F80C24EB
:103F6800C4E7002222621E46CFE74EB9B3F8042404
:103F78006FEA42426FEA524292B2A3F804240FE079
:103F8800720816F0010F00D00132B3F8041489B298
:103F9800920292B20A43A3F8042401E0012B06D04E
:103FA800B3B2228961692846FFF79BFE35E7B5F869
:103FB80050309BB22B44227803EB0213B2B2A3F821
:103FC8000424EDE76378B3BBB5F850309BB22B44BB
:103FD80003EB0213B3F80424C2F30902A3F8042480
:103FE8003E2E0FD9710916F01F0F00D10139B3F811
:103FF800042492B2890289B20A4342F40042A3F827
:1040080004241AE04EB9B3F804246FEA42426FEA76
:10401800524292B2A3F804240FE0720816F0010F7E
:1040280000D00132B3F8041489B2920292B20A4362
:10403800A3F8042401E0012B30D0B3B222896169CE
:104048002846FFF74EFE636933446361236A226999
:1040580093422DD99B1B23626378002B45D1B5F879
:1040680050309BB22B44227803EB0213B3F80C2494
:10407800C2F30902A3F80C243E2E1DD9710916F0CB
:104088001F0F00D10139B3F80C2492B2890289B20A
:104098000A4342F40042A3F80C2428E0B5F8503053
:1040A8009BB22B4403EB0213B2B2A3F80424C4E777
:1040B800002222621E46CFE74EB9B3F80C246FEAFD
:1040C80042426FEA524292B2A3F80C240FE07208FF
:1040D80016F0010F00D00132B3F80C1489B2920225
:1040E80092B20A43A3F80C2401E0012B06D0B3B224
:1040F800628961692846FFF7F4FD8EE6B5F850300D
:104108009BB22B44227803EB0213B2B2A3F80C241F
:10411800EDE7217835F8212092B222F4E24222F02C
:10412800700242F4004242F0800225F82120B5F8DE
:10413800502092B22A44217802EB01129BB2A2F8D5
:104148000434228961692846FFF7CBFD65E64EB93C
:10415800B3F80C246FEA42426FEA524292B2A3F8D3
:104168000C2416E0720816F0010F00D00132B3F8E3
:104178000C1489B2920292B20A43A3F80C2408E004
:10418800B5F850309BB22B4403EB0113B2B2A3F83D
:104198000C24B3B2628961692846FFF7A2FD3CE6A8
:1041A800B2BBB5F850309BB22B4403EB0113B3F804
:1041B8000424C2F30902A3F804243E2E0FD971097E
:1041C80016F01F0F00D10139B3F8042492B2890206
:1041D80089B20A4342F40042A3F8042421E04EB90C
:1041E800B3F804246FEA42426FEA524292B2A3F84B
:1041F800042416E0720816F0010F00D00132B3F85B
:10420800041489B2920292B20A43A3F8042408E083
:10421800B5F850309BB22B4403EB0113B2B2A3F8AC
:104228000424B3B2228961692846FFF75AFDF4E5F0
:1042380000228A611A4679E54AB9B3F80C246FEA74
:1042480042426FEA524292B2A3F80C248DE551081B
:1042580012F0010F00D00131B3F80C2492B2890298
:1042680089B21143A3F80C147FE5CB78022B4DD00B
:10427800012B40F02F8189692369994240F2E68039
:10428800C91AA161F2B9B5F8502092B22A4421782E
:1042980002EB0112B2F80414C1F30901A2F80414E4
:1042A8003E2B40F2D780580913F01F0F00D1013878
:1042B800B2F8041489B2800280B2014341F400418B
:1042C800A2F804146278002A40F0F680B5F850206D
:1042D80092B22A44217802EB0112B2F80C14C1F30D
:1042E8000901A2F80C143E2B40F2CD80590913F0B5
:1042F8001F0F00D10139B2F80C349BB2890289B280
:104308000B4343F40043A2F80C342EE5F2B9B0F89D
:1043180050309BB203440A7803EB0213B3F8042429
:10432800C2F30902A3F804240A693E2A31D95109C3
:1043380012F01F0F00D10139B3F8042492B2890298
:1043480089B20A4342F40042A3F804246378002B9C
:1043580051D1B5F850309BB22B44227803EB0213AD
:10436800B3F80C24C2F30902A3F80C2422693E2AEC
:1043780028D9510912F01F0F00D10139B3F80C24C4
:1043880092B2890289B20A4342F40042A3F80C248B
:1043980033E04AB9B3F804246FEA42426FEA524262
:1043A80092B2A3F80424D1E7510812F0010F00D00B
:1043B8000131B3F8042490B28A0292B20243A3F8FE
:1043C8000424C3E74AB9B3F80C246FEA42426FEAFF
:1043D800524292B2A3F80C240FE0510812F0010FD8
:1043E80000D00131B3F80C2490B28A0292B2024391
:1043F800A3F80C2401E0012B1DD0E369002B3FF446
:10440800B4AC227835F8221044F2400303EA0100E4
:104418008B4302D000287FF4A8AC35F822309BB239
:1044280023F4E04323F0700343F4004343F0C00354
:1044380025F8223099E4B5F850309BB22B44227805
:1044480003EB0213228AA3F80C24D6E70023A36106
:104458000B4617E74BB9B2F804146FEA41416FEA0B
:10446800514189B2A2F804142CE7590813F0010F3E
:1044780000D00131B2F8040480B2890289B2014344
:10448800A2F804141EE74BB9B2F80C346FEA4343A0
:104498006FEA53439BB2A2F80C3466E4590813F050
:1044A800010F00D00131B2F80C3498B28B029BB2E4
:1044B8000343A2F80C3458E4012A7FF456ACB5F84B
:1044C800502092B22A44217802EB01129BB2A2F842
:1044D8000C344AE4012059E410B45C0800EB4200B3
:1044E80000F5806007E030F8042B0A70C2F3072259
:1044F8004A700231013C002CF5D113F0010F01D0B4
:1045080003880B7010BC704710B586B0134B9A69BE
:1045180042F010029A619B6903F010030193019B1A
:10452800422302930E4B039301240494032305931F
:1045380002A90C48FCF7E0FF224602211720FCF7ED
:1045480081FF1720FCF7B6FF224602210720FCF75F
:1045580079FF0720FCF7AEFF06B010BD001002403F
:104568000000211000100140014B188880B27047EC
:10457800900B002008B5402802D0022833D008BD8F
:1045880002213348FDF7D8F801281BD0314B1B789E
:10459800DBB2022BF3D102212D48FDF7CDF800281C
:1045A800EDD12D4A13889BB212339BB21380128827
:1045B80092B22A4B1B889BB29A4207D8264B1B887B
:1045C8009BB204E0234B01221A70DFE70023224A42
:1045D8001380FFF7C9FF0146214806F0C7FC1D4BB1
:1045E80000221A70CBE740211948FDF7A5F80128E9
:1045F80025D0184B1B78DBB2012BC0D140211448C1
:10460800FDF79AF80028BAD1134B1B889BB2102BE0
:1046180019D8124B1B889BB212339BB20E4A1380D7
:1046280013889BB2123B9BB21380FFF79DFF014694
:104638000C4806F09BFC074B00221A709FE7054BBD
:1046480002221A70D5E7044B1B889BB2E6E700BF2D
:1046580000100140920B0020900B00200C0000205D
:10466800000F0108180F010808B503F0CDFF4EF63A
:104678001773984201D0012008BD0020FCE708B557
:1046880004F0D6F803F0EAFF0020FFF7EDFF08BDBD
:1046980008B5084611461A0302F47042090304F0EB
:1046A80033F8002008BD08B5084611461A0302F47D
:1046B8007042090304F06AF8002008BD022909D0F5
:1046C80003290BD0012901D0002070474FF4006363
:1046D8001360F9E74FF480531380F5E70123138043
:1046E800F2E7002070474278007840EA02207047DD
:1046F800C278837843EA0222437843EA02230078A7
:1047080040EA03207047C279837943EA0222437959
:1047180043EA0223027942EA0321C3F30743C2783A
:1047280042EA01221B0243EA1263817841EA02222B
:104738001B0243EA1263417841EA02211B02007816
:1047480040EA012043EA116170470170090A41708B
:1047580070470170C1F307234370C1F307438370A7
:10476800090EC17070470270C2F307214170C2F38D
:1047780007418170120EC2700371C3F307224271A0
:10478800C3F3074282711B0EC3717047802804D996
:10479800FF2804D128B1002070470020704701206D
:1047A8007047012070473F280BD97E280BD910F09D
:1047B800800F02D148B100207047FF28FAD00120AD
:1047C8007047002070470120704701207047023968
:1047D800036A023B8B4204D9436B408901FB0030DA
:1047E80070470020704770B506460D4601F11A0063
:1047F800FFF779FF3378032B00D070BD044605F12D
:104808001400FFF770FF44EA0040F6E770B506466B
:104818000C46154691B204F11A00FFF796FF33785B
:10482800032B00D070BD290C04F11400FFF78DFF95
:10483800F8E700002DE9F04180460E4601F11A0024
:10484800FFF751FF58BB357825F04005013D05EBD2
:10485800450305EB83050127002404E04FF6FF73A9
:10486800984221D101340C2C0DD8134B185D3044DB
:10487800FFF739FF002FF1D0FF2D13D828F81500C6
:1048880007460135EEE7337813F0400F0ED07FB1BD
:10489800FF2D0FD8002328F81530012000E0002054
:1048A800BDE8F0810020FBE70020F9E70120F7E7E9
:1048B8000120F5E70020F3E7900F01082DE9F84300
:1048C80080460F4691464B730F23CB7200240C731E
:1048D800214607F11A00FFF738FF09F1FF3606EB0A
:1048E800460306EB8306254602E001340C2C11D85A
:1048F8004FF6FF739D4202D038F8165001360C4B24
:10490800185D29463844FFF720FF002DEDD14FF6FA
:10491800FF75EAE74FF6FF739D4202D038F816306C
:104928000BB949F0400987F80090BDE8F88300BF4B
:10493800900F010802460B210020C30143EA5000F2
:10494800C0B2137801321844C0B20139F5D17047AA
:1049580000B586464178013149010020034601E04F
:10496800013301338B420AD2022BF9D0420802EB01
:10497800C03292B21EF803C0624490B2F1E75DF80B
:1049880004FB00EB7100704738B505460C464069DA
:104998003430FFF7ADFEA06068693830FFF7B3FE2A
:1049A800C4E904016B6993F8213003F00203E37151
:1049B8000023E36138BD0146006820B3024613783E
:1049C80001321F2B01D93A2BF9D13A2B01D0002003
:1049D80070470378A3F1300C5FFA8CFCBCF1090F27
:1049E8000ED80230904202D04FF0FF307047A3F14A
:1049F8003000002802DD4FF0FF3070470A60704732
:104A08004FF0FF3070474FF0FF30704738B50D4614
:104A1800044698B103689BB11A78A2B18188DA88F4
:104A2800914203D0092000242C6038BD5878FFF744
:104A38001BFE10F0010009D12468F5E70920F3E70F
:104A48001C460920F0E709200024EDE7092000248E
:104A5800EAE770B505790DB9284670BD044600F13E
:104A680040060123C26B31464078FFF71CFE05461D
:104A780088B900232371E16BE36ACB1A626A934217
:104A8800EAD2E378022BE7D101230A443146607861
:104A9800FFF709FEE0E70125DEE770B5C36B8B423F
:104AA80002D10026304670BD04460D46FFF7D1FFFF
:104AB80006460028F6D101232A4604F14001607811
:104AC800FFF7E6FD10B101264FF0FF35E563E9E792
:104AD80038B50446002303714FF0FF33C363FFF773
:104AE800DCFF00286AD104F23E20FFF7FCFD0546F2
:104AF8004AF6552398420DD094F84030EB2B13D04A
:104B0800E92B11D0E82B0FD04AF655239D4253D0FC
:104B1800032038BD0B222A4904F1400006F094F91D
:104B28000028E9D10120F4E74AF655239D4239D0FF
:104B380004F14B00FFF7D7FD94F84D20431E1842AF
:104B4800E2D1B0F5007FDFD3B0F5805FDCD8002A72
:104B5800DAD0531E1A42D7D104F14E00FFF7C3FD35
:104B68000028D1D094F85030013B012BCCD804F167
:104B78005100FFF7B8FD0028C6D004F15300FFF735
:104B8800B2FD7F2806D804F16000FFF7B1FDB0F54B
:104B9800803FB9D304F15600FFF7A5FD0028B3D034
:104BA8000020B6E70822074904F1920006F04CF904
:104BB8000028BDD10020ACE70220AAE70420A8E71E
:104BC800300F01083C0F010870B584B006460D4649
:104BD8000021FFF77DFF022803D02BD855B300240E
:104BE80000E00024032C0ED806F14000230103F551
:104BF800E3731844FFF77CFD04AB03EB840343F82D
:104C0800100C0134EEE70DB16C1E0AE02C4608E0EA
:104C18003046FFF75DFF6DB901280BD90134032C2D
:104C280008D804AB03EB840353F8101C0029EFD118
:104C38000320F0E704B070BD2DE9F04F83B00D46B6
:104C4800164600230B60FFF7B6FE0028C0F21A8252
:104C5800C54B53F82040002C00F019822C6006F058
:104C6800FE06237873B16078FFF7FEFC10F00105AB
:104C780008D1002E00F0078210F0040F00F0038224
:104C88000A2500E2002323706078FFF7F8FC10F093
:104C9800010F40F0FE811EB110F0040F40F0FB81BF
:104CA80004F10C0202216078FFF708FD0546002890
:104CB80040F0F381A289A2F500739BB2B3F5606F4F
:104CC80000F2ED81531E1A4201D00125DBE10021DB
:104CD8002046FFF779FF042800F0E381012800F25D
:104CE800E281D4F83C9000F0EB8004F14B00FFF730
:104CF800FAFCA789B84240F0F28104F15600FFF7A8
:104D0800F2FC064620B904F16400FFF7F1FC064600
:104D1800666294F85020E270531EDBB2012B00F259
:104D2800E08106FB02F3009394F84D80A4F80A8012
:104D3800B8F1000F00F0D78108F1FF3318EA030F2C
:104D480040F0D38104F15100FFF7CDFC8246208169
:104D58004FEA571BB0FBFBF30BFB13039BB2002B73
:104D680040F0C58104F15300FFF7BDFC019020B964
:104D780004F16000FFF7BCFC019004F14E00FFF75E
:104D8800B2FC0146002800F0B481009BC318BAFBAE
:104D9800FBFB5B44019A9A42C0F0AD81D21AB2FB88
:104DA800F8F04245C0F0A981704A904240F2E9808B
:104DB8004FF0000B4FF6F572904201D84FF0020BFE
:104DC80040F6F572904240F2DF80BBF1000F40F0F0
:104DD800DD800D2557E101333F2B04D8E21892F806
:104DE8004020002AF7D03F2B40F25F8104F1A80051
:104DF800FFF779FCB0F5807F40F0598194F8AC203A
:104E080001239340A289934240F0538104F1880022
:104E1800FFF779FC10EB090641F100074FF0FF336B
:104E2800B3424FF00003BB41C0F0458104F1940048
:104E3800FFF75EFC606294F8AEA084F803A0BAF1B4
:104E4800010F40F03A8194F8AD304FF0010808FAAC
:104E580003F81FFA88F8A4F80A80B8F1000F00F0E8
:104E68002E8104F19C00FFF743FC8346404B984297
:104E780000F22781831C2362C4F8289004F198006B
:104E8800FFF736FC00EB09030093636304F190001D
:104E9800FFF72EFC4844E06200230BFB08F8009A59
:104EA80012EB08085B41464577EB0303C0F00B8122
:104EB80004F1A000FFF71CFC2063002637460CE035
:104EC8000B2389E7A31993F84030812B18D020369B
:104ED800A389B6FBF3F203FB1266002EF2D16389B5
:104EE800BB4240F2F280216B2046FFF770FCC119EB
:104EF8002046FFF7D2FD002840F0E9800137E1E7BE
:104F080004F1400706F114003844FFF7F1FB0646A8
:104F1800012840F2DE80236A834240F2DC80636B22
:104F28006289811E01FB0233A363E16AA3899B089E
:104F3800B6FBF3F319442046FFF7AFFD002840F015
:104F4800CC80A3899B08B6FBF3F203FB126307EB43
:104F58008300FFF7CDFBB0F1FF3F0BD00136B04225
:104F6800E3D00D258FE000BF940B0020F5FFFF0F65
:104F7800FDFFFF7F4FF0FF33E361A3614FF0040BA8
:104F880033E04FF0030B15E74FF0010B00F1020877
:104F9800C4F82080C4F8289001EB0902E2624B446F
:104FA8006363BBF1030F29D0BAF1000F00F0AB80A7
:104FB800009B1A442263BBF1020F30D008EB480370
:104FC80008F0010808EB5308B84408F1FF33B3FBB5
:104FD800F7F7B74200F299804FF0FF33E361A3611E
:104FE80080236371BBF1030F1CD084F800B0484ADA
:104FF800138801339BB21380E38044E004F16A0014
:10500800FFF771FB00287AD1BAF1000F79D104F1CA
:105018006C00FFF76DFB20634FEA8808D4E74FEA7E
:105028004808D1E704F17000FFF75DFB0128DCD1E7
:1050380009F101012046FFF730FD0028D5D10023F2
:10504800637104F23E20FFF74EFB4AF6552398425F
:10505800CBD104F14000FFF74BFB2E4B9842C4D153
:1050680004F50970FFF744FB2B4B9842BDD104F5BA
:105078000A70FFF73DFBE06104F50B70FFF738FBA2
:10508800A061B2E70B25284603B0BDE8F08F0C25D8
:10509800F9E70325F7E70A25F5E70125F3E70125F1
:1050A800F1E70125EFE70D25EDE70D25EBE70D25E8
:1050B800E9E70D25E7E70D25E5E70D25E3E70D25EC
:1050C800E1E70D25DFE70D25DDE70D25DBE7554693
:1050D800D9E70D25D7E70D25D5E75546D3E70D25A3
:1050E800D1E70D25CFE70D25CDE70D25CBE70D251C
:1050F800C9E70D25C7E70D25C5E70D25C3E70D252C
:10510800C1E70D25BFE70D25BDE70D25BBE700BFAE
:10511800980B002052526141727241612DE9F047AB
:10512800054691468F1E036A023BBB4200D8002702
:10513800B8463C460026A96B4FEAD40AAB89BAFBAD
:10514800F3F319442846FFF7A8FC844658BBA889FE
:10515800BAFBF0F300FB13AA04F007020123934003
:10516800DBB209E0A0460026A7421FD023B90AF106
:10517800010A5045DFD9012305EB0A0292F84010D5
:1051880019405B00DBB201342A6A023AA24202D813
:105198008246634600240029E4D101364E45E3D116
:1051A80008F1020003E04FF0FF3000E00020BDE806
:1051B800F0872DE9F8430546174698468C1E816B03
:1051C800E6088289B6FBF2F3194402FB136604F081
:1051D8000704012303FA04F4E4B201F101092846A3
:1051E800FFF75BFC024610B101221EE00124AB1957
:1051F80093F84010214214BF01230023434513D0E4
:10520800AB19614083F8401001232B71013F0CD08A
:105218009C4014F0FF04EAD11E44AB890124B34238
:10522800E4D849460026D8E702221046BDE8F883AC
:105238002DE9F047012940F2A38004460D461646A1
:10524800036A8B4240F2A0800378022B7FD042D8B9
:10525800012B3ED101EB5108C16A8389B8FBF3F3F6
:105268001944FFF71AFC0746002840F08A8004F129
:10527800400A08F10109A389B8FBF3F203FB12887D
:1052880015F0010558D01AF9083003F00F03320160
:1052980002F47F621343DBB20AF80830012323715A
:1052A800E16AA389B9FBF3F319442046FFF7F5FB3C
:1052B8000746002865D1A389B9FBF3F203FB1299CD
:1052C800002D3BD0C6F307160AF8096001232371A5
:1052D80057E0022755E0033BDBB2012B56D8C16AE1
:1052E80083899B08B5FBF3F31944FFF7D6FB074600
:1052F800002846D12378042B0FD026F0704604F1FD
:105308004003A800A289B0FBF2F102FB1100184487
:10531800FFF7EEF900F07040064304F14000AD00DD
:10532800A389B5FBF3F203FB125531462844FFF776
:1053380010FA0123237124E0F3B2ADE71AF909301A
:1053480023F00F03C6F303261E43F6B2BCE7C16A77
:1053580083895B08B5FBF3F31944FFF79EFB074607
:1053680078B904F140006D00A389B5FBF3F203FBA3
:105378001255B1B22844FFF7E8F90123237100E080
:1053880002273846BDE8F0870227FAE70227F8E740
:1053980070B504460D46164607E03246FFF748FF4B
:1053A800034658B9E369013BE361E36933B1206817
:1053B800EA1A511C012BF0D90232EFE7184670BDEA
:1053C800C379032B02D000231846704770B50646F0
:1053D800816884694CB14D1C2A463068FFF728FF64
:1053E800034620B9013C2946F4E70023F371184627
:1053F80070BD2DE9F0410668012940F2B9800546E3
:105408000C46336A8B4240F2B6803378013B032B5B
:1054180000F2B380DFE803F002354C6501EB51057B
:10542800F16AB389B5FBF3F319443046FFF735FB4E
:1054380010B14FF0FF309CE06F1CB389B5FBF3F25D
:1054480003FB1255354495F84050F16AB7FBF3F366
:1054580019443046FFF721FB002840F09080B389BB
:10546800B7FBF3F203FB12773E4496F8400045EA97
:10547800002014F0010F01D000097AE0C0F30B00FE
:1054880077E0F16AB3895B08B4FBF3F3194430465B
:10549800FFF703FB002875D106F140006400B389CB
:1054A800B4FBF3F203FB12442044FFF71CF960E05D
:1054B800F16AB3899B08B4FBF3F319443046FFF74C
:1054C800ECFA002861D106F14000A400B389B4FBCE
:1054D800F3F203FB12442044FFF70AF920F070406E
:1054E80047E00069696950EA010301D0AB6813B964
:1054F800EB79002B4CD1AF68E71B0138B6F80C806C
:1055080042464FF0000341F1FF31FAF789FE7389F3
:10551800B0FBF3F0EB79022B08D0032B0BD0022B56
:105528003BD0EB6963B16FF0004022E08742F4D8CA
:1055380030D0601C1DE0AA69BA42F0D9601C18E09E
:10554800F16A4FEA9803B4FBF3F319443046FFF7C6
:10555800A4FA20BB06F14000A400B389B4FBF3F21F
:1055680003FB12442044FFF7C3F820F0004000E09A
:105578000120BDE8F0810120FBE70120F9E74FF0A9
:10558800FF30F6E74FF0FF30F3E74FF0FF30F0E77A
:105598000120EEE76FF00040EBE70120E9E74FF06C
:1055A800FF30E6E72DE9F04107460E46D0F80080C7
:1055B80098F80030042B31D04FF40013B3424ED981
:1055C80016F01F0F4DD13E63BC683CB998F8003007
:1055D800022B03D9D8F830400023FB710CBBB8F874
:1055E8000830B3EB561F3ED9D8F83030BB637C6324
:1055F800BB6B002B3FD0B8F80C20B6FBF2F213447B
:10560800BB6308F14003B8F80C10B6FBF1F201FBDC
:1056180012611944F9630020BDE8F0814FF080530E
:10562800CCE7B8F80A50B8F80C3003FB05F5AE42E1
:105638000FD321463846FFF7DCFE0446B0F1FF3FA2
:1056480013D0012813D9D8F82030834211D9761BFA
:10565800EDE721464046FFF7BAF8B863C7E70220EE
:10566800DAE70220D8E70220D6E70120D4E70220B3
:10567800D2E70220D0E70220CEE72DE9F84307461B
:10568800D0F80080894641B9D8F81860B6B1D8F882
:105698002030B34213D8012611E0FFF7AAFE0546D1
:1056A800012840F2C880B0F1FF3F00F0C580D8F86B
:1056B8002030834200F2C0804E4600E00126D8F830
:1056C8001C50002D00F0B88098F80030042B03D04F
:1056D8004E454AD0344693E0012231464046FFF712
:1056E8001DFD0546431E13F1030F00F2A58001239B
:1056F8001A4601464046FFF75CFD0346022800F0C3
:105708009E80012800F09D80B9F1000F19D1022276
:10571800FA71FA79022A00F0838009F10102AA429B
:105728001BD0FB690BB90123FB612A464946384661
:10573800FFF72EFE0346002874D10122FA612C4699
:105748003BE0FA79022AE4D1721CAA42E1D0BA6895
:10575800B21ABA610322FA71DBE7FA691AB10132A7
:10576800FA612C4629E00222FAE7741CD8F82030A6
:10577800A34200D8022421463846FFF73AFE0546E0
:10578800012859D0B0F1FF3F56D048B1D8F81830A9
:10579800012B9FD9D8F820209A429BD91E4699E719
:1057A800002C97D04FF0FF3221464046FFF740FDCE
:1057B800034610B9B9F1000F2BD1ABBBC8F818409C
:1057C800D8F81C20D8F82030023B9A4202D8013A77
:1057D800C8F81C2098F8053043F0010388F8053014
:1057E800254629E021463846FFF703FE05460028EE
:1057F800D8D0012820D0B0F1FF3F1DD0B44225D029
:105808000134D8F82030A342ECD8012E1CD9022448
:10581800E8E7224649464046FFF70AFD0346CCE73B
:105828002C46CAE72C46C8E7012B01D0012503E026
:105838004FF0FF3500E001252846BDE8F883012533
:10584800FAE74FF0FF35F7E70025F5E70025F3E71E
:105858002DE9F0470568012940F28E8007460C467D
:1058680091462B6A8B4240F28A8072B12B78042BC6
:1058780002D1C379022B08D04FF0FF32494628469F
:10588800FFF7D6FC824600287BD1A04611E0002213
:1058980031462846FFF7CCFC8246C8B171E0731C3C
:1058A800A34203D02B78042B1ED0A0462B6AA34218
:1058B80027D9264621463846FFF79BFD044600B304
:1058C800012861D0B0F1FF3F61D02B78042BDED1E5
:1058D800EA692B6A023B9A42E1D20132EA616B79AA
:1058E80043F001036B71DAE7A6EB080200230132EB
:1058F80041462846FFF75DFC8246002841D1A04674
:10590800D4E72B78042B02D04FF0000A39E0B9F124
:10591800000F04D14FF0000A87F807A031E097F88C
:1059280007A0BAF1000F15D1BC684C450DD021462F
:105938003846FFF75EFD01282CD9B0F1FF3F2CD087
:10594800631C834201D11C46EFE74C4519D1022361
:10595800FB7116E0BAF1030F02D04FF0000A10E015
:10596800BB684B451CD8BA6913444B451BD302236B
:10597800FB714FF0000A04E04FF0020A01E04FF01B
:10598800020A5046BDE8F0874FF0020AF9E74FF0E7
:10599800010AF6E74FF0020AF3E74FF0010AF0E7D1
:1059A8004FF0000AEDE74FF0000AEAE770B5044649
:1059B800FFF74FF8054648B92378032B08D0002293
:1059C80011466078FEF77AFE00B10125284670BDC1
:1059D8006379012BF3D104F140064FF48052002182
:1059E800304605F065FA4AF6552104F23E20FEF7E6
:1059F800ACFE0F493046FEF7ACFE0E4904F50970BF
:105A0800FEF7A7FEE16904F50A70FEF7A2FEA16998
:105A180004F50B70FEF79DFEA26A0132E2630123D2
:105A280031466078FEF73FFE00236371C7E700BF89
:105A380052526141727241612DE9F04F85B0019077
:105A48008B4600929A4603AA0121FEF737FE0028EA
:105A580040F08880DDF80C80082444B1B8FBF4F2EB
:105A68004FF63E439A4202D96400E4B2F5E704B91E
:105A7800FF244FF480520021504605F019FA0AF528
:105A8800DF763F254FF0000945E0474654E0A8EB94
:105A98000507002F56D0294606F10800FEF759FEE3
:105AA800394606F10C00FEF754FE009B33712F4A6D
:105AB800A2FB0513E91A03EB51035B09B3FBF4F1ED
:105AC80004FB1130C3EB8313EB1ADBB20133DBB2F7
